{
	"contracts/collectAndPay.sol": {
		"recieceAndPay": {
			"abi": [
				{
					"inputs": [],
					"stateMutability": "nonpayable",
					"type": "constructor"
				},
				{
					"inputs": [],
					"name": "GiveMoney",
					"outputs": [],
					"stateMutability": "payable",
					"type": "function"
				},
				{
					"inputs": [],
					"name": "owner",
					"outputs": [
						{
							"internalType": "address payable",
							"name": "",
							"type": "address"
						}
					],
					"stateMutability": "view",
					"type": "function"
				},
				{
					"inputs": [],
					"name": "payout",
					"outputs": [],
					"stateMutability": "nonpayable",
					"type": "function"
				}
			],
			"devdoc": {
				"kind": "dev",
				"methods": {},
				"version": 1
			},
			"evm": {
				"assembly": "    /* \"contracts/collectAndPay.sol\":61:522  contract recieceAndPay{... */\n  mstore(0x40, 0x80)\n    /* \"contracts/collectAndPay.sol\":127:187  constructor() {... */\n  callvalue\n  dup1\n  iszero\n  tag_1\n  jumpi\n  0x00\n  dup1\n  revert\ntag_1:\n  pop\n    /* \"contracts/collectAndPay.sol\":168:178  msg.sender */\n  caller\n    /* \"contracts/collectAndPay.sol\":152:157  owner */\n  0x00\n  dup1\n    /* \"contracts/collectAndPay.sol\":152:179  owner = payable(msg.sender) */\n  0x0100\n  exp\n  dup2\n  sload\n  dup2\n  0xffffffffffffffffffffffffffffffffffffffff\n  mul\n  not\n  and\n  swap1\n  dup4\n  0xffffffffffffffffffffffffffffffffffffffff\n  and\n  mul\n  or\n  swap1\n  sstore\n  pop\n    /* \"contracts/collectAndPay.sol\":61:522  contract recieceAndPay{... */\n  dataSize(sub_0)\n  dup1\n  dataOffset(sub_0)\n  0x00\n  codecopy\n  0x00\n  return\nstop\n\nsub_0: assembly {\n        /* \"contracts/collectAndPay.sol\":61:522  contract recieceAndPay{... */\n      mstore(0x40, 0x80)\n      jumpi(tag_1, lt(calldatasize, 0x04))\n      shr(0xe0, calldataload(0x00))\n      dup1\n      0x5fb9ba5a\n      eq\n      tag_2\n      jumpi\n      dup1\n      0x63bd1d4a\n      eq\n      tag_3\n      jumpi\n      dup1\n      0x8da5cb5b\n      eq\n      tag_4\n      jumpi\n    tag_1:\n      0x00\n      dup1\n      revert\n        /* \"contracts/collectAndPay.sol\":195:298  function GiveMoney() public payable {... */\n    tag_2:\n      tag_5\n      tag_6\n      jump\t// in\n    tag_5:\n      stop\n        /* \"contracts/collectAndPay.sol\":393:519  function payout() public OnlyOwner{... */\n    tag_3:\n      callvalue\n      dup1\n      iszero\n      tag_7\n      jumpi\n      0x00\n      dup1\n      revert\n    tag_7:\n      pop\n      tag_8\n      tag_9\n      jump\t// in\n    tag_8:\n      stop\n        /* \"contracts/collectAndPay.sol\":90:118  address payable public owner */\n    tag_4:\n      callvalue\n      dup1\n      iszero\n      tag_10\n      jumpi\n      0x00\n      dup1\n      revert\n    tag_10:\n      pop\n      tag_11\n      tag_12\n      jump\t// in\n    tag_11:\n      mload(0x40)\n      tag_13\n      swap2\n      swap1\n      tag_14\n      jump\t// in\n    tag_13:\n      mload(0x40)\n      dup1\n      swap2\n      sub\n      swap1\n      return\n        /* \"contracts/collectAndPay.sol\":195:298  function GiveMoney() public payable {... */\n    tag_6:\n        /* \"contracts/collectAndPay.sol\":262:270  200 gwei */\n      0x2e90edd000\n        /* \"contracts/collectAndPay.sol\":250:259  msg.value */\n      callvalue\n        /* \"contracts/collectAndPay.sol\":250:270  msg.value > 200 gwei */\n      gt\n        /* \"contracts/collectAndPay.sol\":242:290  require(msg.value > 200 gwei, \"too little sent\") */\n      tag_16\n      jumpi\n      mload(0x40)\n      0x08c379a000000000000000000000000000000000000000000000000000000000\n      dup2\n      mstore\n      0x04\n      add\n      tag_17\n      swap1\n      tag_18\n      jump\t// in\n    tag_17:\n      mload(0x40)\n      dup1\n      swap2\n      sub\n      swap1\n      revert\n    tag_16:\n        /* \"contracts/collectAndPay.sol\":195:298  function GiveMoney() public payable {... */\n      jump\t// out\n        /* \"contracts/collectAndPay.sol\":393:519  function payout() public OnlyOwner{... */\n    tag_9:\n        /* \"contracts/collectAndPay.sol\":359:364  owner */\n      0x00\n      dup1\n      sload\n      swap1\n      0x0100\n      exp\n      swap1\n      div\n      0xffffffffffffffffffffffffffffffffffffffff\n      and\n        /* \"contracts/collectAndPay.sol\":345:364  msg.sender == owner */\n      0xffffffffffffffffffffffffffffffffffffffff\n      and\n        /* \"contracts/collectAndPay.sol\":345:355  msg.sender */\n      caller\n        /* \"contracts/collectAndPay.sol\":345:364  msg.sender == owner */\n      0xffffffffffffffffffffffffffffffffffffffff\n      and\n      eq\n        /* \"contracts/collectAndPay.sol\":337:365  require(msg.sender == owner) */\n      tag_20\n      jumpi\n      0x00\n      dup1\n      revert\n    tag_20:\n        /* \"contracts/collectAndPay.sol\":438:453  uint256 balance */\n      0x00\n        /* \"contracts/collectAndPay.sol\":456:477  address(this).balance */\n      selfbalance\n        /* \"contracts/collectAndPay.sol\":438:477  uint256 balance = address(this).balance */\n      swap1\n      pop\n        /* \"contracts/collectAndPay.sol\":488:493  owner */\n      0x00\n      dup1\n      sload\n      swap1\n      0x0100\n      exp\n      swap1\n      div\n      0xffffffffffffffffffffffffffffffffffffffff\n      and\n        /* \"contracts/collectAndPay.sol\":488:502  owner.transfer */\n      0xffffffffffffffffffffffffffffffffffffffff\n      and\n        /* \"contracts/collectAndPay.sol\":488:511  owner.transfer(balance) */\n      0x08fc\n        /* \"contracts/collectAndPay.sol\":503:510  balance */\n      dup3\n        /* \"contracts/collectAndPay.sol\":488:511  owner.transfer(balance) */\n      swap1\n      dup2\n      iszero\n      mul\n      swap1\n      mload(0x40)\n      0x00\n      mload(0x40)\n      dup1\n      dup4\n      sub\n      dup2\n      dup6\n      dup9\n      dup9\n      call\n      swap4\n      pop\n      pop\n      pop\n      pop\n      iszero\n      dup1\n      iszero\n      tag_23\n      jumpi\n      returndatasize\n      0x00\n      dup1\n      returndatacopy\n      revert(0x00, returndatasize)\n    tag_23:\n      pop\n        /* \"contracts/collectAndPay.sol\":427:519  {... */\n      pop\n        /* \"contracts/collectAndPay.sol\":393:519  function payout() public OnlyOwner{... */\n      jump\t// out\n        /* \"contracts/collectAndPay.sol\":90:118  address payable public owner */\n    tag_12:\n      0x00\n      dup1\n      sload\n      swap1\n      0x0100\n      exp\n      swap1\n      div\n      0xffffffffffffffffffffffffffffffffffffffff\n      and\n      dup2\n      jump\t// out\n        /* \"#utility.yul\":7:133   */\n    tag_24:\n        /* \"#utility.yul\":44:51   */\n      0x00\n        /* \"#utility.yul\":84:126   */\n      0xffffffffffffffffffffffffffffffffffffffff\n        /* \"#utility.yul\":77:82   */\n      dup3\n        /* \"#utility.yul\":73:127   */\n      and\n        /* \"#utility.yul\":62:127   */\n      swap1\n      pop\n        /* \"#utility.yul\":7:133   */\n      swap2\n      swap1\n      pop\n      jump\t// out\n        /* \"#utility.yul\":139:243   */\n    tag_25:\n        /* \"#utility.yul\":184:191   */\n      0x00\n        /* \"#utility.yul\":213:237   */\n      tag_33\n        /* \"#utility.yul\":231:236   */\n      dup3\n        /* \"#utility.yul\":213:237   */\n      tag_24\n      jump\t// in\n    tag_33:\n        /* \"#utility.yul\":202:237   */\n      swap1\n      pop\n        /* \"#utility.yul\":139:243   */\n      swap2\n      swap1\n      pop\n      jump\t// out\n        /* \"#utility.yul\":249:391   */\n    tag_26:\n        /* \"#utility.yul\":352:384   */\n      tag_35\n        /* \"#utility.yul\":378:383   */\n      dup2\n        /* \"#utility.yul\":352:384   */\n      tag_25\n      jump\t// in\n    tag_35:\n        /* \"#utility.yul\":347:350   */\n      dup3\n        /* \"#utility.yul\":340:385   */\n      mstore\n        /* \"#utility.yul\":249:391   */\n      pop\n      pop\n      jump\t// out\n        /* \"#utility.yul\":397:651   */\n    tag_14:\n        /* \"#utility.yul\":506:510   */\n      0x00\n        /* \"#utility.yul\":544:546   */\n      0x20\n        /* \"#utility.yul\":533:542   */\n      dup3\n        /* \"#utility.yul\":529:547   */\n      add\n        /* \"#utility.yul\":521:547   */\n      swap1\n      pop\n        /* \"#utility.yul\":557:644   */\n      tag_37\n        /* \"#utility.yul\":641:642   */\n      0x00\n        /* \"#utility.yul\":630:639   */\n      dup4\n        /* \"#utility.yul\":626:643   */\n      add\n        /* \"#utility.yul\":617:623   */\n      dup5\n        /* \"#utility.yul\":557:644   */\n      tag_26\n      jump\t// in\n    tag_37:\n        /* \"#utility.yul\":397:651   */\n      swap3\n      swap2\n      pop\n      pop\n      jump\t// out\n        /* \"#utility.yul\":657:826   */\n    tag_27:\n        /* \"#utility.yul\":741:752   */\n      0x00\n        /* \"#utility.yul\":775:781   */\n      dup3\n        /* \"#utility.yul\":770:773   */\n      dup3\n        /* \"#utility.yul\":763:782   */\n      mstore\n        /* \"#utility.yul\":815:819   */\n      0x20\n        /* \"#utility.yul\":810:813   */\n      dup3\n        /* \"#utility.yul\":806:820   */\n      add\n        /* \"#utility.yul\":791:820   */\n      swap1\n      pop\n        /* \"#utility.yul\":657:826   */\n      swap3\n      swap2\n      pop\n      pop\n      jump\t// out\n        /* \"#utility.yul\":832:997   */\n    tag_28:\n        /* \"#utility.yul\":972:989   */\n      0x746f6f206c6974746c652073656e740000000000000000000000000000000000\n        /* \"#utility.yul\":968:969   */\n      0x00\n        /* \"#utility.yul\":960:966   */\n      dup3\n        /* \"#utility.yul\":956:970   */\n      add\n        /* \"#utility.yul\":949:990   */\n      mstore\n        /* \"#utility.yul\":832:997   */\n      pop\n      jump\t// out\n        /* \"#utility.yul\":1003:1369   */\n    tag_29:\n        /* \"#utility.yul\":1145:1148   */\n      0x00\n        /* \"#utility.yul\":1166:1233   */\n      tag_41\n        /* \"#utility.yul\":1230:1232   */\n      0x0f\n        /* \"#utility.yul\":1225:1228   */\n      dup4\n        /* \"#utility.yul\":1166:1233   */\n      tag_27\n      jump\t// in\n    tag_41:\n        /* \"#utility.yul\":1159:1233   */\n      swap2\n      pop\n        /* \"#utility.yul\":1242:1335   */\n      tag_42\n        /* \"#utility.yul\":1331:1334   */\n      dup3\n        /* \"#utility.yul\":1242:1335   */\n      tag_28\n      jump\t// in\n    tag_42:\n        /* \"#utility.yul\":1360:1362   */\n      0x20\n        /* \"#utility.yul\":1355:1358   */\n      dup3\n        /* \"#utility.yul\":1351:1363   */\n      add\n        /* \"#utility.yul\":1344:1363   */\n      swap1\n      pop\n        /* \"#utility.yul\":1003:1369   */\n      swap2\n      swap1\n      pop\n      jump\t// out\n        /* \"#utility.yul\":1375:1794   */\n    tag_18:\n        /* \"#utility.yul\":1541:1545   */\n      0x00\n        /* \"#utility.yul\":1579:1581   */\n      0x20\n        /* \"#utility.yul\":1568:1577   */\n      dup3\n        /* \"#utility.yul\":1564:1582   */\n      add\n        /* \"#utility.yul\":1556:1582   */\n      swap1\n      pop\n        /* \"#utility.yul\":1628:1637   */\n      dup2\n        /* \"#utility.yul\":1622:1626   */\n      dup2\n        /* \"#utility.yul\":1618:1638   */\n      sub\n        /* \"#utility.yul\":1614:1615   */\n      0x00\n        /* \"#utility.yul\":1603:1612   */\n      dup4\n        /* \"#utility.yul\":1599:1616   */\n      add\n        /* \"#utility.yul\":1592:1639   */\n      mstore\n        /* \"#utility.yul\":1656:1787   */\n      tag_44\n        /* \"#utility.yul\":1782:1786   */\n      dup2\n        /* \"#utility.yul\":1656:1787   */\n      tag_29\n      jump\t// in\n    tag_44:\n        /* \"#utility.yul\":1648:1787   */\n      swap1\n      pop\n        /* \"#utility.yul\":1375:1794   */\n      swap2\n      swap1\n      pop\n      jump\t// out\n\n    auxdata: 0xa26469706673582212206085fac063e4e5861f648aede8226601a38c951033be57a152086e7c9f02500e64736f6c63430008130033\n}\n",
				"bytecode": {
					"linkReferences": {},
					"object": "608060405234801561001057600080fd5b50336000806101000a81548173ffffffffffffffffffffffffffffffffffffffff021916908373ffffffffffffffffffffffffffffffffffffffff1602179055506102c8806100606000396000f3fe6080604052600436106100345760003560e01c80635fb9ba5a1461003957806363bd1d4a146100435780638da5cb5b1461005a575b600080fd5b610041610085565b005b34801561004f57600080fd5b506100586100ce565b005b34801561006657600080fd5b5061006f610195565b60405161007c91906101fa565b60405180910390f35b642e90edd00034116100cc576040517f08c379a00000000000000000000000000000000000000000000000000000000081526004016100c390610272565b60405180910390fd5b565b60008054906101000a900473ffffffffffffffffffffffffffffffffffffffff1673ffffffffffffffffffffffffffffffffffffffff163373ffffffffffffffffffffffffffffffffffffffff161461012657600080fd5b600047905060008054906101000a900473ffffffffffffffffffffffffffffffffffffffff1673ffffffffffffffffffffffffffffffffffffffff166108fc829081150290604051600060405180830381858888f19350505050158015610191573d6000803e3d6000fd5b5050565b60008054906101000a900473ffffffffffffffffffffffffffffffffffffffff1681565b600073ffffffffffffffffffffffffffffffffffffffff82169050919050565b60006101e4826101b9565b9050919050565b6101f4816101d9565b82525050565b600060208201905061020f60008301846101eb565b92915050565b600082825260208201905092915050565b7f746f6f206c6974746c652073656e740000000000000000000000000000000000600082015250565b600061025c600f83610215565b915061026782610226565b602082019050919050565b6000602082019050818103600083015261028b8161024f565b905091905056fea26469706673582212206085fac063e4e5861f648aede8226601a38c951033be57a152086e7c9f02500e64736f6c63430008130033",
					"opcodes": "PUSH1 0x80 PUSH1 0x40 MSTORE CALLVALUE DUP1 ISZERO PUSH2 0x10 JUMPI PUSH1 0x0 DUP1 REVERT JUMPDEST POP CALLER PUSH1 0x0 DUP1 PUSH2 0x100 EXP DUP2 SLOAD DUP2 PUSH20 0xFFFFFFFFFFFFFFFFFFFFFFFFFFFFFFFFFFFFFFFF MUL NOT AND SWAP1 DUP4 PUSH20 0xFFFFFFFFFFFFFFFFFFFFFFFFFFFFFFFFFFFFFFFF AND MUL OR SWAP1 SSTORE POP PUSH2 0x2C8 DUP1 PUSH2 0x60 PUSH1 0x0 CODECOPY PUSH1 0x0 RETURN INVALID PUSH1 0x80 PUSH1 0x40 MSTORE PUSH1 0x4 CALLDATASIZE LT PUSH2 0x34 JUMPI PUSH1 0x0 CALLDATALOAD PUSH1 0xE0 SHR DUP1 PUSH4 0x5FB9BA5A EQ PUSH2 0x39 JUMPI DUP1 PUSH4 0x63BD1D4A EQ PUSH2 0x43 JUMPI DUP1 PUSH4 0x8DA5CB5B EQ PUSH2 0x5A JUMPI JUMPDEST PUSH1 0x0 DUP1 REVERT JUMPDEST PUSH2 0x41 PUSH2 0x85 JUMP JUMPDEST STOP JUMPDEST CALLVALUE DUP1 ISZERO PUSH2 0x4F JUMPI PUSH1 0x0 DUP1 REVERT JUMPDEST POP PUSH2 0x58 PUSH2 0xCE JUMP JUMPDEST STOP JUMPDEST CALLVALUE DUP1 ISZERO PUSH2 0x66 JUMPI PUSH1 0x0 DUP1 REVERT JUMPDEST POP PUSH2 0x6F PUSH2 0x195 JUMP JUMPDEST PUSH1 0x40 MLOAD PUSH2 0x7C SWAP2 SWAP1 PUSH2 0x1FA JUMP JUMPDEST PUSH1 0x40 MLOAD DUP1 SWAP2 SUB SWAP1 RETURN JUMPDEST PUSH5 0x2E90EDD000 CALLVALUE GT PUSH2 0xCC JUMPI PUSH1 0x40 MLOAD PUSH32 0x8C379A000000000000000000000000000000000000000000000000000000000 DUP2 MSTORE PUSH1 0x4 ADD PUSH2 0xC3 SWAP1 PUSH2 0x272 JUMP JUMPDEST PUSH1 0x40 MLOAD DUP1 SWAP2 SUB SWAP1 REVERT JUMPDEST JUMP JUMPDEST PUSH1 0x0 DUP1 SLOAD SWAP1 PUSH2 0x100 EXP SWAP1 DIV PUSH20 0xFFFFFFFFFFFFFFFFFFFFFFFFFFFFFFFFFFFFFFFF AND PUSH20 0xFFFFFFFFFFFFFFFFFFFFFFFFFFFFFFFFFFFFFFFF AND CALLER PUSH20 0xFFFFFFFFFFFFFFFFFFFFFFFFFFFFFFFFFFFFFFFF AND EQ PUSH2 0x126 JUMPI PUSH1 0x0 DUP1 REVERT JUMPDEST PUSH1 0x0 SELFBALANCE SWAP1 POP PUSH1 0x0 DUP1 SLOAD SWAP1 PUSH2 0x100 EXP SWAP1 DIV PUSH20 0xFFFFFFFFFFFFFFFFFFFFFFFFFFFFFFFFFFFFFFFF AND PUSH20 0xFFFFFFFFFFFFFFFFFFFFFFFFFFFFFFFFFFFFFFFF AND PUSH2 0x8FC DUP3 SWAP1 DUP2 ISZERO MUL SWAP1 PUSH1 0x40 MLOAD PUSH1 0x0 PUSH1 0x40 MLOAD DUP1 DUP4 SUB DUP2 DUP6 DUP9 DUP9 CALL SWAP4 POP POP POP POP ISZERO DUP1 ISZERO PUSH2 0x191 JUMPI RETURNDATASIZE PUSH1 0x0 DUP1 RETURNDATACOPY RETURNDATASIZE PUSH1 0x0 REVERT JUMPDEST POP POP JUMP JUMPDEST PUSH1 0x0 DUP1 SLOAD SWAP1 PUSH2 0x100 EXP SWAP1 DIV PUSH20 0xFFFFFFFFFFFFFFFFFFFFFFFFFFFFFFFFFFFFFFFF AND DUP2 JUMP JUMPDEST PUSH1 0x0 PUSH20 0xFFFFFFFFFFFFFFFFFFFFFFFFFFFFFFFFFFFFFFFF DUP3 AND SWAP1 POP SWAP2 SWAP1 POP JUMP JUMPDEST PUSH1 0x0 PUSH2 0x1E4 DUP3 PUSH2 0x1B9 JUMP JUMPDEST SWAP1 POP SWAP2 SWAP1 POP JUMP JUMPDEST PUSH2 0x1F4 DUP2 PUSH2 0x1D9 JUMP JUMPDEST DUP3 MSTORE POP POP JUMP JUMPDEST PUSH1 0x0 PUSH1 0x20 DUP3 ADD SWAP1 POP PUSH2 0x20F PUSH1 0x0 DUP4 ADD DUP5 PUSH2 0x1EB JUMP JUMPDEST SWAP3 SWAP2 POP POP JUMP JUMPDEST PUSH1 0x0 DUP3 DUP3 MSTORE PUSH1 0x20 DUP3 ADD SWAP1 POP SWAP3 SWAP2 POP POP JUMP JUMPDEST PUSH32 0x746F6F206C6974746C652073656E740000000000000000000000000000000000 PUSH1 0x0 DUP3 ADD MSTORE POP JUMP JUMPDEST PUSH1 0x0 PUSH2 0x25C PUSH1 0xF DUP4 PUSH2 0x215 JUMP JUMPDEST SWAP2 POP PUSH2 0x267 DUP3 PUSH2 0x226 JUMP JUMPDEST PUSH1 0x20 DUP3 ADD SWAP1 POP SWAP2 SWAP1 POP JUMP JUMPDEST PUSH1 0x0 PUSH1 0x20 DUP3 ADD SWAP1 POP DUP2 DUP2 SUB PUSH1 0x0 DUP4 ADD MSTORE PUSH2 0x28B DUP2 PUSH2 0x24F JUMP JUMPDEST SWAP1 POP SWAP2 SWAP1 POP JUMP INVALID LOG2 PUSH5 0x6970667358 0x22 SLT KECCAK256 PUSH1 0x85 STATICCALL 0xC0 PUSH4 0xE4E5861F PUSH5 0x8AEDE82266 ADD LOG3 DUP13 SWAP6 LT CALLER 0xBE JUMPI LOG1 MSTORE ADDMOD PUSH15 0x7C9F02500E64736F6C634300081300 CALLER "
				},
				"gasEstimates": {
					"creation": {
						"codeDepositCost": "142400",
						"executionCost": "24456",
						"totalCost": "166856"
					},
					"external": {
						"GiveMoney()": "409",
						"owner()": "2533",
						"payout()": "infinite"
					}
				},
				"methodIdentifiers": {
					"GiveMoney()": "5fb9ba5a",
					"owner()": "8da5cb5b",
					"payout()": "63bd1d4a"
				}
			},
			"storageLayout": {
				"storage": [
					{
						"astId": 3,
						"contract": "contracts/collectAndPay.sol:recieceAndPay",
						"label": "owner",
						"offset": 0,
						"slot": "0",
						"type": "t_address_payable"
					}
				],
				"types": {
					"t_address_payable": {
						"encoding": "inplace",
						"label": "address payable",
						"numberOfBytes": "20"
					}
				}
			},
			"userdoc": {
				"kind": "user",
				"methods": {},
				"version": 1
			}
		}
	}
}