{
	"contracts/twitter.sol": {
		"twitter": {
			"abi": [
				{
					"inputs": [],
					"stateMutability": "nonpayable",
					"type": "constructor"
				},
				{
					"anonymous": false,
					"inputs": [
						{
							"indexed": false,
							"internalType": "uint256",
							"name": "id",
							"type": "uint256"
						},
						{
							"indexed": false,
							"internalType": "address",
							"name": "author",
							"type": "address"
						},
						{
							"indexed": false,
							"internalType": "string",
							"name": "content",
							"type": "string"
						},
						{
							"indexed": false,
							"internalType": "uint256",
							"name": "timestamp",
							"type": "uint256"
						}
					],
					"name": "tweetCreated",
					"type": "event"
				},
				{
					"anonymous": false,
					"inputs": [
						{
							"indexed": false,
							"internalType": "address",
							"name": "liker",
							"type": "address"
						},
						{
							"indexed": false,
							"internalType": "address",
							"name": "tweetAuthor",
							"type": "address"
						},
						{
							"indexed": false,
							"internalType": "uint256",
							"name": "id",
							"type": "uint256"
						},
						{
							"indexed": false,
							"internalType": "uint256",
							"name": "newLikeCount",
							"type": "uint256"
						}
					],
					"name": "tweetLiked",
					"type": "event"
				},
				{
					"anonymous": false,
					"inputs": [
						{
							"indexed": false,
							"internalType": "address",
							"name": "unliker",
							"type": "address"
						},
						{
							"indexed": false,
							"internalType": "address",
							"name": "tweetAuthor",
							"type": "address"
						},
						{
							"indexed": false,
							"internalType": "uint256",
							"name": "id",
							"type": "uint256"
						},
						{
							"indexed": false,
							"internalType": "uint256",
							"name": "newLikeCount",
							"type": "uint256"
						}
					],
					"name": "tweetUnLiked",
					"type": "event"
				},
				{
					"inputs": [
						{
							"internalType": "string",
							"name": "_msg",
							"type": "string"
						}
					],
					"name": "createTweet",
					"outputs": [],
					"stateMutability": "nonpayable",
					"type": "function"
				},
				{
					"inputs": [
						{
							"internalType": "address",
							"name": "_owner",
							"type": "address"
						}
					],
					"name": "getAllTweets",
					"outputs": [
						{
							"components": [
								{
									"internalType": "uint256",
									"name": "id",
									"type": "uint256"
								},
								{
									"internalType": "address",
									"name": "author",
									"type": "address"
								},
								{
									"internalType": "string",
									"name": "content",
									"type": "string"
								},
								{
									"internalType": "uint256",
									"name": "timestamp",
									"type": "uint256"
								},
								{
									"internalType": "uint256",
									"name": "likes",
									"type": "uint256"
								}
							],
							"internalType": "struct twitter.tweet[]",
							"name": "",
							"type": "tuple[]"
						}
					],
					"stateMutability": "view",
					"type": "function"
				},
				{
					"inputs": [
						{
							"internalType": "uint256",
							"name": "_i",
							"type": "uint256"
						}
					],
					"name": "getTweet",
					"outputs": [
						{
							"components": [
								{
									"internalType": "uint256",
									"name": "id",
									"type": "uint256"
								},
								{
									"internalType": "address",
									"name": "author",
									"type": "address"
								},
								{
									"internalType": "string",
									"name": "content",
									"type": "string"
								},
								{
									"internalType": "uint256",
									"name": "timestamp",
									"type": "uint256"
								},
								{
									"internalType": "uint256",
									"name": "likes",
									"type": "uint256"
								}
							],
							"internalType": "struct twitter.tweet",
							"name": "",
							"type": "tuple"
						}
					],
					"stateMutability": "view",
					"type": "function"
				},
				{
					"inputs": [
						{
							"internalType": "address",
							"name": "author",
							"type": "address"
						},
						{
							"internalType": "uint256",
							"name": "id",
							"type": "uint256"
						}
					],
					"name": "likeTweet",
					"outputs": [],
					"stateMutability": "nonpayable",
					"type": "function"
				},
				{
					"inputs": [],
					"name": "owner",
					"outputs": [
						{
							"internalType": "address",
							"name": "",
							"type": "address"
						}
					],
					"stateMutability": "view",
					"type": "function"
				},
				{
					"inputs": [
						{
							"internalType": "address",
							"name": "author",
							"type": "address"
						},
						{
							"internalType": "uint256",
							"name": "id",
							"type": "uint256"
						}
					],
					"name": "unlikeTweet",
					"outputs": [],
					"stateMutability": "nonpayable",
					"type": "function"
				}
			],
			"devdoc": {
				"kind": "dev",
				"methods": {},
				"version": 1
			},
			"evm": {
				"assembly": "    /* \"contracts/twitter.sol\":61:1921  contract twitter{... */\n  mstore(0x40, 0x80)\n    /* \"contracts/twitter.sol\":582:633  constructor() {... */\n  callvalue\n  dup1\n  iszero\n  tag_1\n  jumpi\n  0x00\n  dup1\n  revert\ntag_1:\n  pop\n    /* \"contracts/twitter.sol\":615:625  msg.sender */\n  caller\n    /* \"contracts/twitter.sol\":607:612  owner */\n  0x01\n  0x00\n    /* \"contracts/twitter.sol\":607:625  owner = msg.sender */\n  0x0100\n  exp\n  dup2\n  sload\n  dup2\n  0xffffffffffffffffffffffffffffffffffffffff\n  mul\n  not\n  and\n  swap1\n  dup4\n  0xffffffffffffffffffffffffffffffffffffffff\n  and\n  mul\n  or\n  swap1\n  sstore\n  pop\n    /* \"contracts/twitter.sol\":61:1921  contract twitter{... */\n  dataSize(sub_0)\n  dup1\n  dataOffset(sub_0)\n  0x00\n  codecopy\n  0x00\n  return\nstop\n\nsub_0: assembly {\n        /* \"contracts/twitter.sol\":61:1921  contract twitter{... */\n      mstore(0x40, 0x80)\n      callvalue\n      dup1\n      iszero\n      tag_1\n      jumpi\n      0x00\n      dup1\n      revert\n    tag_1:\n      pop\n      jumpi(tag_2, lt(calldatasize, 0x04))\n      shr(0xe0, calldataload(0x00))\n      dup1\n      0x12e7ee1c\n      eq\n      tag_3\n      jumpi\n      dup1\n      0x3d9b569f\n      eq\n      tag_4\n      jumpi\n      dup1\n      0x63378216\n      eq\n      tag_5\n      jumpi\n      dup1\n      0x7c9cd2bc\n      eq\n      tag_6\n      jumpi\n      dup1\n      0x8da5cb5b\n      eq\n      tag_7\n      jumpi\n      dup1\n      0xc3ad5ecb\n      eq\n      tag_8\n      jumpi\n    tag_2:\n      0x00\n      dup1\n      revert\n        /* \"contracts/twitter.sol\":1803:1918  function getAllTweets(address _owner) public view returns (tweet[] memory ){... */\n    tag_3:\n      tag_9\n      0x04\n      dup1\n      calldatasize\n      sub\n      dup2\n      add\n      swap1\n      tag_10\n      swap2\n      swap1\n      tag_11\n      jump\t// in\n    tag_10:\n      tag_12\n      jump\t// in\n    tag_9:\n      mload(0x40)\n      tag_13\n      swap2\n      swap1\n      tag_14\n      jump\t// in\n    tag_13:\n      mload(0x40)\n      dup1\n      swap2\n      sub\n      swap1\n      return\n        /* \"contracts/twitter.sol\":1344:1676  function unlikeTweet(address author, uint256 id) external {... */\n    tag_4:\n      tag_15\n      0x04\n      dup1\n      calldatasize\n      sub\n      dup2\n      add\n      swap1\n      tag_16\n      swap2\n      swap1\n      tag_17\n      jump\t// in\n    tag_16:\n      tag_18\n      jump\t// in\n    tag_15:\n      stop\n        /* \"contracts/twitter.sol\":1080:1336  function likeTweet(address author, uint256 id) external {  ... */\n    tag_5:\n      tag_19\n      0x04\n      dup1\n      calldatasize\n      sub\n      dup2\n      add\n      swap1\n      tag_20\n      swap2\n      swap1\n      tag_17\n      jump\t// in\n    tag_20:\n      tag_21\n      jump\t// in\n    tag_19:\n      stop\n        /* \"contracts/twitter.sol\":641:1072  function createTweet(string memory _msg) public {... */\n    tag_6:\n      tag_22\n      0x04\n      dup1\n      calldatasize\n      sub\n      dup2\n      add\n      swap1\n      tag_23\n      swap2\n      swap1\n      tag_24\n      jump\t// in\n    tag_23:\n      tag_25\n      jump\t// in\n    tag_22:\n      stop\n        /* \"contracts/twitter.sol\":273:293  address public owner */\n    tag_7:\n      tag_26\n      tag_27\n      jump\t// in\n    tag_26:\n      mload(0x40)\n      tag_28\n      swap2\n      swap1\n      tag_29\n      jump\t// in\n    tag_28:\n      mload(0x40)\n      dup1\n      swap2\n      sub\n      swap1\n      return\n        /* \"contracts/twitter.sol\":1684:1795  function getTweet( uint _i) public view returns (tweet memory) {... */\n    tag_8:\n      tag_30\n      0x04\n      dup1\n      calldatasize\n      sub\n      dup2\n      add\n      swap1\n      tag_31\n      swap2\n      swap1\n      tag_32\n      jump\t// in\n    tag_31:\n      tag_33\n      jump\t// in\n    tag_30:\n      mload(0x40)\n      tag_34\n      swap2\n      swap1\n      tag_35\n      jump\t// in\n    tag_34:\n      mload(0x40)\n      dup1\n      swap2\n      sub\n      swap1\n      return\n        /* \"contracts/twitter.sol\":1803:1918  function getAllTweets(address _owner) public view returns (tweet[] memory ){... */\n    tag_12:\n        /* \"contracts/twitter.sol\":1862:1876  tweet[] memory */\n      0x60\n        /* \"contracts/twitter.sol\":1896:1902  tweets */\n      0x00\n        /* \"contracts/twitter.sol\":1896:1910  tweets[_owner] */\n      dup1\n        /* \"contracts/twitter.sol\":1903:1909  _owner */\n      dup4\n        /* \"contracts/twitter.sol\":1896:1910  tweets[_owner] */\n      0xffffffffffffffffffffffffffffffffffffffff\n      and\n      0xffffffffffffffffffffffffffffffffffffffff\n      and\n      dup2\n      mstore\n      0x20\n      add\n      swap1\n      dup2\n      mstore\n      0x20\n      add\n      0x00\n      keccak256\n        /* \"contracts/twitter.sol\":1889:1910  return tweets[_owner] */\n      dup1\n      sload\n      dup1\n      0x20\n      mul\n      0x20\n      add\n      mload(0x40)\n      swap1\n      dup2\n      add\n      0x40\n      mstore\n      dup1\n      swap3\n      swap2\n      swap1\n      dup2\n      dup2\n      mstore\n      0x20\n      add\n      0x00\n      swap1\n    tag_37:\n      dup3\n      dup3\n      lt\n      iszero\n      tag_38\n      jumpi\n      dup4\n      dup3\n      swap1\n      0x00\n      mstore\n      keccak256(0x00, 0x20)\n      swap1\n      0x05\n      mul\n      add\n      mload(0x40)\n      dup1\n      0xa0\n      add\n      0x40\n      mstore\n      swap1\n      dup2\n      0x00\n      dup3\n      add\n      sload\n      dup2\n      mstore\n      0x20\n      add\n      0x01\n      dup3\n      add\n      0x00\n      swap1\n      sload\n      swap1\n      0x0100\n      exp\n      swap1\n      div\n      0xffffffffffffffffffffffffffffffffffffffff\n      and\n      0xffffffffffffffffffffffffffffffffffffffff\n      and\n      0xffffffffffffffffffffffffffffffffffffffff\n      and\n      dup2\n      mstore\n      0x20\n      add\n      0x02\n      dup3\n      add\n      dup1\n      sload\n      tag_40\n      swap1\n      tag_41\n      jump\t// in\n    tag_40:\n      dup1\n      0x1f\n      add\n      0x20\n      dup1\n      swap2\n      div\n      mul\n      0x20\n      add\n      mload(0x40)\n      swap1\n      dup2\n      add\n      0x40\n      mstore\n      dup1\n      swap3\n      swap2\n      swap1\n      dup2\n      dup2\n      mstore\n      0x20\n      add\n      dup3\n      dup1\n      sload\n      tag_42\n      swap1\n      tag_41\n      jump\t// in\n    tag_42:\n      dup1\n      iszero\n      tag_43\n      jumpi\n      dup1\n      0x1f\n      lt\n      tag_44\n      jumpi\n      0x0100\n      dup1\n      dup4\n      sload\n      div\n      mul\n      dup4\n      mstore\n      swap2\n      0x20\n      add\n      swap2\n      jump(tag_43)\n    tag_44:\n      dup3\n      add\n      swap2\n      swap1\n      0x00\n      mstore\n      keccak256(0x00, 0x20)\n      swap1\n    tag_45:\n      dup2\n      sload\n      dup2\n      mstore\n      swap1\n      0x01\n      add\n      swap1\n      0x20\n      add\n      dup1\n      dup4\n      gt\n      tag_45\n      jumpi\n      dup3\n      swap1\n      sub\n      0x1f\n      and\n      dup3\n      add\n      swap2\n    tag_43:\n      pop\n      pop\n      pop\n      pop\n      pop\n      dup2\n      mstore\n      0x20\n      add\n      0x03\n      dup3\n      add\n      sload\n      dup2\n      mstore\n      0x20\n      add\n      0x04\n      dup3\n      add\n      sload\n      dup2\n      mstore\n      pop\n      pop\n      dup2\n      mstore\n      0x20\n      add\n      swap1\n      0x01\n      add\n      swap1\n      jump(tag_37)\n    tag_38:\n      pop\n      pop\n      pop\n      pop\n      swap1\n      pop\n        /* \"contracts/twitter.sol\":1803:1918  function getAllTweets(address _owner) public view returns (tweet[] memory ){... */\n      swap2\n      swap1\n      pop\n      jump\t// out\n        /* \"contracts/twitter.sol\":1344:1676  function unlikeTweet(address author, uint256 id) external {... */\n    tag_18:\n        /* \"contracts/twitter.sol\":1446:1448  id */\n      dup1\n        /* \"contracts/twitter.sol\":1421:1427  tweets */\n      0x00\n        /* \"contracts/twitter.sol\":1421:1435  tweets[author] */\n      dup1\n        /* \"contracts/twitter.sol\":1428:1434  author */\n      dup5\n        /* \"contracts/twitter.sol\":1421:1435  tweets[author] */\n      0xffffffffffffffffffffffffffffffffffffffff\n      and\n      0xffffffffffffffffffffffffffffffffffffffff\n      and\n      dup2\n      mstore\n      0x20\n      add\n      swap1\n      dup2\n      mstore\n      0x20\n      add\n      0x00\n      keccak256\n        /* \"contracts/twitter.sol\":1436:1438  id */\n      dup3\n        /* \"contracts/twitter.sol\":1421:1439  tweets[author][id] */\n      dup2\n      sload\n      dup2\n      lt\n      tag_47\n      jumpi\n      tag_48\n      tag_49\n      jump\t// in\n    tag_48:\n    tag_47:\n      swap1\n      0x00\n      mstore\n      keccak256(0x00, 0x20)\n      swap1\n      0x05\n      mul\n      add\n        /* \"contracts/twitter.sol\":1421:1442  tweets[author][id].id */\n      0x00\n      add\n      sload\n        /* \"contracts/twitter.sol\":1421:1448  tweets[author][id].id == id */\n      eq\n        /* \"contracts/twitter.sol\":1413:1473  require(tweets[author][id].id == id, \"TWEET DOES NOT EXIST\") */\n      tag_51\n      jumpi\n      mload(0x40)\n      0x08c379a000000000000000000000000000000000000000000000000000000000\n      dup2\n      mstore\n      0x04\n      add\n      tag_52\n      swap1\n      tag_53\n      jump\t// in\n    tag_52:\n      mload(0x40)\n      dup1\n      swap2\n      sub\n      swap1\n      revert\n    tag_51:\n        /* \"contracts/twitter.sol\":1519:1520  0 */\n      0x00\n        /* \"contracts/twitter.sol\":1492:1498  tweets */\n      dup1\n        /* \"contracts/twitter.sol\":1492:1506  tweets[author] */\n      0x00\n        /* \"contracts/twitter.sol\":1499:1505  author */\n      dup5\n        /* \"contracts/twitter.sol\":1492:1506  tweets[author] */\n      0xffffffffffffffffffffffffffffffffffffffff\n      and\n      0xffffffffffffffffffffffffffffffffffffffff\n      and\n      dup2\n      mstore\n      0x20\n      add\n      swap1\n      dup2\n      mstore\n      0x20\n      add\n      0x00\n      keccak256\n        /* \"contracts/twitter.sol\":1507:1509  id */\n      dup3\n        /* \"contracts/twitter.sol\":1492:1510  tweets[author][id] */\n      dup2\n      sload\n      dup2\n      lt\n      tag_54\n      jumpi\n      tag_55\n      tag_49\n      jump\t// in\n    tag_55:\n    tag_54:\n      swap1\n      0x00\n      mstore\n      keccak256(0x00, 0x20)\n      swap1\n      0x05\n      mul\n      add\n        /* \"contracts/twitter.sol\":1492:1516  tweets[author][id].likes */\n      0x04\n      add\n      sload\n        /* \"contracts/twitter.sol\":1492:1520  tweets[author][id].likes > 0 */\n      gt\n        /* \"contracts/twitter.sol\":1484:1543  require(tweets[author][id].likes > 0, \"TWEET HAS NO LIKES\") */\n      tag_57\n      jumpi\n      mload(0x40)\n      0x08c379a000000000000000000000000000000000000000000000000000000000\n      dup2\n      mstore\n      0x04\n      add\n      tag_58\n      swap1\n      tag_59\n      jump\t// in\n    tag_58:\n      mload(0x40)\n      dup1\n      swap2\n      sub\n      swap1\n      revert\n    tag_57:\n        /* \"contracts/twitter.sol\":1564:1570  tweets */\n      0x00\n        /* \"contracts/twitter.sol\":1564:1578  tweets[author] */\n      dup1\n        /* \"contracts/twitter.sol\":1571:1577  author */\n      dup4\n        /* \"contracts/twitter.sol\":1564:1578  tweets[author] */\n      0xffffffffffffffffffffffffffffffffffffffff\n      and\n      0xffffffffffffffffffffffffffffffffffffffff\n      and\n      dup2\n      mstore\n      0x20\n      add\n      swap1\n      dup2\n      mstore\n      0x20\n      add\n      0x00\n      keccak256\n        /* \"contracts/twitter.sol\":1579:1581  id */\n      dup2\n        /* \"contracts/twitter.sol\":1564:1582  tweets[author][id] */\n      dup2\n      sload\n      dup2\n      lt\n      tag_60\n      jumpi\n      tag_61\n      tag_49\n      jump\t// in\n    tag_61:\n    tag_60:\n      swap1\n      0x00\n      mstore\n      keccak256(0x00, 0x20)\n      swap1\n      0x05\n      mul\n      add\n        /* \"contracts/twitter.sol\":1564:1588  tweets[author][id].likes */\n      0x04\n      add\n      0x00\n        /* \"contracts/twitter.sol\":1564:1590  tweets[author][id].likes-- */\n      dup2\n      sload\n      dup1\n      swap3\n      swap2\n      swap1\n      tag_63\n      swap1\n      tag_64\n      jump\t// in\n    tag_63:\n      swap2\n      swap1\n      pop\n      sstore\n      pop\n        /* \"contracts/twitter.sol\":1606:1668  tweetUnLiked(msg.sender, author, id, tweets[author][id].likes) */\n      0x13f32ddad207d713869a0b6702a654beb64c3be5af63f1888796c50dfff01c4c\n        /* \"contracts/twitter.sol\":1619:1629  msg.sender */\n      caller\n        /* \"contracts/twitter.sol\":1631:1637  author */\n      dup4\n        /* \"contracts/twitter.sol\":1639:1641  id */\n      dup4\n        /* \"contracts/twitter.sol\":1643:1649  tweets */\n      0x00\n        /* \"contracts/twitter.sol\":1643:1657  tweets[author] */\n      dup1\n        /* \"contracts/twitter.sol\":1650:1656  author */\n      dup8\n        /* \"contracts/twitter.sol\":1643:1657  tweets[author] */\n      0xffffffffffffffffffffffffffffffffffffffff\n      and\n      0xffffffffffffffffffffffffffffffffffffffff\n      and\n      dup2\n      mstore\n      0x20\n      add\n      swap1\n      dup2\n      mstore\n      0x20\n      add\n      0x00\n      keccak256\n        /* \"contracts/twitter.sol\":1658:1660  id */\n      dup6\n        /* \"contracts/twitter.sol\":1643:1661  tweets[author][id] */\n      dup2\n      sload\n      dup2\n      lt\n      tag_65\n      jumpi\n      tag_66\n      tag_49\n      jump\t// in\n    tag_66:\n    tag_65:\n      swap1\n      0x00\n      mstore\n      keccak256(0x00, 0x20)\n      swap1\n      0x05\n      mul\n      add\n        /* \"contracts/twitter.sol\":1643:1667  tweets[author][id].likes */\n      0x04\n      add\n      sload\n        /* \"contracts/twitter.sol\":1606:1668  tweetUnLiked(msg.sender, author, id, tweets[author][id].likes) */\n      mload(0x40)\n      tag_68\n      swap5\n      swap4\n      swap3\n      swap2\n      swap1\n      tag_69\n      jump\t// in\n    tag_68:\n      mload(0x40)\n      dup1\n      swap2\n      sub\n      swap1\n      log1\n        /* \"contracts/twitter.sol\":1344:1676  function unlikeTweet(address author, uint256 id) external {... */\n      pop\n      pop\n      jump\t// out\n        /* \"contracts/twitter.sol\":1080:1336  function likeTweet(address author, uint256 id) external {  ... */\n    tag_21:\n        /* \"contracts/twitter.sol\":1182:1184  id */\n      dup1\n        /* \"contracts/twitter.sol\":1157:1163  tweets */\n      0x00\n        /* \"contracts/twitter.sol\":1157:1171  tweets[author] */\n      dup1\n        /* \"contracts/twitter.sol\":1164:1170  author */\n      dup5\n        /* \"contracts/twitter.sol\":1157:1171  tweets[author] */\n      0xffffffffffffffffffffffffffffffffffffffff\n      and\n      0xffffffffffffffffffffffffffffffffffffffff\n      and\n      dup2\n      mstore\n      0x20\n      add\n      swap1\n      dup2\n      mstore\n      0x20\n      add\n      0x00\n      keccak256\n        /* \"contracts/twitter.sol\":1172:1174  id */\n      dup3\n        /* \"contracts/twitter.sol\":1157:1175  tweets[author][id] */\n      dup2\n      sload\n      dup2\n      lt\n      tag_71\n      jumpi\n      tag_72\n      tag_49\n      jump\t// in\n    tag_72:\n    tag_71:\n      swap1\n      0x00\n      mstore\n      keccak256(0x00, 0x20)\n      swap1\n      0x05\n      mul\n      add\n        /* \"contracts/twitter.sol\":1157:1178  tweets[author][id].id */\n      0x00\n      add\n      sload\n        /* \"contracts/twitter.sol\":1157:1184  tweets[author][id].id == id */\n      eq\n        /* \"contracts/twitter.sol\":1149:1209  require(tweets[author][id].id == id, \"TWEET DOES NOT EXIST\") */\n      tag_74\n      jumpi\n      mload(0x40)\n      0x08c379a000000000000000000000000000000000000000000000000000000000\n      dup2\n      mstore\n      0x04\n      add\n      tag_75\n      swap1\n      tag_53\n      jump\t// in\n    tag_75:\n      mload(0x40)\n      dup1\n      swap2\n      sub\n      swap1\n      revert\n    tag_74:\n        /* \"contracts/twitter.sol\":1222:1228  tweets */\n      0x00\n        /* \"contracts/twitter.sol\":1222:1236  tweets[author] */\n      dup1\n        /* \"contracts/twitter.sol\":1229:1235  author */\n      dup4\n        /* \"contracts/twitter.sol\":1222:1236  tweets[author] */\n      0xffffffffffffffffffffffffffffffffffffffff\n      and\n      0xffffffffffffffffffffffffffffffffffffffff\n      and\n      dup2\n      mstore\n      0x20\n      add\n      swap1\n      dup2\n      mstore\n      0x20\n      add\n      0x00\n      keccak256\n        /* \"contracts/twitter.sol\":1237:1239  id */\n      dup2\n        /* \"contracts/twitter.sol\":1222:1240  tweets[author][id] */\n      dup2\n      sload\n      dup2\n      lt\n      tag_76\n      jumpi\n      tag_77\n      tag_49\n      jump\t// in\n    tag_77:\n    tag_76:\n      swap1\n      0x00\n      mstore\n      keccak256(0x00, 0x20)\n      swap1\n      0x05\n      mul\n      add\n        /* \"contracts/twitter.sol\":1222:1246  tweets[author][id].likes */\n      0x04\n      add\n      0x00\n        /* \"contracts/twitter.sol\":1222:1248  tweets[author][id].likes++ */\n      dup2\n      sload\n      dup1\n      swap3\n      swap2\n      swap1\n      tag_79\n      swap1\n      tag_80\n      jump\t// in\n    tag_79:\n      swap2\n      swap1\n      pop\n      sstore\n      pop\n        /* \"contracts/twitter.sol\":1266:1326  tweetLiked(msg.sender, author, id, tweets[author][id].likes) */\n      0xa3c9ad75b0736706936cfe2646da2d2a6539dfdefbe5267580b75d1750151981\n        /* \"contracts/twitter.sol\":1277:1287  msg.sender */\n      caller\n        /* \"contracts/twitter.sol\":1289:1295  author */\n      dup4\n        /* \"contracts/twitter.sol\":1297:1299  id */\n      dup4\n        /* \"contracts/twitter.sol\":1301:1307  tweets */\n      0x00\n        /* \"contracts/twitter.sol\":1301:1315  tweets[author] */\n      dup1\n        /* \"contracts/twitter.sol\":1308:1314  author */\n      dup8\n        /* \"contracts/twitter.sol\":1301:1315  tweets[author] */\n      0xffffffffffffffffffffffffffffffffffffffff\n      and\n      0xffffffffffffffffffffffffffffffffffffffff\n      and\n      dup2\n      mstore\n      0x20\n      add\n      swap1\n      dup2\n      mstore\n      0x20\n      add\n      0x00\n      keccak256\n        /* \"contracts/twitter.sol\":1316:1318  id */\n      dup6\n        /* \"contracts/twitter.sol\":1301:1319  tweets[author][id] */\n      dup2\n      sload\n      dup2\n      lt\n      tag_81\n      jumpi\n      tag_82\n      tag_49\n      jump\t// in\n    tag_82:\n    tag_81:\n      swap1\n      0x00\n      mstore\n      keccak256(0x00, 0x20)\n      swap1\n      0x05\n      mul\n      add\n        /* \"contracts/twitter.sol\":1301:1325  tweets[author][id].likes */\n      0x04\n      add\n      sload\n        /* \"contracts/twitter.sol\":1266:1326  tweetLiked(msg.sender, author, id, tweets[author][id].likes) */\n      mload(0x40)\n      tag_84\n      swap5\n      swap4\n      swap3\n      swap2\n      swap1\n      tag_69\n      jump\t// in\n    tag_84:\n      mload(0x40)\n      dup1\n      swap2\n      sub\n      swap1\n      log1\n        /* \"contracts/twitter.sol\":1080:1336  function likeTweet(address author, uint256 id) external {  ... */\n      pop\n      pop\n      jump\t// out\n        /* \"contracts/twitter.sol\":641:1072  function createTweet(string memory _msg) public {... */\n    tag_25:\n        /* \"contracts/twitter.sol\":702:723  tweet memory NewTweet */\n      0x00\n        /* \"contracts/twitter.sol\":726:918  tweet({... */\n      mload(0x40)\n      dup1\n      0xa0\n      add\n      0x40\n      mstore\n      dup1\n        /* \"contracts/twitter.sol\":752:758  tweets */\n      0x00\n        /* \"contracts/twitter.sol\":752:770  tweets[msg.sender] */\n      dup1\n        /* \"contracts/twitter.sol\":759:769  msg.sender */\n      caller\n        /* \"contracts/twitter.sol\":752:770  tweets[msg.sender] */\n      0xffffffffffffffffffffffffffffffffffffffff\n      and\n      0xffffffffffffffffffffffffffffffffffffffff\n      and\n      dup2\n      mstore\n      0x20\n      add\n      swap1\n      dup2\n      mstore\n      0x20\n      add\n      0x00\n      keccak256\n        /* \"contracts/twitter.sol\":752:777  tweets[msg.sender].length */\n      dup1\n      sload\n      swap1\n      pop\n        /* \"contracts/twitter.sol\":726:918  tweet({... */\n      dup2\n      mstore\n      0x20\n      add\n        /* \"contracts/twitter.sol\":801:811  msg.sender */\n      caller\n        /* \"contracts/twitter.sol\":726:918  tweet({... */\n      0xffffffffffffffffffffffffffffffffffffffff\n      and\n      dup2\n      mstore\n      0x20\n      add\n        /* \"contracts/twitter.sol\":836:840  _msg */\n      dup4\n        /* \"contracts/twitter.sol\":726:918  tweet({... */\n      dup2\n      mstore\n      0x20\n      add\n        /* \"contracts/twitter.sol\":867:882  block.timestamp */\n      timestamp\n        /* \"contracts/twitter.sol\":726:918  tweet({... */\n      dup2\n      mstore\n      0x20\n      add\n        /* \"contracts/twitter.sol\":905:906  0 */\n      0x00\n        /* \"contracts/twitter.sol\":726:918  tweet({... */\n      dup2\n      mstore\n      pop\n        /* \"contracts/twitter.sol\":702:918  tweet memory NewTweet = tweet({... */\n      swap1\n      pop\n        /* \"contracts/twitter.sol\":931:937  tweets */\n      0x00\n        /* \"contracts/twitter.sol\":931:949  tweets[msg.sender] */\n      dup1\n        /* \"contracts/twitter.sol\":938:948  msg.sender */\n      caller\n        /* \"contracts/twitter.sol\":931:949  tweets[msg.sender] */\n      0xffffffffffffffffffffffffffffffffffffffff\n      and\n      0xffffffffffffffffffffffffffffffffffffffff\n      and\n      dup2\n      mstore\n      0x20\n      add\n      swap1\n      dup2\n      mstore\n      0x20\n      add\n      0x00\n      keccak256\n        /* \"contracts/twitter.sol\":955:963  NewTweet */\n      dup2\n        /* \"contracts/twitter.sol\":931:964  tweets[msg.sender].push(NewTweet) */\n      swap1\n      dup1\n      0x01\n      dup2\n      sload\n      add\n      dup1\n      dup3\n      sstore\n      dup1\n      swap2\n      pop\n      pop\n      0x01\n      swap1\n      sub\n      swap1\n      0x00\n      mstore\n      keccak256(0x00, 0x20)\n      swap1\n      0x05\n      mul\n      add\n      0x00\n      swap1\n      swap2\n      swap1\n      swap2\n      swap1\n      swap2\n      pop\n      0x00\n      dup3\n      add\n      mload\n      dup2\n      0x00\n      add\n      sstore\n      0x20\n      dup3\n      add\n      mload\n      dup2\n      0x01\n      add\n      exp(0x0100, 0x00)\n      dup2\n      sload\n      dup2\n      0xffffffffffffffffffffffffffffffffffffffff\n      mul\n      not\n      and\n      swap1\n      dup4\n      0xffffffffffffffffffffffffffffffffffffffff\n      and\n      mul\n      or\n      swap1\n      sstore\n      pop\n      0x40\n      dup3\n      add\n      mload\n      dup2\n      0x02\n      add\n      swap1\n      dup2\n      tag_87\n      swap2\n      swap1\n      tag_88\n      jump\t// in\n    tag_87:\n      pop\n      0x60\n      dup3\n      add\n      mload\n      dup2\n      0x03\n      add\n      sstore\n      0x80\n      dup3\n      add\n      mload\n      dup2\n      0x04\n      add\n      sstore\n      pop\n      pop\n        /* \"contracts/twitter.sol\":982:1062  tweetCreated(NewTweet.id, NewTweet.author, NewTweet.content, NewTweet.timestamp) */\n      0x6e5546a74a8ef6731872256d3bbbf86208675b875b179abed63f4ed747a30cfb\n        /* \"contracts/twitter.sol\":995:1003  NewTweet */\n      dup2\n        /* \"contracts/twitter.sol\":995:1006  NewTweet.id */\n      0x00\n      add\n      mload\n        /* \"contracts/twitter.sol\":1008:1016  NewTweet */\n      dup3\n        /* \"contracts/twitter.sol\":1008:1023  NewTweet.author */\n      0x20\n      add\n      mload\n        /* \"contracts/twitter.sol\":1025:1033  NewTweet */\n      dup4\n        /* \"contracts/twitter.sol\":1025:1041  NewTweet.content */\n      0x40\n      add\n      mload\n        /* \"contracts/twitter.sol\":1043:1051  NewTweet */\n      dup5\n        /* \"contracts/twitter.sol\":1043:1061  NewTweet.timestamp */\n      0x60\n      add\n      mload\n        /* \"contracts/twitter.sol\":982:1062  tweetCreated(NewTweet.id, NewTweet.author, NewTweet.content, NewTweet.timestamp) */\n      mload(0x40)\n      tag_89\n      swap5\n      swap4\n      swap3\n      swap2\n      swap1\n      tag_90\n      jump\t// in\n    tag_89:\n      mload(0x40)\n      dup1\n      swap2\n      sub\n      swap1\n      log1\n        /* \"contracts/twitter.sol\":689:1072  {... */\n      pop\n        /* \"contracts/twitter.sol\":641:1072  function createTweet(string memory _msg) public {... */\n      pop\n      jump\t// out\n        /* \"contracts/twitter.sol\":273:293  address public owner */\n    tag_27:\n      0x01\n      0x00\n      swap1\n      sload\n      swap1\n      0x0100\n      exp\n      swap1\n      div\n      0xffffffffffffffffffffffffffffffffffffffff\n      and\n      dup2\n      jump\t// out\n        /* \"contracts/twitter.sol\":1684:1795  function getTweet( uint _i) public view returns (tweet memory) {... */\n    tag_33:\n        /* \"contracts/twitter.sol\":1733:1745  tweet memory */\n      tag_91\n      tag_92\n      jump\t// in\n    tag_91:\n        /* \"contracts/twitter.sol\":1765:1771  tweets */\n      0x00\n        /* \"contracts/twitter.sol\":1765:1783  tweets[msg.sender] */\n      dup1\n        /* \"contracts/twitter.sol\":1772:1782  msg.sender */\n      caller\n        /* \"contracts/twitter.sol\":1765:1783  tweets[msg.sender] */\n      0xffffffffffffffffffffffffffffffffffffffff\n      and\n      0xffffffffffffffffffffffffffffffffffffffff\n      and\n      dup2\n      mstore\n      0x20\n      add\n      swap1\n      dup2\n      mstore\n      0x20\n      add\n      0x00\n      keccak256\n        /* \"contracts/twitter.sol\":1784:1786  _i */\n      dup3\n        /* \"contracts/twitter.sol\":1765:1787  tweets[msg.sender][_i] */\n      dup2\n      sload\n      dup2\n      lt\n      tag_94\n      jumpi\n      tag_95\n      tag_49\n      jump\t// in\n    tag_95:\n    tag_94:\n      swap1\n      0x00\n      mstore\n      keccak256(0x00, 0x20)\n      swap1\n      0x05\n      mul\n      add\n        /* \"contracts/twitter.sol\":1758:1787  return tweets[msg.sender][_i] */\n      mload(0x40)\n      dup1\n      0xa0\n      add\n      0x40\n      mstore\n      swap1\n      dup2\n      0x00\n      dup3\n      add\n      sload\n      dup2\n      mstore\n      0x20\n      add\n      0x01\n      dup3\n      add\n      0x00\n      swap1\n      sload\n      swap1\n      0x0100\n      exp\n      swap1\n      div\n      0xffffffffffffffffffffffffffffffffffffffff\n      and\n      0xffffffffffffffffffffffffffffffffffffffff\n      and\n      0xffffffffffffffffffffffffffffffffffffffff\n      and\n      dup2\n      mstore\n      0x20\n      add\n      0x02\n      dup3\n      add\n      dup1\n      sload\n      tag_97\n      swap1\n      tag_41\n      jump\t// in\n    tag_97:\n      dup1\n      0x1f\n      add\n      0x20\n      dup1\n      swap2\n      div\n      mul\n      0x20\n      add\n      mload(0x40)\n      swap1\n      dup2\n      add\n      0x40\n      mstore\n      dup1\n      swap3\n      swap2\n      swap1\n      dup2\n      dup2\n      mstore\n      0x20\n      add\n      dup3\n      dup1\n      sload\n      tag_98\n      swap1\n      tag_41\n      jump\t// in\n    tag_98:\n      dup1\n      iszero\n      tag_99\n      jumpi\n      dup1\n      0x1f\n      lt\n      tag_100\n      jumpi\n      0x0100\n      dup1\n      dup4\n      sload\n      div\n      mul\n      dup4\n      mstore\n      swap2\n      0x20\n      add\n      swap2\n      jump(tag_99)\n    tag_100:\n      dup3\n      add\n      swap2\n      swap1\n      0x00\n      mstore\n      keccak256(0x00, 0x20)\n      swap1\n    tag_101:\n      dup2\n      sload\n      dup2\n      mstore\n      swap1\n      0x01\n      add\n      swap1\n      0x20\n      add\n      dup1\n      dup4\n      gt\n      tag_101\n      jumpi\n      dup3\n      swap1\n      sub\n      0x1f\n      and\n      dup3\n      add\n      swap2\n    tag_99:\n      pop\n      pop\n      pop\n      pop\n      pop\n      dup2\n      mstore\n      0x20\n      add\n      0x03\n      dup3\n      add\n      sload\n      dup2\n      mstore\n      0x20\n      add\n      0x04\n      dup3\n      add\n      sload\n      dup2\n      mstore\n      pop\n      pop\n      swap1\n      pop\n        /* \"contracts/twitter.sol\":1684:1795  function getTweet( uint _i) public view returns (tweet memory) {... */\n      swap2\n      swap1\n      pop\n      jump\t// out\n    tag_92:\n      mload(0x40)\n      dup1\n      0xa0\n      add\n      0x40\n      mstore\n      dup1\n      0x00\n      dup2\n      mstore\n      0x20\n      add\n      and(0xffffffffffffffffffffffffffffffffffffffff, 0x00)\n      dup2\n      mstore\n      0x20\n      add\n      0x60\n      dup2\n      mstore\n      0x20\n      add\n      0x00\n      dup2\n      mstore\n      0x20\n      add\n      0x00\n      dup2\n      mstore\n      pop\n      swap1\n      jump\t// out\n        /* \"#utility.yul\":7:82   */\n    tag_102:\n        /* \"#utility.yul\":40:46   */\n      0x00\n        /* \"#utility.yul\":73:75   */\n      0x40\n        /* \"#utility.yul\":67:76   */\n      mload\n        /* \"#utility.yul\":57:76   */\n      swap1\n      pop\n        /* \"#utility.yul\":7:82   */\n      swap1\n      jump\t// out\n        /* \"#utility.yul\":88:205   */\n    tag_103:\n        /* \"#utility.yul\":197:198   */\n      0x00\n        /* \"#utility.yul\":194:195   */\n      dup1\n        /* \"#utility.yul\":187:199   */\n      revert\n        /* \"#utility.yul\":211:328   */\n    tag_104:\n        /* \"#utility.yul\":320:321   */\n      0x00\n        /* \"#utility.yul\":317:318   */\n      dup1\n        /* \"#utility.yul\":310:322   */\n      revert\n        /* \"#utility.yul\":334:460   */\n    tag_105:\n        /* \"#utility.yul\":371:378   */\n      0x00\n        /* \"#utility.yul\":411:453   */\n      0xffffffffffffffffffffffffffffffffffffffff\n        /* \"#utility.yul\":404:409   */\n      dup3\n        /* \"#utility.yul\":400:454   */\n      and\n        /* \"#utility.yul\":389:454   */\n      swap1\n      pop\n        /* \"#utility.yul\":334:460   */\n      swap2\n      swap1\n      pop\n      jump\t// out\n        /* \"#utility.yul\":466:562   */\n    tag_106:\n        /* \"#utility.yul\":503:510   */\n      0x00\n        /* \"#utility.yul\":532:556   */\n      tag_167\n        /* \"#utility.yul\":550:555   */\n      dup3\n        /* \"#utility.yul\":532:556   */\n      tag_105\n      jump\t// in\n    tag_167:\n        /* \"#utility.yul\":521:556   */\n      swap1\n      pop\n        /* \"#utility.yul\":466:562   */\n      swap2\n      swap1\n      pop\n      jump\t// out\n        /* \"#utility.yul\":568:690   */\n    tag_107:\n        /* \"#utility.yul\":641:665   */\n      tag_169\n        /* \"#utility.yul\":659:664   */\n      dup2\n        /* \"#utility.yul\":641:665   */\n      tag_106\n      jump\t// in\n    tag_169:\n        /* \"#utility.yul\":634:639   */\n      dup2\n        /* \"#utility.yul\":631:666   */\n      eq\n        /* \"#utility.yul\":621:684   */\n      tag_170\n      jumpi\n        /* \"#utility.yul\":680:681   */\n      0x00\n        /* \"#utility.yul\":677:678   */\n      dup1\n        /* \"#utility.yul\":670:682   */\n      revert\n        /* \"#utility.yul\":621:684   */\n    tag_170:\n        /* \"#utility.yul\":568:690   */\n      pop\n      jump\t// out\n        /* \"#utility.yul\":696:835   */\n    tag_108:\n        /* \"#utility.yul\":742:747   */\n      0x00\n        /* \"#utility.yul\":780:786   */\n      dup2\n        /* \"#utility.yul\":767:787   */\n      calldataload\n        /* \"#utility.yul\":758:787   */\n      swap1\n      pop\n        /* \"#utility.yul\":796:829   */\n      tag_172\n        /* \"#utility.yul\":823:828   */\n      dup2\n        /* \"#utility.yul\":796:829   */\n      tag_107\n      jump\t// in\n    tag_172:\n        /* \"#utility.yul\":696:835   */\n      swap3\n      swap2\n      pop\n      pop\n      jump\t// out\n        /* \"#utility.yul\":841:1170   */\n    tag_11:\n        /* \"#utility.yul\":900:906   */\n      0x00\n        /* \"#utility.yul\":949:951   */\n      0x20\n        /* \"#utility.yul\":937:946   */\n      dup3\n        /* \"#utility.yul\":928:935   */\n      dup5\n        /* \"#utility.yul\":924:947   */\n      sub\n        /* \"#utility.yul\":920:952   */\n      slt\n        /* \"#utility.yul\":917:1036   */\n      iszero\n      tag_174\n      jumpi\n        /* \"#utility.yul\":955:1034   */\n      tag_175\n      tag_103\n      jump\t// in\n    tag_175:\n        /* \"#utility.yul\":917:1036   */\n    tag_174:\n        /* \"#utility.yul\":1075:1076   */\n      0x00\n        /* \"#utility.yul\":1100:1153   */\n      tag_176\n        /* \"#utility.yul\":1145:1152   */\n      dup5\n        /* \"#utility.yul\":1136:1142   */\n      dup3\n        /* \"#utility.yul\":1125:1134   */\n      dup6\n        /* \"#utility.yul\":1121:1143   */\n      add\n        /* \"#utility.yul\":1100:1153   */\n      tag_108\n      jump\t// in\n    tag_176:\n        /* \"#utility.yul\":1090:1153   */\n      swap2\n      pop\n        /* \"#utility.yul\":1046:1163   */\n      pop\n        /* \"#utility.yul\":841:1170   */\n      swap3\n      swap2\n      pop\n      pop\n      jump\t// out\n        /* \"#utility.yul\":1176:1311   */\n    tag_109:\n        /* \"#utility.yul\":1264:1270   */\n      0x00\n        /* \"#utility.yul\":1298:1303   */\n      dup2\n        /* \"#utility.yul\":1292:1304   */\n      mload\n        /* \"#utility.yul\":1282:1304   */\n      swap1\n      pop\n        /* \"#utility.yul\":1176:1311   */\n      swap2\n      swap1\n      pop\n      jump\t// out\n        /* \"#utility.yul\":1317:1522   */\n    tag_110:\n        /* \"#utility.yul\":1437:1448   */\n      0x00\n        /* \"#utility.yul\":1471:1477   */\n      dup3\n        /* \"#utility.yul\":1466:1469   */\n      dup3\n        /* \"#utility.yul\":1459:1478   */\n      mstore\n        /* \"#utility.yul\":1511:1515   */\n      0x20\n        /* \"#utility.yul\":1506:1509   */\n      dup3\n        /* \"#utility.yul\":1502:1516   */\n      add\n        /* \"#utility.yul\":1487:1516   */\n      swap1\n      pop\n        /* \"#utility.yul\":1317:1522   */\n      swap3\n      swap2\n      pop\n      pop\n      jump\t// out\n        /* \"#utility.yul\":1528:1681   */\n    tag_111:\n        /* \"#utility.yul\":1616:1620   */\n      0x00\n        /* \"#utility.yul\":1639:1642   */\n      dup2\n        /* \"#utility.yul\":1631:1642   */\n      swap1\n      pop\n        /* \"#utility.yul\":1669:1673   */\n      0x20\n        /* \"#utility.yul\":1664:1667   */\n      dup3\n        /* \"#utility.yul\":1660:1674   */\n      add\n        /* \"#utility.yul\":1652:1674   */\n      swap1\n      pop\n        /* \"#utility.yul\":1528:1681   */\n      swap2\n      swap1\n      pop\n      jump\t// out\n        /* \"#utility.yul\":1687:1764   */\n    tag_112:\n        /* \"#utility.yul\":1724:1731   */\n      0x00\n        /* \"#utility.yul\":1753:1758   */\n      dup2\n        /* \"#utility.yul\":1742:1758   */\n      swap1\n      pop\n        /* \"#utility.yul\":1687:1764   */\n      swap2\n      swap1\n      pop\n      jump\t// out\n        /* \"#utility.yul\":1770:1878   */\n    tag_113:\n        /* \"#utility.yul\":1847:1871   */\n      tag_182\n        /* \"#utility.yul\":1865:1870   */\n      dup2\n        /* \"#utility.yul\":1847:1871   */\n      tag_112\n      jump\t// in\n    tag_182:\n        /* \"#utility.yul\":1842:1845   */\n      dup3\n        /* \"#utility.yul\":1835:1872   */\n      mstore\n        /* \"#utility.yul\":1770:1878   */\n      pop\n      pop\n      jump\t// out\n        /* \"#utility.yul\":1884:1992   */\n    tag_114:\n        /* \"#utility.yul\":1961:1985   */\n      tag_184\n        /* \"#utility.yul\":1979:1984   */\n      dup2\n        /* \"#utility.yul\":1961:1985   */\n      tag_106\n      jump\t// in\n    tag_184:\n        /* \"#utility.yul\":1956:1959   */\n      dup3\n        /* \"#utility.yul\":1949:1986   */\n      mstore\n        /* \"#utility.yul\":1884:1992   */\n      pop\n      pop\n      jump\t// out\n        /* \"#utility.yul\":1998:2097   */\n    tag_115:\n        /* \"#utility.yul\":2050:2056   */\n      0x00\n        /* \"#utility.yul\":2084:2089   */\n      dup2\n        /* \"#utility.yul\":2078:2090   */\n      mload\n        /* \"#utility.yul\":2068:2090   */\n      swap1\n      pop\n        /* \"#utility.yul\":1998:2097   */\n      swap2\n      swap1\n      pop\n      jump\t// out\n        /* \"#utility.yul\":2103:2262   */\n    tag_116:\n        /* \"#utility.yul\":2177:2188   */\n      0x00\n        /* \"#utility.yul\":2211:2217   */\n      dup3\n        /* \"#utility.yul\":2206:2209   */\n      dup3\n        /* \"#utility.yul\":2199:2218   */\n      mstore\n        /* \"#utility.yul\":2251:2255   */\n      0x20\n        /* \"#utility.yul\":2246:2249   */\n      dup3\n        /* \"#utility.yul\":2242:2256   */\n      add\n        /* \"#utility.yul\":2227:2256   */\n      swap1\n      pop\n        /* \"#utility.yul\":2103:2262   */\n      swap3\n      swap2\n      pop\n      pop\n      jump\t// out\n        /* \"#utility.yul\":2268:2514   */\n    tag_117:\n        /* \"#utility.yul\":2349:2350   */\n      0x00\n        /* \"#utility.yul\":2359:2472   */\n    tag_188:\n        /* \"#utility.yul\":2373:2379   */\n      dup4\n        /* \"#utility.yul\":2370:2371   */\n      dup2\n        /* \"#utility.yul\":2367:2380   */\n      lt\n        /* \"#utility.yul\":2359:2472   */\n      iszero\n      tag_190\n      jumpi\n        /* \"#utility.yul\":2458:2459   */\n      dup1\n        /* \"#utility.yul\":2453:2456   */\n      dup3\n        /* \"#utility.yul\":2449:2460   */\n      add\n        /* \"#utility.yul\":2443:2461   */\n      mload\n        /* \"#utility.yul\":2439:2440   */\n      dup2\n        /* \"#utility.yul\":2434:2437   */\n      dup5\n        /* \"#utility.yul\":2430:2441   */\n      add\n        /* \"#utility.yul\":2423:2462   */\n      mstore\n        /* \"#utility.yul\":2395:2397   */\n      0x20\n        /* \"#utility.yul\":2392:2393   */\n      dup2\n        /* \"#utility.yul\":2388:2398   */\n      add\n        /* \"#utility.yul\":2383:2398   */\n      swap1\n      pop\n        /* \"#utility.yul\":2359:2472   */\n      jump(tag_188)\n    tag_190:\n        /* \"#utility.yul\":2506:2507   */\n      0x00\n        /* \"#utility.yul\":2497:2503   */\n      dup5\n        /* \"#utility.yul\":2492:2495   */\n      dup5\n        /* \"#utility.yul\":2488:2504   */\n      add\n        /* \"#utility.yul\":2481:2508   */\n      mstore\n        /* \"#utility.yul\":2330:2514   */\n      pop\n        /* \"#utility.yul\":2268:2514   */\n      pop\n      pop\n      pop\n      jump\t// out\n        /* \"#utility.yul\":2520:2622   */\n    tag_118:\n        /* \"#utility.yul\":2561:2567   */\n      0x00\n        /* \"#utility.yul\":2612:2614   */\n      0x1f\n        /* \"#utility.yul\":2608:2615   */\n      not\n        /* \"#utility.yul\":2603:2605   */\n      0x1f\n        /* \"#utility.yul\":2596:2601   */\n      dup4\n        /* \"#utility.yul\":2592:2606   */\n      add\n        /* \"#utility.yul\":2588:2616   */\n      and\n        /* \"#utility.yul\":2578:2616   */\n      swap1\n      pop\n        /* \"#utility.yul\":2520:2622   */\n      swap2\n      swap1\n      pop\n      jump\t// out\n        /* \"#utility.yul\":2628:2985   */\n    tag_119:\n        /* \"#utility.yul\":2706:2709   */\n      0x00\n        /* \"#utility.yul\":2734:2773   */\n      tag_193\n        /* \"#utility.yul\":2767:2772   */\n      dup3\n        /* \"#utility.yul\":2734:2773   */\n      tag_115\n      jump\t// in\n    tag_193:\n        /* \"#utility.yul\":2789:2850   */\n      tag_194\n        /* \"#utility.yul\":2843:2849   */\n      dup2\n        /* \"#utility.yul\":2838:2841   */\n      dup6\n        /* \"#utility.yul\":2789:2850   */\n      tag_116\n      jump\t// in\n    tag_194:\n        /* \"#utility.yul\":2782:2850   */\n      swap4\n      pop\n        /* \"#utility.yul\":2859:2924   */\n      tag_195\n        /* \"#utility.yul\":2917:2923   */\n      dup2\n        /* \"#utility.yul\":2912:2915   */\n      dup6\n        /* \"#utility.yul\":2905:2909   */\n      0x20\n        /* \"#utility.yul\":2898:2903   */\n      dup7\n        /* \"#utility.yul\":2894:2910   */\n      add\n        /* \"#utility.yul\":2859:2924   */\n      tag_117\n      jump\t// in\n    tag_195:\n        /* \"#utility.yul\":2949:2978   */\n      tag_196\n        /* \"#utility.yul\":2971:2977   */\n      dup2\n        /* \"#utility.yul\":2949:2978   */\n      tag_118\n      jump\t// in\n    tag_196:\n        /* \"#utility.yul\":2944:2947   */\n      dup5\n        /* \"#utility.yul\":2940:2979   */\n      add\n        /* \"#utility.yul\":2933:2979   */\n      swap2\n      pop\n        /* \"#utility.yul\":2710:2985   */\n      pop\n        /* \"#utility.yul\":2628:2985   */\n      swap3\n      swap2\n      pop\n      pop\n      jump\t// out\n        /* \"#utility.yul\":3043:4162   */\n    tag_120:\n        /* \"#utility.yul\":3144:3147   */\n      0x00\n        /* \"#utility.yul\":3180:3184   */\n      0xa0\n        /* \"#utility.yul\":3175:3178   */\n      dup4\n        /* \"#utility.yul\":3171:3185   */\n      add\n        /* \"#utility.yul\":3265:3269   */\n      0x00\n        /* \"#utility.yul\":3258:3263   */\n      dup4\n        /* \"#utility.yul\":3254:3270   */\n      add\n        /* \"#utility.yul\":3248:3271   */\n      mload\n        /* \"#utility.yul\":3284:3347   */\n      tag_198\n        /* \"#utility.yul\":3341:3345   */\n      0x00\n        /* \"#utility.yul\":3336:3339   */\n      dup7\n        /* \"#utility.yul\":3332:3346   */\n      add\n        /* \"#utility.yul\":3318:3330   */\n      dup3\n        /* \"#utility.yul\":3284:3347   */\n      tag_113\n      jump\t// in\n    tag_198:\n        /* \"#utility.yul\":3195:3357   */\n      pop\n        /* \"#utility.yul\":3441:3445   */\n      0x20\n        /* \"#utility.yul\":3434:3439   */\n      dup4\n        /* \"#utility.yul\":3430:3446   */\n      add\n        /* \"#utility.yul\":3424:3447   */\n      mload\n        /* \"#utility.yul\":3460:3523   */\n      tag_199\n        /* \"#utility.yul\":3517:3521   */\n      0x20\n        /* \"#utility.yul\":3512:3515   */\n      dup7\n        /* \"#utility.yul\":3508:3522   */\n      add\n        /* \"#utility.yul\":3494:3506   */\n      dup3\n        /* \"#utility.yul\":3460:3523   */\n      tag_114\n      jump\t// in\n    tag_199:\n        /* \"#utility.yul\":3367:3533   */\n      pop\n        /* \"#utility.yul\":3618:3622   */\n      0x40\n        /* \"#utility.yul\":3611:3616   */\n      dup4\n        /* \"#utility.yul\":3607:3623   */\n      add\n        /* \"#utility.yul\":3601:3624   */\n      mload\n        /* \"#utility.yul\":3671:3674   */\n      dup5\n        /* \"#utility.yul\":3665:3669   */\n      dup3\n        /* \"#utility.yul\":3661:3675   */\n      sub\n        /* \"#utility.yul\":3654:3658   */\n      0x40\n        /* \"#utility.yul\":3649:3652   */\n      dup7\n        /* \"#utility.yul\":3645:3659   */\n      add\n        /* \"#utility.yul\":3638:3676   */\n      mstore\n        /* \"#utility.yul\":3697:3770   */\n      tag_200\n        /* \"#utility.yul\":3765:3769   */\n      dup3\n        /* \"#utility.yul\":3751:3763   */\n      dup3\n        /* \"#utility.yul\":3697:3770   */\n      tag_119\n      jump\t// in\n    tag_200:\n        /* \"#utility.yul\":3689:3770   */\n      swap2\n      pop\n        /* \"#utility.yul\":3543:3781   */\n      pop\n        /* \"#utility.yul\":3868:3872   */\n      0x60\n        /* \"#utility.yul\":3861:3866   */\n      dup4\n        /* \"#utility.yul\":3857:3873   */\n      add\n        /* \"#utility.yul\":3851:3874   */\n      mload\n        /* \"#utility.yul\":3887:3950   */\n      tag_201\n        /* \"#utility.yul\":3944:3948   */\n      0x60\n        /* \"#utility.yul\":3939:3942   */\n      dup7\n        /* \"#utility.yul\":3935:3949   */\n      add\n        /* \"#utility.yul\":3921:3933   */\n      dup3\n        /* \"#utility.yul\":3887:3950   */\n      tag_113\n      jump\t// in\n    tag_201:\n        /* \"#utility.yul\":3791:3960   */\n      pop\n        /* \"#utility.yul\":4043:4047   */\n      0x80\n        /* \"#utility.yul\":4036:4041   */\n      dup4\n        /* \"#utility.yul\":4032:4048   */\n      add\n        /* \"#utility.yul\":4026:4049   */\n      mload\n        /* \"#utility.yul\":4062:4125   */\n      tag_202\n        /* \"#utility.yul\":4119:4123   */\n      0x80\n        /* \"#utility.yul\":4114:4117   */\n      dup7\n        /* \"#utility.yul\":4110:4124   */\n      add\n        /* \"#utility.yul\":4096:4108   */\n      dup3\n        /* \"#utility.yul\":4062:4125   */\n      tag_113\n      jump\t// in\n    tag_202:\n        /* \"#utility.yul\":3970:4135   */\n      pop\n        /* \"#utility.yul\":4152:4156   */\n      dup1\n        /* \"#utility.yul\":4145:4156   */\n      swap2\n      pop\n        /* \"#utility.yul\":3149:4162   */\n      pop\n        /* \"#utility.yul\":3043:4162   */\n      swap3\n      swap2\n      pop\n      pop\n      jump\t// out\n        /* \"#utility.yul\":4168:4408   */\n    tag_121:\n        /* \"#utility.yul\":4279:4289   */\n      0x00\n        /* \"#utility.yul\":4314:4402   */\n      tag_204\n        /* \"#utility.yul\":4398:4401   */\n      dup4\n        /* \"#utility.yul\":4390:4396   */\n      dup4\n        /* \"#utility.yul\":4314:4402   */\n      tag_120\n      jump\t// in\n    tag_204:\n        /* \"#utility.yul\":4300:4402   */\n      swap1\n      pop\n        /* \"#utility.yul\":4168:4408   */\n      swap3\n      swap2\n      pop\n      pop\n      jump\t// out\n        /* \"#utility.yul\":4414:4548   */\n    tag_122:\n        /* \"#utility.yul\":4505:4509   */\n      0x00\n        /* \"#utility.yul\":4537:4541   */\n      0x20\n        /* \"#utility.yul\":4532:4535   */\n      dup3\n        /* \"#utility.yul\":4528:4542   */\n      add\n        /* \"#utility.yul\":4520:4542   */\n      swap1\n      pop\n        /* \"#utility.yul\":4414:4548   */\n      swap2\n      swap1\n      pop\n      jump\t// out\n        /* \"#utility.yul\":4610:5689   */\n    tag_123:\n        /* \"#utility.yul\":4771:4774   */\n      0x00\n        /* \"#utility.yul\":4800:4875   */\n      tag_207\n        /* \"#utility.yul\":4869:4874   */\n      dup3\n        /* \"#utility.yul\":4800:4875   */\n      tag_109\n      jump\t// in\n    tag_207:\n        /* \"#utility.yul\":4891:4998   */\n      tag_208\n        /* \"#utility.yul\":4991:4997   */\n      dup2\n        /* \"#utility.yul\":4986:4989   */\n      dup6\n        /* \"#utility.yul\":4891:4998   */\n      tag_110\n      jump\t// in\n    tag_208:\n        /* \"#utility.yul\":4884:4998   */\n      swap4\n      pop\n        /* \"#utility.yul\":5024:5027   */\n      dup4\n        /* \"#utility.yul\":5069:5073   */\n      0x20\n        /* \"#utility.yul\":5061:5067   */\n      dup3\n        /* \"#utility.yul\":5057:5074   */\n      mul\n        /* \"#utility.yul\":5052:5055   */\n      dup6\n        /* \"#utility.yul\":5048:5075   */\n      add\n        /* \"#utility.yul\":5099:5176   */\n      tag_209\n        /* \"#utility.yul\":5170:5175   */\n      dup6\n        /* \"#utility.yul\":5099:5176   */\n      tag_111\n      jump\t// in\n    tag_209:\n        /* \"#utility.yul\":5199:5206   */\n      dup1\n        /* \"#utility.yul\":5230:5231   */\n      0x00\n        /* \"#utility.yul\":5215:5644   */\n    tag_210:\n        /* \"#utility.yul\":5240:5246   */\n      dup6\n        /* \"#utility.yul\":5237:5238   */\n      dup2\n        /* \"#utility.yul\":5234:5247   */\n      lt\n        /* \"#utility.yul\":5215:5644   */\n      iszero\n      tag_212\n      jumpi\n        /* \"#utility.yul\":5311:5320   */\n      dup5\n        /* \"#utility.yul\":5305:5309   */\n      dup5\n        /* \"#utility.yul\":5301:5321   */\n      sub\n        /* \"#utility.yul\":5296:5299   */\n      dup10\n        /* \"#utility.yul\":5289:5322   */\n      mstore\n        /* \"#utility.yul\":5362:5368   */\n      dup2\n        /* \"#utility.yul\":5356:5369   */\n      mload\n        /* \"#utility.yul\":5390:5496   */\n      tag_213\n        /* \"#utility.yul\":5491:5495   */\n      dup6\n        /* \"#utility.yul\":5476:5489   */\n      dup3\n        /* \"#utility.yul\":5390:5496   */\n      tag_121\n      jump\t// in\n    tag_213:\n        /* \"#utility.yul\":5382:5496   */\n      swap5\n      pop\n        /* \"#utility.yul\":5519:5600   */\n      tag_214\n        /* \"#utility.yul\":5593:5599   */\n      dup4\n        /* \"#utility.yul\":5519:5600   */\n      tag_122\n      jump\t// in\n    tag_214:\n        /* \"#utility.yul\":5509:5600   */\n      swap3\n      pop\n        /* \"#utility.yul\":5629:5633   */\n      0x20\n        /* \"#utility.yul\":5624:5627   */\n      dup11\n        /* \"#utility.yul\":5620:5634   */\n      add\n        /* \"#utility.yul\":5613:5634   */\n      swap10\n      pop\n        /* \"#utility.yul\":5275:5644   */\n      pop\n        /* \"#utility.yul\":5262:5263   */\n      0x01\n        /* \"#utility.yul\":5259:5260   */\n      dup2\n        /* \"#utility.yul\":5255:5264   */\n      add\n        /* \"#utility.yul\":5250:5264   */\n      swap1\n      pop\n        /* \"#utility.yul\":5215:5644   */\n      jump(tag_210)\n    tag_212:\n        /* \"#utility.yul\":5219:5233   */\n      pop\n        /* \"#utility.yul\":5660:5664   */\n      dup3\n        /* \"#utility.yul\":5653:5664   */\n      swap8\n      pop\n        /* \"#utility.yul\":5680:5683   */\n      dup8\n        /* \"#utility.yul\":5673:5683   */\n      swap6\n      pop\n        /* \"#utility.yul\":4776:5689   */\n      pop\n      pop\n      pop\n      pop\n      pop\n        /* \"#utility.yul\":4610:5689   */\n      swap3\n      swap2\n      pop\n      pop\n      jump\t// out\n        /* \"#utility.yul\":5695:6152   */\n    tag_14:\n        /* \"#utility.yul\":5880:5884   */\n      0x00\n        /* \"#utility.yul\":5918:5920   */\n      0x20\n        /* \"#utility.yul\":5907:5916   */\n      dup3\n        /* \"#utility.yul\":5903:5921   */\n      add\n        /* \"#utility.yul\":5895:5921   */\n      swap1\n      pop\n        /* \"#utility.yul\":5967:5976   */\n      dup2\n        /* \"#utility.yul\":5961:5965   */\n      dup2\n        /* \"#utility.yul\":5957:5977   */\n      sub\n        /* \"#utility.yul\":5953:5954   */\n      0x00\n        /* \"#utility.yul\":5942:5951   */\n      dup4\n        /* \"#utility.yul\":5938:5955   */\n      add\n        /* \"#utility.yul\":5931:5978   */\n      mstore\n        /* \"#utility.yul\":5995:6145   */\n      tag_216\n        /* \"#utility.yul\":6140:6144   */\n      dup2\n        /* \"#utility.yul\":6131:6137   */\n      dup5\n        /* \"#utility.yul\":5995:6145   */\n      tag_123\n      jump\t// in\n    tag_216:\n        /* \"#utility.yul\":5987:6145   */\n      swap1\n      pop\n        /* \"#utility.yul\":5695:6152   */\n      swap3\n      swap2\n      pop\n      pop\n      jump\t// out\n        /* \"#utility.yul\":6158:6280   */\n    tag_124:\n        /* \"#utility.yul\":6231:6255   */\n      tag_218\n        /* \"#utility.yul\":6249:6254   */\n      dup2\n        /* \"#utility.yul\":6231:6255   */\n      tag_112\n      jump\t// in\n    tag_218:\n        /* \"#utility.yul\":6224:6229   */\n      dup2\n        /* \"#utility.yul\":6221:6256   */\n      eq\n        /* \"#utility.yul\":6211:6274   */\n      tag_219\n      jumpi\n        /* \"#utility.yul\":6270:6271   */\n      0x00\n        /* \"#utility.yul\":6267:6268   */\n      dup1\n        /* \"#utility.yul\":6260:6272   */\n      revert\n        /* \"#utility.yul\":6211:6274   */\n    tag_219:\n        /* \"#utility.yul\":6158:6280   */\n      pop\n      jump\t// out\n        /* \"#utility.yul\":6286:6425   */\n    tag_125:\n        /* \"#utility.yul\":6332:6337   */\n      0x00\n        /* \"#utility.yul\":6370:6376   */\n      dup2\n        /* \"#utility.yul\":6357:6377   */\n      calldataload\n        /* \"#utility.yul\":6348:6377   */\n      swap1\n      pop\n        /* \"#utility.yul\":6386:6419   */\n      tag_221\n        /* \"#utility.yul\":6413:6418   */\n      dup2\n        /* \"#utility.yul\":6386:6419   */\n      tag_124\n      jump\t// in\n    tag_221:\n        /* \"#utility.yul\":6286:6425   */\n      swap3\n      swap2\n      pop\n      pop\n      jump\t// out\n        /* \"#utility.yul\":6431:6905   */\n    tag_17:\n        /* \"#utility.yul\":6499:6505   */\n      0x00\n        /* \"#utility.yul\":6507:6513   */\n      dup1\n        /* \"#utility.yul\":6556:6558   */\n      0x40\n        /* \"#utility.yul\":6544:6553   */\n      dup4\n        /* \"#utility.yul\":6535:6542   */\n      dup6\n        /* \"#utility.yul\":6531:6554   */\n      sub\n        /* \"#utility.yul\":6527:6559   */\n      slt\n        /* \"#utility.yul\":6524:6643   */\n      iszero\n      tag_223\n      jumpi\n        /* \"#utility.yul\":6562:6641   */\n      tag_224\n      tag_103\n      jump\t// in\n    tag_224:\n        /* \"#utility.yul\":6524:6643   */\n    tag_223:\n        /* \"#utility.yul\":6682:6683   */\n      0x00\n        /* \"#utility.yul\":6707:6760   */\n      tag_225\n        /* \"#utility.yul\":6752:6759   */\n      dup6\n        /* \"#utility.yul\":6743:6749   */\n      dup3\n        /* \"#utility.yul\":6732:6741   */\n      dup7\n        /* \"#utility.yul\":6728:6750   */\n      add\n        /* \"#utility.yul\":6707:6760   */\n      tag_108\n      jump\t// in\n    tag_225:\n        /* \"#utility.yul\":6697:6760   */\n      swap3\n      pop\n        /* \"#utility.yul\":6653:6770   */\n      pop\n        /* \"#utility.yul\":6809:6811   */\n      0x20\n        /* \"#utility.yul\":6835:6888   */\n      tag_226\n        /* \"#utility.yul\":6880:6887   */\n      dup6\n        /* \"#utility.yul\":6871:6877   */\n      dup3\n        /* \"#utility.yul\":6860:6869   */\n      dup7\n        /* \"#utility.yul\":6856:6878   */\n      add\n        /* \"#utility.yul\":6835:6888   */\n      tag_125\n      jump\t// in\n    tag_226:\n        /* \"#utility.yul\":6825:6888   */\n      swap2\n      pop\n        /* \"#utility.yul\":6780:6898   */\n      pop\n        /* \"#utility.yul\":6431:6905   */\n      swap3\n      pop\n      swap3\n      swap1\n      pop\n      jump\t// out\n        /* \"#utility.yul\":6911:7028   */\n    tag_126:\n        /* \"#utility.yul\":7020:7021   */\n      0x00\n        /* \"#utility.yul\":7017:7018   */\n      dup1\n        /* \"#utility.yul\":7010:7022   */\n      revert\n        /* \"#utility.yul\":7034:7151   */\n    tag_127:\n        /* \"#utility.yul\":7143:7144   */\n      0x00\n        /* \"#utility.yul\":7140:7141   */\n      dup1\n        /* \"#utility.yul\":7133:7145   */\n      revert\n        /* \"#utility.yul\":7157:7337   */\n    tag_128:\n        /* \"#utility.yul\":7205:7282   */\n      0x4e487b7100000000000000000000000000000000000000000000000000000000\n        /* \"#utility.yul\":7202:7203   */\n      0x00\n        /* \"#utility.yul\":7195:7283   */\n      mstore\n        /* \"#utility.yul\":7302:7306   */\n      0x41\n        /* \"#utility.yul\":7299:7300   */\n      0x04\n        /* \"#utility.yul\":7292:7307   */\n      mstore\n        /* \"#utility.yul\":7326:7330   */\n      0x24\n        /* \"#utility.yul\":7323:7324   */\n      0x00\n        /* \"#utility.yul\":7316:7331   */\n      revert\n        /* \"#utility.yul\":7343:7624   */\n    tag_129:\n        /* \"#utility.yul\":7426:7453   */\n      tag_231\n        /* \"#utility.yul\":7448:7452   */\n      dup3\n        /* \"#utility.yul\":7426:7453   */\n      tag_118\n      jump\t// in\n    tag_231:\n        /* \"#utility.yul\":7418:7424   */\n      dup2\n        /* \"#utility.yul\":7414:7454   */\n      add\n        /* \"#utility.yul\":7556:7562   */\n      dup2\n        /* \"#utility.yul\":7544:7554   */\n      dup2\n        /* \"#utility.yul\":7541:7563   */\n      lt\n        /* \"#utility.yul\":7520:7538   */\n      0xffffffffffffffff\n        /* \"#utility.yul\":7508:7518   */\n      dup3\n        /* \"#utility.yul\":7505:7539   */\n      gt\n        /* \"#utility.yul\":7502:7564   */\n      or\n        /* \"#utility.yul\":7499:7587   */\n      iszero\n      tag_232\n      jumpi\n        /* \"#utility.yul\":7567:7585   */\n      tag_233\n      tag_128\n      jump\t// in\n    tag_233:\n        /* \"#utility.yul\":7499:7587   */\n    tag_232:\n        /* \"#utility.yul\":7607:7617   */\n      dup1\n        /* \"#utility.yul\":7603:7605   */\n      0x40\n        /* \"#utility.yul\":7596:7618   */\n      mstore\n        /* \"#utility.yul\":7386:7624   */\n      pop\n        /* \"#utility.yul\":7343:7624   */\n      pop\n      pop\n      jump\t// out\n        /* \"#utility.yul\":7630:7759   */\n    tag_130:\n        /* \"#utility.yul\":7664:7670   */\n      0x00\n        /* \"#utility.yul\":7691:7711   */\n      tag_235\n      tag_102\n      jump\t// in\n    tag_235:\n        /* \"#utility.yul\":7681:7711   */\n      swap1\n      pop\n        /* \"#utility.yul\":7720:7753   */\n      tag_236\n        /* \"#utility.yul\":7748:7752   */\n      dup3\n        /* \"#utility.yul\":7740:7746   */\n      dup3\n        /* \"#utility.yul\":7720:7753   */\n      tag_129\n      jump\t// in\n    tag_236:\n        /* \"#utility.yul\":7630:7759   */\n      swap2\n      swap1\n      pop\n      jump\t// out\n        /* \"#utility.yul\":7765:8073   */\n    tag_131:\n        /* \"#utility.yul\":7827:7831   */\n      0x00\n        /* \"#utility.yul\":7917:7935   */\n      0xffffffffffffffff\n        /* \"#utility.yul\":7909:7915   */\n      dup3\n        /* \"#utility.yul\":7906:7936   */\n      gt\n        /* \"#utility.yul\":7903:7959   */\n      iszero\n      tag_238\n      jumpi\n        /* \"#utility.yul\":7939:7957   */\n      tag_239\n      tag_128\n      jump\t// in\n    tag_239:\n        /* \"#utility.yul\":7903:7959   */\n    tag_238:\n        /* \"#utility.yul\":7977:8006   */\n      tag_240\n        /* \"#utility.yul\":7999:8005   */\n      dup3\n        /* \"#utility.yul\":7977:8006   */\n      tag_118\n      jump\t// in\n    tag_240:\n        /* \"#utility.yul\":7969:8006   */\n      swap1\n      pop\n        /* \"#utility.yul\":8061:8065   */\n      0x20\n        /* \"#utility.yul\":8055:8059   */\n      dup2\n        /* \"#utility.yul\":8051:8066   */\n      add\n        /* \"#utility.yul\":8043:8066   */\n      swap1\n      pop\n        /* \"#utility.yul\":7765:8073   */\n      swap2\n      swap1\n      pop\n      jump\t// out\n        /* \"#utility.yul\":8079:8225   */\n    tag_132:\n        /* \"#utility.yul\":8176:8182   */\n      dup3\n        /* \"#utility.yul\":8171:8174   */\n      dup2\n        /* \"#utility.yul\":8166:8169   */\n      dup4\n        /* \"#utility.yul\":8153:8183   */\n      calldatacopy\n        /* \"#utility.yul\":8217:8218   */\n      0x00\n        /* \"#utility.yul\":8208:8214   */\n      dup4\n        /* \"#utility.yul\":8203:8206   */\n      dup4\n        /* \"#utility.yul\":8199:8215   */\n      add\n        /* \"#utility.yul\":8192:8219   */\n      mstore\n        /* \"#utility.yul\":8079:8225   */\n      pop\n      pop\n      pop\n      jump\t// out\n        /* \"#utility.yul\":8231:8656   */\n    tag_133:\n        /* \"#utility.yul\":8309:8314   */\n      0x00\n        /* \"#utility.yul\":8334:8400   */\n      tag_243\n        /* \"#utility.yul\":8350:8399   */\n      tag_244\n        /* \"#utility.yul\":8392:8398   */\n      dup5\n        /* \"#utility.yul\":8350:8399   */\n      tag_131\n      jump\t// in\n    tag_244:\n        /* \"#utility.yul\":8334:8400   */\n      tag_130\n      jump\t// in\n    tag_243:\n        /* \"#utility.yul\":8325:8400   */\n      swap1\n      pop\n        /* \"#utility.yul\":8423:8429   */\n      dup3\n        /* \"#utility.yul\":8416:8421   */\n      dup2\n        /* \"#utility.yul\":8409:8430   */\n      mstore\n        /* \"#utility.yul\":8461:8465   */\n      0x20\n        /* \"#utility.yul\":8454:8459   */\n      dup2\n        /* \"#utility.yul\":8450:8466   */\n      add\n        /* \"#utility.yul\":8499:8502   */\n      dup5\n        /* \"#utility.yul\":8490:8496   */\n      dup5\n        /* \"#utility.yul\":8485:8488   */\n      dup5\n        /* \"#utility.yul\":8481:8497   */\n      add\n        /* \"#utility.yul\":8478:8503   */\n      gt\n        /* \"#utility.yul\":8475:8587   */\n      iszero\n      tag_245\n      jumpi\n        /* \"#utility.yul\":8506:8585   */\n      tag_246\n      tag_127\n      jump\t// in\n    tag_246:\n        /* \"#utility.yul\":8475:8587   */\n    tag_245:\n        /* \"#utility.yul\":8596:8650   */\n      tag_247\n        /* \"#utility.yul\":8643:8649   */\n      dup5\n        /* \"#utility.yul\":8638:8641   */\n      dup3\n        /* \"#utility.yul\":8633:8636   */\n      dup6\n        /* \"#utility.yul\":8596:8650   */\n      tag_132\n      jump\t// in\n    tag_247:\n        /* \"#utility.yul\":8315:8656   */\n      pop\n        /* \"#utility.yul\":8231:8656   */\n      swap4\n      swap3\n      pop\n      pop\n      pop\n      jump\t// out\n        /* \"#utility.yul\":8676:9016   */\n    tag_134:\n        /* \"#utility.yul\":8732:8737   */\n      0x00\n        /* \"#utility.yul\":8781:8784   */\n      dup3\n        /* \"#utility.yul\":8774:8778   */\n      0x1f\n        /* \"#utility.yul\":8766:8772   */\n      dup4\n        /* \"#utility.yul\":8762:8779   */\n      add\n        /* \"#utility.yul\":8758:8785   */\n      slt\n        /* \"#utility.yul\":8748:8870   */\n      tag_249\n      jumpi\n        /* \"#utility.yul\":8789:8868   */\n      tag_250\n      tag_126\n      jump\t// in\n    tag_250:\n        /* \"#utility.yul\":8748:8870   */\n    tag_249:\n        /* \"#utility.yul\":8906:8912   */\n      dup2\n        /* \"#utility.yul\":8893:8913   */\n      calldataload\n        /* \"#utility.yul\":8931:9010   */\n      tag_251\n        /* \"#utility.yul\":9006:9009   */\n      dup5\n        /* \"#utility.yul\":8998:9004   */\n      dup3\n        /* \"#utility.yul\":8991:8995   */\n      0x20\n        /* \"#utility.yul\":8983:8989   */\n      dup7\n        /* \"#utility.yul\":8979:8996   */\n      add\n        /* \"#utility.yul\":8931:9010   */\n      tag_133\n      jump\t// in\n    tag_251:\n        /* \"#utility.yul\":8922:9010   */\n      swap2\n      pop\n        /* \"#utility.yul\":8738:9016   */\n      pop\n        /* \"#utility.yul\":8676:9016   */\n      swap3\n      swap2\n      pop\n      pop\n      jump\t// out\n        /* \"#utility.yul\":9022:9531   */\n    tag_24:\n        /* \"#utility.yul\":9091:9097   */\n      0x00\n        /* \"#utility.yul\":9140:9142   */\n      0x20\n        /* \"#utility.yul\":9128:9137   */\n      dup3\n        /* \"#utility.yul\":9119:9126   */\n      dup5\n        /* \"#utility.yul\":9115:9138   */\n      sub\n        /* \"#utility.yul\":9111:9143   */\n      slt\n        /* \"#utility.yul\":9108:9227   */\n      iszero\n      tag_253\n      jumpi\n        /* \"#utility.yul\":9146:9225   */\n      tag_254\n      tag_103\n      jump\t// in\n    tag_254:\n        /* \"#utility.yul\":9108:9227   */\n    tag_253:\n        /* \"#utility.yul\":9294:9295   */\n      0x00\n        /* \"#utility.yul\":9283:9292   */\n      dup3\n        /* \"#utility.yul\":9279:9296   */\n      add\n        /* \"#utility.yul\":9266:9297   */\n      calldataload\n        /* \"#utility.yul\":9324:9342   */\n      0xffffffffffffffff\n        /* \"#utility.yul\":9316:9322   */\n      dup2\n        /* \"#utility.yul\":9313:9343   */\n      gt\n        /* \"#utility.yul\":9310:9427   */\n      iszero\n      tag_255\n      jumpi\n        /* \"#utility.yul\":9346:9425   */\n      tag_256\n      tag_104\n      jump\t// in\n    tag_256:\n        /* \"#utility.yul\":9310:9427   */\n    tag_255:\n        /* \"#utility.yul\":9451:9514   */\n      tag_257\n        /* \"#utility.yul\":9506:9513   */\n      dup5\n        /* \"#utility.yul\":9497:9503   */\n      dup3\n        /* \"#utility.yul\":9486:9495   */\n      dup6\n        /* \"#utility.yul\":9482:9504   */\n      add\n        /* \"#utility.yul\":9451:9514   */\n      tag_134\n      jump\t// in\n    tag_257:\n        /* \"#utility.yul\":9441:9514   */\n      swap2\n      pop\n        /* \"#utility.yul\":9237:9524   */\n      pop\n        /* \"#utility.yul\":9022:9531   */\n      swap3\n      swap2\n      pop\n      pop\n      jump\t// out\n        /* \"#utility.yul\":9537:9655   */\n    tag_135:\n        /* \"#utility.yul\":9624:9648   */\n      tag_259\n        /* \"#utility.yul\":9642:9647   */\n      dup2\n        /* \"#utility.yul\":9624:9648   */\n      tag_106\n      jump\t// in\n    tag_259:\n        /* \"#utility.yul\":9619:9622   */\n      dup3\n        /* \"#utility.yul\":9612:9649   */\n      mstore\n        /* \"#utility.yul\":9537:9655   */\n      pop\n      pop\n      jump\t// out\n        /* \"#utility.yul\":9661:9883   */\n    tag_29:\n        /* \"#utility.yul\":9754:9758   */\n      0x00\n        /* \"#utility.yul\":9792:9794   */\n      0x20\n        /* \"#utility.yul\":9781:9790   */\n      dup3\n        /* \"#utility.yul\":9777:9795   */\n      add\n        /* \"#utility.yul\":9769:9795   */\n      swap1\n      pop\n        /* \"#utility.yul\":9805:9876   */\n      tag_261\n        /* \"#utility.yul\":9873:9874   */\n      0x00\n        /* \"#utility.yul\":9862:9871   */\n      dup4\n        /* \"#utility.yul\":9858:9875   */\n      add\n        /* \"#utility.yul\":9849:9855   */\n      dup5\n        /* \"#utility.yul\":9805:9876   */\n      tag_135\n      jump\t// in\n    tag_261:\n        /* \"#utility.yul\":9661:9883   */\n      swap3\n      swap2\n      pop\n      pop\n      jump\t// out\n        /* \"#utility.yul\":9889:10218   */\n    tag_32:\n        /* \"#utility.yul\":9948:9954   */\n      0x00\n        /* \"#utility.yul\":9997:9999   */\n      0x20\n        /* \"#utility.yul\":9985:9994   */\n      dup3\n        /* \"#utility.yul\":9976:9983   */\n      dup5\n        /* \"#utility.yul\":9972:9995   */\n      sub\n        /* \"#utility.yul\":9968:10000   */\n      slt\n        /* \"#utility.yul\":9965:10084   */\n      iszero\n      tag_263\n      jumpi\n        /* \"#utility.yul\":10003:10082   */\n      tag_264\n      tag_103\n      jump\t// in\n    tag_264:\n        /* \"#utility.yul\":9965:10084   */\n    tag_263:\n        /* \"#utility.yul\":10123:10124   */\n      0x00\n        /* \"#utility.yul\":10148:10201   */\n      tag_265\n        /* \"#utility.yul\":10193:10200   */\n      dup5\n        /* \"#utility.yul\":10184:10190   */\n      dup3\n        /* \"#utility.yul\":10173:10182   */\n      dup6\n        /* \"#utility.yul\":10169:10191   */\n      add\n        /* \"#utility.yul\":10148:10201   */\n      tag_125\n      jump\t// in\n    tag_265:\n        /* \"#utility.yul\":10138:10201   */\n      swap2\n      pop\n        /* \"#utility.yul\":10094:10211   */\n      pop\n        /* \"#utility.yul\":9889:10218   */\n      swap3\n      swap2\n      pop\n      pop\n      jump\t// out\n        /* \"#utility.yul\":10276:11405   */\n    tag_136:\n        /* \"#utility.yul\":10387:10390   */\n      0x00\n        /* \"#utility.yul\":10423:10427   */\n      0xa0\n        /* \"#utility.yul\":10418:10421   */\n      dup4\n        /* \"#utility.yul\":10414:10428   */\n      add\n        /* \"#utility.yul\":10508:10512   */\n      0x00\n        /* \"#utility.yul\":10501:10506   */\n      dup4\n        /* \"#utility.yul\":10497:10513   */\n      add\n        /* \"#utility.yul\":10491:10514   */\n      mload\n        /* \"#utility.yul\":10527:10590   */\n      tag_267\n        /* \"#utility.yul\":10584:10588   */\n      0x00\n        /* \"#utility.yul\":10579:10582   */\n      dup7\n        /* \"#utility.yul\":10575:10589   */\n      add\n        /* \"#utility.yul\":10561:10573   */\n      dup3\n        /* \"#utility.yul\":10527:10590   */\n      tag_113\n      jump\t// in\n    tag_267:\n        /* \"#utility.yul\":10438:10600   */\n      pop\n        /* \"#utility.yul\":10684:10688   */\n      0x20\n        /* \"#utility.yul\":10677:10682   */\n      dup4\n        /* \"#utility.yul\":10673:10689   */\n      add\n        /* \"#utility.yul\":10667:10690   */\n      mload\n        /* \"#utility.yul\":10703:10766   */\n      tag_268\n        /* \"#utility.yul\":10760:10764   */\n      0x20\n        /* \"#utility.yul\":10755:10758   */\n      dup7\n        /* \"#utility.yul\":10751:10765   */\n      add\n        /* \"#utility.yul\":10737:10749   */\n      dup3\n        /* \"#utility.yul\":10703:10766   */\n      tag_114\n      jump\t// in\n    tag_268:\n        /* \"#utility.yul\":10610:10776   */\n      pop\n        /* \"#utility.yul\":10861:10865   */\n      0x40\n        /* \"#utility.yul\":10854:10859   */\n      dup4\n        /* \"#utility.yul\":10850:10866   */\n      add\n        /* \"#utility.yul\":10844:10867   */\n      mload\n        /* \"#utility.yul\":10914:10917   */\n      dup5\n        /* \"#utility.yul\":10908:10912   */\n      dup3\n        /* \"#utility.yul\":10904:10918   */\n      sub\n        /* \"#utility.yul\":10897:10901   */\n      0x40\n        /* \"#utility.yul\":10892:10895   */\n      dup7\n        /* \"#utility.yul\":10888:10902   */\n      add\n        /* \"#utility.yul\":10881:10919   */\n      mstore\n        /* \"#utility.yul\":10940:11013   */\n      tag_269\n        /* \"#utility.yul\":11008:11012   */\n      dup3\n        /* \"#utility.yul\":10994:11006   */\n      dup3\n        /* \"#utility.yul\":10940:11013   */\n      tag_119\n      jump\t// in\n    tag_269:\n        /* \"#utility.yul\":10932:11013   */\n      swap2\n      pop\n        /* \"#utility.yul\":10786:11024   */\n      pop\n        /* \"#utility.yul\":11111:11115   */\n      0x60\n        /* \"#utility.yul\":11104:11109   */\n      dup4\n        /* \"#utility.yul\":11100:11116   */\n      add\n        /* \"#utility.yul\":11094:11117   */\n      mload\n        /* \"#utility.yul\":11130:11193   */\n      tag_270\n        /* \"#utility.yul\":11187:11191   */\n      0x60\n        /* \"#utility.yul\":11182:11185   */\n      dup7\n        /* \"#utility.yul\":11178:11192   */\n      add\n        /* \"#utility.yul\":11164:11176   */\n      dup3\n        /* \"#utility.yul\":11130:11193   */\n      tag_113\n      jump\t// in\n    tag_270:\n        /* \"#utility.yul\":11034:11203   */\n      pop\n        /* \"#utility.yul\":11286:11290   */\n      0x80\n        /* \"#utility.yul\":11279:11284   */\n      dup4\n        /* \"#utility.yul\":11275:11291   */\n      add\n        /* \"#utility.yul\":11269:11292   */\n      mload\n        /* \"#utility.yul\":11305:11368   */\n      tag_271\n        /* \"#utility.yul\":11362:11366   */\n      0x80\n        /* \"#utility.yul\":11357:11360   */\n      dup7\n        /* \"#utility.yul\":11353:11367   */\n      add\n        /* \"#utility.yul\":11339:11351   */\n      dup3\n        /* \"#utility.yul\":11305:11368   */\n      tag_113\n      jump\t// in\n    tag_271:\n        /* \"#utility.yul\":11213:11378   */\n      pop\n        /* \"#utility.yul\":11395:11399   */\n      dup1\n        /* \"#utility.yul\":11388:11399   */\n      swap2\n      pop\n        /* \"#utility.yul\":10392:11405   */\n      pop\n        /* \"#utility.yul\":10276:11405   */\n      swap3\n      swap2\n      pop\n      pop\n      jump\t// out\n        /* \"#utility.yul\":11411:11768   */\n    tag_35:\n        /* \"#utility.yul\":11546:11550   */\n      0x00\n        /* \"#utility.yul\":11584:11586   */\n      0x20\n        /* \"#utility.yul\":11573:11582   */\n      dup3\n        /* \"#utility.yul\":11569:11587   */\n      add\n        /* \"#utility.yul\":11561:11587   */\n      swap1\n      pop\n        /* \"#utility.yul\":11633:11642   */\n      dup2\n        /* \"#utility.yul\":11627:11631   */\n      dup2\n        /* \"#utility.yul\":11623:11643   */\n      sub\n        /* \"#utility.yul\":11619:11620   */\n      0x00\n        /* \"#utility.yul\":11608:11617   */\n      dup4\n        /* \"#utility.yul\":11604:11621   */\n      add\n        /* \"#utility.yul\":11597:11644   */\n      mstore\n        /* \"#utility.yul\":11661:11761   */\n      tag_273\n        /* \"#utility.yul\":11756:11760   */\n      dup2\n        /* \"#utility.yul\":11747:11753   */\n      dup5\n        /* \"#utility.yul\":11661:11761   */\n      tag_136\n      jump\t// in\n    tag_273:\n        /* \"#utility.yul\":11653:11761   */\n      swap1\n      pop\n        /* \"#utility.yul\":11411:11768   */\n      swap3\n      swap2\n      pop\n      pop\n      jump\t// out\n        /* \"#utility.yul\":11774:11954   */\n    tag_137:\n        /* \"#utility.yul\":11822:11899   */\n      0x4e487b7100000000000000000000000000000000000000000000000000000000\n        /* \"#utility.yul\":11819:11820   */\n      0x00\n        /* \"#utility.yul\":11812:11900   */\n      mstore\n        /* \"#utility.yul\":11919:11923   */\n      0x22\n        /* \"#utility.yul\":11916:11917   */\n      0x04\n        /* \"#utility.yul\":11909:11924   */\n      mstore\n        /* \"#utility.yul\":11943:11947   */\n      0x24\n        /* \"#utility.yul\":11940:11941   */\n      0x00\n        /* \"#utility.yul\":11933:11948   */\n      revert\n        /* \"#utility.yul\":11960:12280   */\n    tag_41:\n        /* \"#utility.yul\":12004:12010   */\n      0x00\n        /* \"#utility.yul\":12041:12042   */\n      0x02\n        /* \"#utility.yul\":12035:12039   */\n      dup3\n        /* \"#utility.yul\":12031:12043   */\n      div\n        /* \"#utility.yul\":12021:12043   */\n      swap1\n      pop\n        /* \"#utility.yul\":12088:12089   */\n      0x01\n        /* \"#utility.yul\":12082:12086   */\n      dup3\n        /* \"#utility.yul\":12078:12090   */\n      and\n        /* \"#utility.yul\":12109:12127   */\n      dup1\n        /* \"#utility.yul\":12099:12180   */\n      tag_276\n      jumpi\n        /* \"#utility.yul\":12165:12169   */\n      0x7f\n        /* \"#utility.yul\":12157:12163   */\n      dup3\n        /* \"#utility.yul\":12153:12170   */\n      and\n        /* \"#utility.yul\":12143:12170   */\n      swap2\n      pop\n        /* \"#utility.yul\":12099:12180   */\n    tag_276:\n        /* \"#utility.yul\":12227:12229   */\n      0x20\n        /* \"#utility.yul\":12219:12225   */\n      dup3\n        /* \"#utility.yul\":12216:12230   */\n      lt\n        /* \"#utility.yul\":12196:12214   */\n      dup2\n        /* \"#utility.yul\":12193:12231   */\n      sub\n        /* \"#utility.yul\":12190:12274   */\n      tag_277\n      jumpi\n        /* \"#utility.yul\":12246:12264   */\n      tag_278\n      tag_137\n      jump\t// in\n    tag_278:\n        /* \"#utility.yul\":12190:12274   */\n    tag_277:\n        /* \"#utility.yul\":12011:12280   */\n      pop\n        /* \"#utility.yul\":11960:12280   */\n      swap2\n      swap1\n      pop\n      jump\t// out\n        /* \"#utility.yul\":12286:12466   */\n    tag_49:\n        /* \"#utility.yul\":12334:12411   */\n      0x4e487b7100000000000000000000000000000000000000000000000000000000\n        /* \"#utility.yul\":12331:12332   */\n      0x00\n        /* \"#utility.yul\":12324:12412   */\n      mstore\n        /* \"#utility.yul\":12431:12435   */\n      0x32\n        /* \"#utility.yul\":12428:12429   */\n      0x04\n        /* \"#utility.yul\":12421:12436   */\n      mstore\n        /* \"#utility.yul\":12455:12459   */\n      0x24\n        /* \"#utility.yul\":12452:12453   */\n      0x00\n        /* \"#utility.yul\":12445:12460   */\n      revert\n        /* \"#utility.yul\":12472:12641   */\n    tag_138:\n        /* \"#utility.yul\":12556:12567   */\n      0x00\n        /* \"#utility.yul\":12590:12596   */\n      dup3\n        /* \"#utility.yul\":12585:12588   */\n      dup3\n        /* \"#utility.yul\":12578:12597   */\n      mstore\n        /* \"#utility.yul\":12630:12634   */\n      0x20\n        /* \"#utility.yul\":12625:12628   */\n      dup3\n        /* \"#utility.yul\":12621:12635   */\n      add\n        /* \"#utility.yul\":12606:12635   */\n      swap1\n      pop\n        /* \"#utility.yul\":12472:12641   */\n      swap3\n      swap2\n      pop\n      pop\n      jump\t// out\n        /* \"#utility.yul\":12647:12817   */\n    tag_139:\n        /* \"#utility.yul\":12787:12809   */\n      0x545745455420444f4553204e4f54204558495354000000000000000000000000\n        /* \"#utility.yul\":12783:12784   */\n      0x00\n        /* \"#utility.yul\":12775:12781   */\n      dup3\n        /* \"#utility.yul\":12771:12785   */\n      add\n        /* \"#utility.yul\":12764:12810   */\n      mstore\n        /* \"#utility.yul\":12647:12817   */\n      pop\n      jump\t// out\n        /* \"#utility.yul\":12823:13189   */\n    tag_140:\n        /* \"#utility.yul\":12965:12968   */\n      0x00\n        /* \"#utility.yul\":12986:13053   */\n      tag_283\n        /* \"#utility.yul\":13050:13052   */\n      0x14\n        /* \"#utility.yul\":13045:13048   */\n      dup4\n        /* \"#utility.yul\":12986:13053   */\n      tag_138\n      jump\t// in\n    tag_283:\n        /* \"#utility.yul\":12979:13053   */\n      swap2\n      pop\n        /* \"#utility.yul\":13062:13155   */\n      tag_284\n        /* \"#utility.yul\":13151:13154   */\n      dup3\n        /* \"#utility.yul\":13062:13155   */\n      tag_139\n      jump\t// in\n    tag_284:\n        /* \"#utility.yul\":13180:13182   */\n      0x20\n        /* \"#utility.yul\":13175:13178   */\n      dup3\n        /* \"#utility.yul\":13171:13183   */\n      add\n        /* \"#utility.yul\":13164:13183   */\n      swap1\n      pop\n        /* \"#utility.yul\":12823:13189   */\n      swap2\n      swap1\n      pop\n      jump\t// out\n        /* \"#utility.yul\":13195:13614   */\n    tag_53:\n        /* \"#utility.yul\":13361:13365   */\n      0x00\n        /* \"#utility.yul\":13399:13401   */\n      0x20\n        /* \"#utility.yul\":13388:13397   */\n      dup3\n        /* \"#utility.yul\":13384:13402   */\n      add\n        /* \"#utility.yul\":13376:13402   */\n      swap1\n      pop\n        /* \"#utility.yul\":13448:13457   */\n      dup2\n        /* \"#utility.yul\":13442:13446   */\n      dup2\n        /* \"#utility.yul\":13438:13458   */\n      sub\n        /* \"#utility.yul\":13434:13435   */\n      0x00\n        /* \"#utility.yul\":13423:13432   */\n      dup4\n        /* \"#utility.yul\":13419:13436   */\n      add\n        /* \"#utility.yul\":13412:13459   */\n      mstore\n        /* \"#utility.yul\":13476:13607   */\n      tag_286\n        /* \"#utility.yul\":13602:13606   */\n      dup2\n        /* \"#utility.yul\":13476:13607   */\n      tag_140\n      jump\t// in\n    tag_286:\n        /* \"#utility.yul\":13468:13607   */\n      swap1\n      pop\n        /* \"#utility.yul\":13195:13614   */\n      swap2\n      swap1\n      pop\n      jump\t// out\n        /* \"#utility.yul\":13620:13788   */\n    tag_141:\n        /* \"#utility.yul\":13760:13780   */\n      0x545745455420484153204e4f204c494b45530000000000000000000000000000\n        /* \"#utility.yul\":13756:13757   */\n      0x00\n        /* \"#utility.yul\":13748:13754   */\n      dup3\n        /* \"#utility.yul\":13744:13758   */\n      add\n        /* \"#utility.yul\":13737:13781   */\n      mstore\n        /* \"#utility.yul\":13620:13788   */\n      pop\n      jump\t// out\n        /* \"#utility.yul\":13794:14160   */\n    tag_142:\n        /* \"#utility.yul\":13936:13939   */\n      0x00\n        /* \"#utility.yul\":13957:14024   */\n      tag_289\n        /* \"#utility.yul\":14021:14023   */\n      0x12\n        /* \"#utility.yul\":14016:14019   */\n      dup4\n        /* \"#utility.yul\":13957:14024   */\n      tag_138\n      jump\t// in\n    tag_289:\n        /* \"#utility.yul\":13950:14024   */\n      swap2\n      pop\n        /* \"#utility.yul\":14033:14126   */\n      tag_290\n        /* \"#utility.yul\":14122:14125   */\n      dup3\n        /* \"#utility.yul\":14033:14126   */\n      tag_141\n      jump\t// in\n    tag_290:\n        /* \"#utility.yul\":14151:14153   */\n      0x20\n        /* \"#utility.yul\":14146:14149   */\n      dup3\n        /* \"#utility.yul\":14142:14154   */\n      add\n        /* \"#utility.yul\":14135:14154   */\n      swap1\n      pop\n        /* \"#utility.yul\":13794:14160   */\n      swap2\n      swap1\n      pop\n      jump\t// out\n        /* \"#utility.yul\":14166:14585   */\n    tag_59:\n        /* \"#utility.yul\":14332:14336   */\n      0x00\n        /* \"#utility.yul\":14370:14372   */\n      0x20\n        /* \"#utility.yul\":14359:14368   */\n      dup3\n        /* \"#utility.yul\":14355:14373   */\n      add\n        /* \"#utility.yul\":14347:14373   */\n      swap1\n      pop\n        /* \"#utility.yul\":14419:14428   */\n      dup2\n        /* \"#utility.yul\":14413:14417   */\n      dup2\n        /* \"#utility.yul\":14409:14429   */\n      sub\n        /* \"#utility.yul\":14405:14406   */\n      0x00\n        /* \"#utility.yul\":14394:14403   */\n      dup4\n        /* \"#utility.yul\":14390:14407   */\n      add\n        /* \"#utility.yul\":14383:14430   */\n      mstore\n        /* \"#utility.yul\":14447:14578   */\n      tag_292\n        /* \"#utility.yul\":14573:14577   */\n      dup2\n        /* \"#utility.yul\":14447:14578   */\n      tag_142\n      jump\t// in\n    tag_292:\n        /* \"#utility.yul\":14439:14578   */\n      swap1\n      pop\n        /* \"#utility.yul\":14166:14585   */\n      swap2\n      swap1\n      pop\n      jump\t// out\n        /* \"#utility.yul\":14591:14771   */\n    tag_143:\n        /* \"#utility.yul\":14639:14716   */\n      0x4e487b7100000000000000000000000000000000000000000000000000000000\n        /* \"#utility.yul\":14636:14637   */\n      0x00\n        /* \"#utility.yul\":14629:14717   */\n      mstore\n        /* \"#utility.yul\":14736:14740   */\n      0x11\n        /* \"#utility.yul\":14733:14734   */\n      0x04\n        /* \"#utility.yul\":14726:14741   */\n      mstore\n        /* \"#utility.yul\":14760:14764   */\n      0x24\n        /* \"#utility.yul\":14757:14758   */\n      0x00\n        /* \"#utility.yul\":14750:14765   */\n      revert\n        /* \"#utility.yul\":14777:14948   */\n    tag_64:\n        /* \"#utility.yul\":14816:14819   */\n      0x00\n        /* \"#utility.yul\":14839:14863   */\n      tag_295\n        /* \"#utility.yul\":14857:14862   */\n      dup3\n        /* \"#utility.yul\":14839:14863   */\n      tag_112\n      jump\t// in\n    tag_295:\n        /* \"#utility.yul\":14830:14863   */\n      swap2\n      pop\n        /* \"#utility.yul\":14885:14889   */\n      0x00\n        /* \"#utility.yul\":14878:14883   */\n      dup3\n        /* \"#utility.yul\":14875:14890   */\n      sub\n        /* \"#utility.yul\":14872:14913   */\n      tag_296\n      jumpi\n        /* \"#utility.yul\":14893:14911   */\n      tag_297\n      tag_143\n      jump\t// in\n    tag_297:\n        /* \"#utility.yul\":14872:14913   */\n    tag_296:\n        /* \"#utility.yul\":14940:14941   */\n      0x01\n        /* \"#utility.yul\":14933:14938   */\n      dup3\n        /* \"#utility.yul\":14929:14942   */\n      sub\n        /* \"#utility.yul\":14922:14942   */\n      swap1\n      pop\n        /* \"#utility.yul\":14777:14948   */\n      swap2\n      swap1\n      pop\n      jump\t// out\n        /* \"#utility.yul\":14954:15072   */\n    tag_144:\n        /* \"#utility.yul\":15041:15065   */\n      tag_299\n        /* \"#utility.yul\":15059:15064   */\n      dup2\n        /* \"#utility.yul\":15041:15065   */\n      tag_112\n      jump\t// in\n    tag_299:\n        /* \"#utility.yul\":15036:15039   */\n      dup3\n        /* \"#utility.yul\":15029:15066   */\n      mstore\n        /* \"#utility.yul\":14954:15072   */\n      pop\n      pop\n      jump\t// out\n        /* \"#utility.yul\":15078:15631   */\n    tag_69:\n        /* \"#utility.yul\":15255:15259   */\n      0x00\n        /* \"#utility.yul\":15293:15296   */\n      0x80\n        /* \"#utility.yul\":15282:15291   */\n      dup3\n        /* \"#utility.yul\":15278:15297   */\n      add\n        /* \"#utility.yul\":15270:15297   */\n      swap1\n      pop\n        /* \"#utility.yul\":15307:15378   */\n      tag_301\n        /* \"#utility.yul\":15375:15376   */\n      0x00\n        /* \"#utility.yul\":15364:15373   */\n      dup4\n        /* \"#utility.yul\":15360:15377   */\n      add\n        /* \"#utility.yul\":15351:15357   */\n      dup8\n        /* \"#utility.yul\":15307:15378   */\n      tag_135\n      jump\t// in\n    tag_301:\n        /* \"#utility.yul\":15388:15460   */\n      tag_302\n        /* \"#utility.yul\":15456:15458   */\n      0x20\n        /* \"#utility.yul\":15445:15454   */\n      dup4\n        /* \"#utility.yul\":15441:15459   */\n      add\n        /* \"#utility.yul\":15432:15438   */\n      dup7\n        /* \"#utility.yul\":15388:15460   */\n      tag_135\n      jump\t// in\n    tag_302:\n        /* \"#utility.yul\":15470:15542   */\n      tag_303\n        /* \"#utility.yul\":15538:15540   */\n      0x40\n        /* \"#utility.yul\":15527:15536   */\n      dup4\n        /* \"#utility.yul\":15523:15541   */\n      add\n        /* \"#utility.yul\":15514:15520   */\n      dup6\n        /* \"#utility.yul\":15470:15542   */\n      tag_144\n      jump\t// in\n    tag_303:\n        /* \"#utility.yul\":15552:15624   */\n      tag_304\n        /* \"#utility.yul\":15620:15622   */\n      0x60\n        /* \"#utility.yul\":15609:15618   */\n      dup4\n        /* \"#utility.yul\":15605:15623   */\n      add\n        /* \"#utility.yul\":15596:15602   */\n      dup5\n        /* \"#utility.yul\":15552:15624   */\n      tag_144\n      jump\t// in\n    tag_304:\n        /* \"#utility.yul\":15078:15631   */\n      swap6\n      swap5\n      pop\n      pop\n      pop\n      pop\n      pop\n      jump\t// out\n        /* \"#utility.yul\":15637:15870   */\n    tag_80:\n        /* \"#utility.yul\":15676:15679   */\n      0x00\n        /* \"#utility.yul\":15699:15723   */\n      tag_306\n        /* \"#utility.yul\":15717:15722   */\n      dup3\n        /* \"#utility.yul\":15699:15723   */\n      tag_112\n      jump\t// in\n    tag_306:\n        /* \"#utility.yul\":15690:15723   */\n      swap2\n      pop\n        /* \"#utility.yul\":15745:15811   */\n      0xffffffffffffffffffffffffffffffffffffffffffffffffffffffffffffffff\n        /* \"#utility.yul\":15738:15743   */\n      dup3\n        /* \"#utility.yul\":15735:15812   */\n      sub\n        /* \"#utility.yul\":15732:15835   */\n      tag_307\n      jumpi\n        /* \"#utility.yul\":15815:15833   */\n      tag_308\n      tag_143\n      jump\t// in\n    tag_308:\n        /* \"#utility.yul\":15732:15835   */\n    tag_307:\n        /* \"#utility.yul\":15862:15863   */\n      0x01\n        /* \"#utility.yul\":15855:15860   */\n      dup3\n        /* \"#utility.yul\":15851:15864   */\n      add\n        /* \"#utility.yul\":15844:15864   */\n      swap1\n      pop\n        /* \"#utility.yul\":15637:15870   */\n      swap2\n      swap1\n      pop\n      jump\t// out\n        /* \"#utility.yul\":15876:16017   */\n    tag_145:\n        /* \"#utility.yul\":15925:15929   */\n      0x00\n        /* \"#utility.yul\":15948:15951   */\n      dup2\n        /* \"#utility.yul\":15940:15951   */\n      swap1\n      pop\n        /* \"#utility.yul\":15971:15974   */\n      dup2\n        /* \"#utility.yul\":15968:15969   */\n      0x00\n        /* \"#utility.yul\":15961:15975   */\n      mstore\n        /* \"#utility.yul\":16005:16009   */\n      0x20\n        /* \"#utility.yul\":16002:16003   */\n      0x00\n        /* \"#utility.yul\":15992:16010   */\n      keccak256\n        /* \"#utility.yul\":15984:16010   */\n      swap1\n      pop\n        /* \"#utility.yul\":15876:16017   */\n      swap2\n      swap1\n      pop\n      jump\t// out\n        /* \"#utility.yul\":16023:16116   */\n    tag_146:\n        /* \"#utility.yul\":16060:16066   */\n      0x00\n        /* \"#utility.yul\":16107:16109   */\n      0x20\n        /* \"#utility.yul\":16102:16104   */\n      0x1f\n        /* \"#utility.yul\":16095:16100   */\n      dup4\n        /* \"#utility.yul\":16091:16105   */\n      add\n        /* \"#utility.yul\":16087:16110   */\n      div\n        /* \"#utility.yul\":16077:16110   */\n      swap1\n      pop\n        /* \"#utility.yul\":16023:16116   */\n      swap2\n      swap1\n      pop\n      jump\t// out\n        /* \"#utility.yul\":16122:16229   */\n    tag_147:\n        /* \"#utility.yul\":16166:16174   */\n      0x00\n        /* \"#utility.yul\":16216:16221   */\n      dup3\n        /* \"#utility.yul\":16210:16214   */\n      dup3\n        /* \"#utility.yul\":16206:16222   */\n      shl\n        /* \"#utility.yul\":16185:16222   */\n      swap1\n      pop\n        /* \"#utility.yul\":16122:16229   */\n      swap3\n      swap2\n      pop\n      pop\n      jump\t// out\n        /* \"#utility.yul\":16235:16628   */\n    tag_148:\n        /* \"#utility.yul\":16304:16310   */\n      0x00\n        /* \"#utility.yul\":16354:16355   */\n      0x08\n        /* \"#utility.yul\":16342:16352   */\n      dup4\n        /* \"#utility.yul\":16338:16356   */\n      mul\n        /* \"#utility.yul\":16377:16474   */\n      tag_313\n        /* \"#utility.yul\":16407:16473   */\n      0xffffffffffffffffffffffffffffffffffffffffffffffffffffffffffffffff\n        /* \"#utility.yul\":16396:16405   */\n      dup3\n        /* \"#utility.yul\":16377:16474   */\n      tag_147\n      jump\t// in\n    tag_313:\n        /* \"#utility.yul\":16495:16534   */\n      tag_314\n        /* \"#utility.yul\":16525:16533   */\n      dup7\n        /* \"#utility.yul\":16514:16523   */\n      dup4\n        /* \"#utility.yul\":16495:16534   */\n      tag_147\n      jump\t// in\n    tag_314:\n        /* \"#utility.yul\":16483:16534   */\n      swap6\n      pop\n        /* \"#utility.yul\":16567:16571   */\n      dup1\n        /* \"#utility.yul\":16563:16572   */\n      not\n        /* \"#utility.yul\":16556:16561   */\n      dup5\n        /* \"#utility.yul\":16552:16573   */\n      and\n        /* \"#utility.yul\":16543:16573   */\n      swap4\n      pop\n        /* \"#utility.yul\":16616:16620   */\n      dup1\n        /* \"#utility.yul\":16606:16614   */\n      dup7\n        /* \"#utility.yul\":16602:16621   */\n      and\n        /* \"#utility.yul\":16595:16600   */\n      dup5\n        /* \"#utility.yul\":16592:16622   */\n      or\n        /* \"#utility.yul\":16582:16622   */\n      swap3\n      pop\n        /* \"#utility.yul\":16311:16628   */\n      pop\n      pop\n        /* \"#utility.yul\":16235:16628   */\n      swap4\n      swap3\n      pop\n      pop\n      pop\n      jump\t// out\n        /* \"#utility.yul\":16634:16694   */\n    tag_149:\n        /* \"#utility.yul\":16662:16665   */\n      0x00\n        /* \"#utility.yul\":16683:16688   */\n      dup2\n        /* \"#utility.yul\":16676:16688   */\n      swap1\n      pop\n        /* \"#utility.yul\":16634:16694   */\n      swap2\n      swap1\n      pop\n      jump\t// out\n        /* \"#utility.yul\":16700:16842   */\n    tag_150:\n        /* \"#utility.yul\":16750:16759   */\n      0x00\n        /* \"#utility.yul\":16783:16836   */\n      tag_317\n        /* \"#utility.yul\":16801:16835   */\n      tag_318\n        /* \"#utility.yul\":16810:16834   */\n      tag_319\n        /* \"#utility.yul\":16828:16833   */\n      dup5\n        /* \"#utility.yul\":16810:16834   */\n      tag_112\n      jump\t// in\n    tag_319:\n        /* \"#utility.yul\":16801:16835   */\n      tag_149\n      jump\t// in\n    tag_318:\n        /* \"#utility.yul\":16783:16836   */\n      tag_112\n      jump\t// in\n    tag_317:\n        /* \"#utility.yul\":16770:16836   */\n      swap1\n      pop\n        /* \"#utility.yul\":16700:16842   */\n      swap2\n      swap1\n      pop\n      jump\t// out\n        /* \"#utility.yul\":16848:16923   */\n    tag_151:\n        /* \"#utility.yul\":16891:16894   */\n      0x00\n        /* \"#utility.yul\":16912:16917   */\n      dup2\n        /* \"#utility.yul\":16905:16917   */\n      swap1\n      pop\n        /* \"#utility.yul\":16848:16923   */\n      swap2\n      swap1\n      pop\n      jump\t// out\n        /* \"#utility.yul\":16929:17198   */\n    tag_152:\n        /* \"#utility.yul\":17039:17078   */\n      tag_322\n        /* \"#utility.yul\":17070:17077   */\n      dup4\n        /* \"#utility.yul\":17039:17078   */\n      tag_150\n      jump\t// in\n    tag_322:\n        /* \"#utility.yul\":17100:17191   */\n      tag_323\n        /* \"#utility.yul\":17149:17190   */\n      tag_324\n        /* \"#utility.yul\":17173:17189   */\n      dup3\n        /* \"#utility.yul\":17149:17190   */\n      tag_151\n      jump\t// in\n    tag_324:\n        /* \"#utility.yul\":17141:17147   */\n      dup5\n        /* \"#utility.yul\":17134:17138   */\n      dup5\n        /* \"#utility.yul\":17128:17139   */\n      sload\n        /* \"#utility.yul\":17100:17191   */\n      tag_148\n      jump\t// in\n    tag_323:\n        /* \"#utility.yul\":17094:17098   */\n      dup3\n        /* \"#utility.yul\":17087:17192   */\n      sstore\n        /* \"#utility.yul\":17005:17198   */\n      pop\n        /* \"#utility.yul\":16929:17198   */\n      pop\n      pop\n      pop\n      jump\t// out\n        /* \"#utility.yul\":17204:17277   */\n    tag_153:\n        /* \"#utility.yul\":17249:17252   */\n      0x00\n        /* \"#utility.yul\":17204:17277   */\n      swap1\n      jump\t// out\n        /* \"#utility.yul\":17283:17472   */\n    tag_154:\n        /* \"#utility.yul\":17360:17392   */\n      tag_327\n      tag_153\n      jump\t// in\n    tag_327:\n        /* \"#utility.yul\":17401:17466   */\n      tag_328\n        /* \"#utility.yul\":17459:17465   */\n      dup2\n        /* \"#utility.yul\":17451:17457   */\n      dup5\n        /* \"#utility.yul\":17445:17449   */\n      dup5\n        /* \"#utility.yul\":17401:17466   */\n      tag_152\n      jump\t// in\n    tag_328:\n        /* \"#utility.yul\":17336:17472   */\n      pop\n        /* \"#utility.yul\":17283:17472   */\n      pop\n      pop\n      jump\t// out\n        /* \"#utility.yul\":17478:17664   */\n    tag_155:\n        /* \"#utility.yul\":17538:17658   */\n    tag_330:\n        /* \"#utility.yul\":17555:17558   */\n      dup2\n        /* \"#utility.yul\":17548:17553   */\n      dup2\n        /* \"#utility.yul\":17545:17559   */\n      lt\n        /* \"#utility.yul\":17538:17658   */\n      iszero\n      tag_332\n      jumpi\n        /* \"#utility.yul\":17609:17648   */\n      tag_333\n        /* \"#utility.yul\":17646:17647   */\n      0x00\n        /* \"#utility.yul\":17639:17644   */\n      dup3\n        /* \"#utility.yul\":17609:17648   */\n      tag_154\n      jump\t// in\n    tag_333:\n        /* \"#utility.yul\":17582:17583   */\n      0x01\n        /* \"#utility.yul\":17575:17580   */\n      dup2\n        /* \"#utility.yul\":17571:17584   */\n      add\n        /* \"#utility.yul\":17562:17584   */\n      swap1\n      pop\n        /* \"#utility.yul\":17538:17658   */\n      jump(tag_330)\n    tag_332:\n        /* \"#utility.yul\":17478:17664   */\n      pop\n      pop\n      jump\t// out\n        /* \"#utility.yul\":17670:18213   */\n    tag_156:\n        /* \"#utility.yul\":17771:17773   */\n      0x1f\n        /* \"#utility.yul\":17766:17769   */\n      dup3\n        /* \"#utility.yul\":17763:17774   */\n      gt\n        /* \"#utility.yul\":17760:18206   */\n      iszero\n      tag_335\n      jumpi\n        /* \"#utility.yul\":17805:17843   */\n      tag_336\n        /* \"#utility.yul\":17837:17842   */\n      dup2\n        /* \"#utility.yul\":17805:17843   */\n      tag_145\n      jump\t// in\n    tag_336:\n        /* \"#utility.yul\":17889:17918   */\n      tag_337\n        /* \"#utility.yul\":17907:17917   */\n      dup5\n        /* \"#utility.yul\":17889:17918   */\n      tag_146\n      jump\t// in\n    tag_337:\n        /* \"#utility.yul\":17879:17887   */\n      dup2\n        /* \"#utility.yul\":17875:17919   */\n      add\n        /* \"#utility.yul\":18072:18074   */\n      0x20\n        /* \"#utility.yul\":18060:18070   */\n      dup6\n        /* \"#utility.yul\":18057:18075   */\n      lt\n        /* \"#utility.yul\":18054:18103   */\n      iszero\n      tag_338\n      jumpi\n        /* \"#utility.yul\":18093:18101   */\n      dup2\n        /* \"#utility.yul\":18078:18101   */\n      swap1\n      pop\n        /* \"#utility.yul\":18054:18103   */\n    tag_338:\n        /* \"#utility.yul\":18116:18196   */\n      tag_339\n        /* \"#utility.yul\":18172:18194   */\n      tag_340\n        /* \"#utility.yul\":18190:18193   */\n      dup6\n        /* \"#utility.yul\":18172:18194   */\n      tag_146\n      jump\t// in\n    tag_340:\n        /* \"#utility.yul\":18162:18170   */\n      dup4\n        /* \"#utility.yul\":18158:18195   */\n      add\n        /* \"#utility.yul\":18145:18156   */\n      dup3\n        /* \"#utility.yul\":18116:18196   */\n      tag_155\n      jump\t// in\n    tag_339:\n        /* \"#utility.yul\":17775:18206   */\n      pop\n      pop\n        /* \"#utility.yul\":17760:18206   */\n    tag_335:\n        /* \"#utility.yul\":17670:18213   */\n      pop\n      pop\n      pop\n      jump\t// out\n        /* \"#utility.yul\":18219:18336   */\n    tag_157:\n        /* \"#utility.yul\":18273:18281   */\n      0x00\n        /* \"#utility.yul\":18323:18328   */\n      dup3\n        /* \"#utility.yul\":18317:18321   */\n      dup3\n        /* \"#utility.yul\":18313:18329   */\n      shr\n        /* \"#utility.yul\":18292:18329   */\n      swap1\n      pop\n        /* \"#utility.yul\":18219:18336   */\n      swap3\n      swap2\n      pop\n      pop\n      jump\t// out\n        /* \"#utility.yul\":18342:18511   */\n    tag_158:\n        /* \"#utility.yul\":18386:18392   */\n      0x00\n        /* \"#utility.yul\":18419:18470   */\n      tag_343\n        /* \"#utility.yul\":18467:18468   */\n      0x00\n        /* \"#utility.yul\":18463:18469   */\n      not\n        /* \"#utility.yul\":18455:18460   */\n      dup5\n        /* \"#utility.yul\":18452:18453   */\n      0x08\n        /* \"#utility.yul\":18448:18461   */\n      mul\n        /* \"#utility.yul\":18419:18470   */\n      tag_157\n      jump\t// in\n    tag_343:\n        /* \"#utility.yul\":18415:18471   */\n      not\n        /* \"#utility.yul\":18500:18504   */\n      dup1\n        /* \"#utility.yul\":18494:18498   */\n      dup4\n        /* \"#utility.yul\":18490:18505   */\n      and\n        /* \"#utility.yul\":18480:18505   */\n      swap2\n      pop\n        /* \"#utility.yul\":18393:18511   */\n      pop\n        /* \"#utility.yul\":18342:18511   */\n      swap3\n      swap2\n      pop\n      pop\n      jump\t// out\n        /* \"#utility.yul\":18516:18811   */\n    tag_159:\n        /* \"#utility.yul\":18592:18596   */\n      0x00\n        /* \"#utility.yul\":18738:18767   */\n      tag_345\n        /* \"#utility.yul\":18763:18766   */\n      dup4\n        /* \"#utility.yul\":18757:18761   */\n      dup4\n        /* \"#utility.yul\":18738:18767   */\n      tag_158\n      jump\t// in\n    tag_345:\n        /* \"#utility.yul\":18730:18767   */\n      swap2\n      pop\n        /* \"#utility.yul\":18800:18803   */\n      dup3\n        /* \"#utility.yul\":18797:18798   */\n      0x02\n        /* \"#utility.yul\":18793:18804   */\n      mul\n        /* \"#utility.yul\":18787:18791   */\n      dup3\n        /* \"#utility.yul\":18784:18805   */\n      or\n        /* \"#utility.yul\":18776:18805   */\n      swap1\n      pop\n        /* \"#utility.yul\":18516:18811   */\n      swap3\n      swap2\n      pop\n      pop\n      jump\t// out\n        /* \"#utility.yul\":18816:20211   */\n    tag_88:\n        /* \"#utility.yul\":18933:18970   */\n      tag_347\n        /* \"#utility.yul\":18966:18969   */\n      dup3\n        /* \"#utility.yul\":18933:18970   */\n      tag_115\n      jump\t// in\n    tag_347:\n        /* \"#utility.yul\":19035:19053   */\n      0xffffffffffffffff\n        /* \"#utility.yul\":19027:19033   */\n      dup2\n        /* \"#utility.yul\":19024:19054   */\n      gt\n        /* \"#utility.yul\":19021:19077   */\n      iszero\n      tag_348\n      jumpi\n        /* \"#utility.yul\":19057:19075   */\n      tag_349\n      tag_128\n      jump\t// in\n    tag_349:\n        /* \"#utility.yul\":19021:19077   */\n    tag_348:\n        /* \"#utility.yul\":19101:19139   */\n      tag_350\n        /* \"#utility.yul\":19133:19137   */\n      dup3\n        /* \"#utility.yul\":19127:19138   */\n      sload\n        /* \"#utility.yul\":19101:19139   */\n      tag_41\n      jump\t// in\n    tag_350:\n        /* \"#utility.yul\":19186:19253   */\n      tag_351\n        /* \"#utility.yul\":19246:19252   */\n      dup3\n        /* \"#utility.yul\":19238:19244   */\n      dup3\n        /* \"#utility.yul\":19232:19236   */\n      dup6\n        /* \"#utility.yul\":19186:19253   */\n      tag_156\n      jump\t// in\n    tag_351:\n        /* \"#utility.yul\":19280:19281   */\n      0x00\n        /* \"#utility.yul\":19304:19308   */\n      0x20\n        /* \"#utility.yul\":19291:19308   */\n      swap1\n      pop\n        /* \"#utility.yul\":19336:19338   */\n      0x1f\n        /* \"#utility.yul\":19328:19334   */\n      dup4\n        /* \"#utility.yul\":19325:19339   */\n      gt\n        /* \"#utility.yul\":19353:19354   */\n      0x01\n        /* \"#utility.yul\":19348:19966   */\n      dup2\n      eq\n      tag_353\n      jumpi\n        /* \"#utility.yul\":20010:20011   */\n      0x00\n        /* \"#utility.yul\":20027:20033   */\n      dup5\n        /* \"#utility.yul\":20024:20101   */\n      iszero\n      tag_354\n      jumpi\n        /* \"#utility.yul\":20076:20085   */\n      dup3\n        /* \"#utility.yul\":20071:20074   */\n      dup8\n        /* \"#utility.yul\":20067:20086   */\n      add\n        /* \"#utility.yul\":20061:20087   */\n      mload\n        /* \"#utility.yul\":20052:20087   */\n      swap1\n      pop\n        /* \"#utility.yul\":20024:20101   */\n    tag_354:\n        /* \"#utility.yul\":20127:20194   */\n      tag_355\n        /* \"#utility.yul\":20187:20193   */\n      dup6\n        /* \"#utility.yul\":20180:20185   */\n      dup3\n        /* \"#utility.yul\":20127:20194   */\n      tag_159\n      jump\t// in\n    tag_355:\n        /* \"#utility.yul\":20121:20125   */\n      dup7\n        /* \"#utility.yul\":20114:20195   */\n      sstore\n        /* \"#utility.yul\":19983:20205   */\n      pop\n        /* \"#utility.yul\":19318:20205   */\n      jump(tag_352)\n        /* \"#utility.yul\":19348:19966   */\n    tag_353:\n        /* \"#utility.yul\":19400:19404   */\n      0x1f\n        /* \"#utility.yul\":19396:19405   */\n      not\n        /* \"#utility.yul\":19388:19394   */\n      dup5\n        /* \"#utility.yul\":19384:19406   */\n      and\n        /* \"#utility.yul\":19434:19471   */\n      tag_356\n        /* \"#utility.yul\":19466:19470   */\n      dup7\n        /* \"#utility.yul\":19434:19471   */\n      tag_145\n      jump\t// in\n    tag_356:\n        /* \"#utility.yul\":19493:19494   */\n      0x00\n        /* \"#utility.yul\":19507:19715   */\n    tag_357:\n        /* \"#utility.yul\":19521:19528   */\n      dup3\n        /* \"#utility.yul\":19518:19519   */\n      dup2\n        /* \"#utility.yul\":19515:19529   */\n      lt\n        /* \"#utility.yul\":19507:19715   */\n      iszero\n      tag_359\n      jumpi\n        /* \"#utility.yul\":19600:19609   */\n      dup5\n        /* \"#utility.yul\":19595:19598   */\n      dup10\n        /* \"#utility.yul\":19591:19610   */\n      add\n        /* \"#utility.yul\":19585:19611   */\n      mload\n        /* \"#utility.yul\":19577:19583   */\n      dup3\n        /* \"#utility.yul\":19570:19612   */\n      sstore\n        /* \"#utility.yul\":19651:19652   */\n      0x01\n        /* \"#utility.yul\":19643:19649   */\n      dup3\n        /* \"#utility.yul\":19639:19653   */\n      add\n        /* \"#utility.yul\":19629:19653   */\n      swap2\n      pop\n        /* \"#utility.yul\":19698:19700   */\n      0x20\n        /* \"#utility.yul\":19687:19696   */\n      dup6\n        /* \"#utility.yul\":19683:19701   */\n      add\n        /* \"#utility.yul\":19670:19701   */\n      swap5\n      pop\n        /* \"#utility.yul\":19544:19548   */\n      0x20\n        /* \"#utility.yul\":19541:19542   */\n      dup2\n        /* \"#utility.yul\":19537:19549   */\n      add\n        /* \"#utility.yul\":19532:19549   */\n      swap1\n      pop\n        /* \"#utility.yul\":19507:19715   */\n      jump(tag_357)\n    tag_359:\n        /* \"#utility.yul\":19743:19749   */\n      dup7\n        /* \"#utility.yul\":19734:19741   */\n      dup4\n        /* \"#utility.yul\":19731:19750   */\n      lt\n        /* \"#utility.yul\":19728:19907   */\n      iszero\n      tag_360\n      jumpi\n        /* \"#utility.yul\":19801:19810   */\n      dup5\n        /* \"#utility.yul\":19796:19799   */\n      dup10\n        /* \"#utility.yul\":19792:19811   */\n      add\n        /* \"#utility.yul\":19786:19812   */\n      mload\n        /* \"#utility.yul\":19844:19892   */\n      tag_361\n        /* \"#utility.yul\":19886:19890   */\n      0x1f\n        /* \"#utility.yul\":19878:19884   */\n      dup10\n        /* \"#utility.yul\":19874:19891   */\n      and\n        /* \"#utility.yul\":19863:19872   */\n      dup3\n        /* \"#utility.yul\":19844:19892   */\n      tag_158\n      jump\t// in\n    tag_361:\n        /* \"#utility.yul\":19836:19842   */\n      dup4\n        /* \"#utility.yul\":19829:19893   */\n      sstore\n        /* \"#utility.yul\":19751:19907   */\n      pop\n        /* \"#utility.yul\":19728:19907   */\n    tag_360:\n        /* \"#utility.yul\":19953:19954   */\n      0x01\n        /* \"#utility.yul\":19949:19950   */\n      0x02\n        /* \"#utility.yul\":19941:19947   */\n      dup9\n        /* \"#utility.yul\":19937:19951   */\n      mul\n        /* \"#utility.yul\":19933:19955   */\n      add\n        /* \"#utility.yul\":19927:19931   */\n      dup9\n        /* \"#utility.yul\":19920:19956   */\n      sstore\n        /* \"#utility.yul\":19355:19966   */\n      pop\n      pop\n      pop\n        /* \"#utility.yul\":19318:20205   */\n    tag_352:\n      pop\n        /* \"#utility.yul\":18908:20211   */\n      pop\n      pop\n      pop\n        /* \"#utility.yul\":18816:20211   */\n      pop\n      pop\n      jump\t// out\n        /* \"#utility.yul\":20217:20594   */\n    tag_160:\n        /* \"#utility.yul\":20305:20308   */\n      0x00\n        /* \"#utility.yul\":20333:20372   */\n      tag_363\n        /* \"#utility.yul\":20366:20371   */\n      dup3\n        /* \"#utility.yul\":20333:20372   */\n      tag_115\n      jump\t// in\n    tag_363:\n        /* \"#utility.yul\":20388:20459   */\n      tag_364\n        /* \"#utility.yul\":20452:20458   */\n      dup2\n        /* \"#utility.yul\":20447:20450   */\n      dup6\n        /* \"#utility.yul\":20388:20459   */\n      tag_138\n      jump\t// in\n    tag_364:\n        /* \"#utility.yul\":20381:20459   */\n      swap4\n      pop\n        /* \"#utility.yul\":20468:20533   */\n      tag_365\n        /* \"#utility.yul\":20526:20532   */\n      dup2\n        /* \"#utility.yul\":20521:20524   */\n      dup6\n        /* \"#utility.yul\":20514:20518   */\n      0x20\n        /* \"#utility.yul\":20507:20512   */\n      dup7\n        /* \"#utility.yul\":20503:20519   */\n      add\n        /* \"#utility.yul\":20468:20533   */\n      tag_117\n      jump\t// in\n    tag_365:\n        /* \"#utility.yul\":20558:20587   */\n      tag_366\n        /* \"#utility.yul\":20580:20586   */\n      dup2\n        /* \"#utility.yul\":20558:20587   */\n      tag_118\n      jump\t// in\n    tag_366:\n        /* \"#utility.yul\":20553:20556   */\n      dup5\n        /* \"#utility.yul\":20549:20588   */\n      add\n        /* \"#utility.yul\":20542:20588   */\n      swap2\n      pop\n        /* \"#utility.yul\":20309:20594   */\n      pop\n        /* \"#utility.yul\":20217:20594   */\n      swap3\n      swap2\n      pop\n      pop\n      jump\t// out\n        /* \"#utility.yul\":20600:21244   */\n    tag_90:\n        /* \"#utility.yul\":20797:20801   */\n      0x00\n        /* \"#utility.yul\":20835:20838   */\n      0x80\n        /* \"#utility.yul\":20824:20833   */\n      dup3\n        /* \"#utility.yul\":20820:20839   */\n      add\n        /* \"#utility.yul\":20812:20839   */\n      swap1\n      pop\n        /* \"#utility.yul\":20849:20920   */\n      tag_368\n        /* \"#utility.yul\":20917:20918   */\n      0x00\n        /* \"#utility.yul\":20906:20915   */\n      dup4\n        /* \"#utility.yul\":20902:20919   */\n      add\n        /* \"#utility.yul\":20893:20899   */\n      dup8\n        /* \"#utility.yul\":20849:20920   */\n      tag_144\n      jump\t// in\n    tag_368:\n        /* \"#utility.yul\":20930:21002   */\n      tag_369\n        /* \"#utility.yul\":20998:21000   */\n      0x20\n        /* \"#utility.yul\":20987:20996   */\n      dup4\n        /* \"#utility.yul\":20983:21001   */\n      add\n        /* \"#utility.yul\":20974:20980   */\n      dup7\n        /* \"#utility.yul\":20930:21002   */\n      tag_135\n      jump\t// in\n    tag_369:\n        /* \"#utility.yul\":21049:21058   */\n      dup2\n        /* \"#utility.yul\":21043:21047   */\n      dup2\n        /* \"#utility.yul\":21039:21059   */\n      sub\n        /* \"#utility.yul\":21034:21036   */\n      0x40\n        /* \"#utility.yul\":21023:21032   */\n      dup4\n        /* \"#utility.yul\":21019:21037   */\n      add\n        /* \"#utility.yul\":21012:21060   */\n      mstore\n        /* \"#utility.yul\":21077:21155   */\n      tag_370\n        /* \"#utility.yul\":21150:21154   */\n      dup2\n        /* \"#utility.yul\":21141:21147   */\n      dup6\n        /* \"#utility.yul\":21077:21155   */\n      tag_160\n      jump\t// in\n    tag_370:\n        /* \"#utility.yul\":21069:21155   */\n      swap1\n      pop\n        /* \"#utility.yul\":21165:21237   */\n      tag_371\n        /* \"#utility.yul\":21233:21235   */\n      0x60\n        /* \"#utility.yul\":21222:21231   */\n      dup4\n        /* \"#utility.yul\":21218:21236   */\n      add\n        /* \"#utility.yul\":21209:21215   */\n      dup5\n        /* \"#utility.yul\":21165:21237   */\n      tag_144\n      jump\t// in\n    tag_371:\n        /* \"#utility.yul\":20600:21244   */\n      swap6\n      swap5\n      pop\n      pop\n      pop\n      pop\n      pop\n      jump\t// out\n\n    auxdata: 0xa264697066735822122036d211ab30722126dd4034d82f45f50c785c5db22db829c2c97bee5fe93027a164736f6c63430008130033\n}\n",
				"bytecode": {
					"linkReferences": {},
					"object": "608060405234801561001057600080fd5b5033600160006101000a81548173ffffffffffffffffffffffffffffffffffffffff021916908373ffffffffffffffffffffffffffffffffffffffff1602179055506115c9806100616000396000f3fe608060405234801561001057600080fd5b50600436106100625760003560e01c806312e7ee1c146100675780633d9b569f1461009757806363378216146100b35780637c9cd2bc146100cf5780638da5cb5b146100eb578063c3ad5ecb14610109575b600080fd5b610081600480360381019061007c9190610b0c565b610139565b60405161008e9190610d29565b60405180910390f35b6100b160048036038101906100ac9190610d77565b6102dc565b005b6100cd60048036038101906100c89190610d77565b61053c565b005b6100e960048036038101906100e49190610eec565b6106f8565b005b6100f36108b1565b6040516101009190610f44565b60405180910390f35b610123600480360381019061011e9190610f5f565b6108d7565b6040516101309190611002565b60405180910390f35b60606000808373ffffffffffffffffffffffffffffffffffffffff1673ffffffffffffffffffffffffffffffffffffffff168152602001908152602001600020805480602002602001604051908101604052809291908181526020016000905b828210156102d157838290600052602060002090600502016040518060a0016040529081600082015481526020016001820160009054906101000a900473ffffffffffffffffffffffffffffffffffffffff1673ffffffffffffffffffffffffffffffffffffffff1673ffffffffffffffffffffffffffffffffffffffff16815260200160028201805461022c90611053565b80601f016020809104026020016040519081016040528092919081815260200182805461025890611053565b80156102a55780601f1061027a576101008083540402835291602001916102a5565b820191906000526020600020905b81548152906001019060200180831161028857829003601f168201915b505050505081526020016003820154815260200160048201548152505081526020019060010190610199565b505050509050919050565b806000808473ffffffffffffffffffffffffffffffffffffffff1673ffffffffffffffffffffffffffffffffffffffff168152602001908152602001600020828154811061032d5761032c611084565b5b9060005260206000209060050201600001541461037f576040517f08c379a000000000000000000000000000000000000000000000000000000000815260040161037690611110565b60405180910390fd5b60008060008473ffffffffffffffffffffffffffffffffffffffff1673ffffffffffffffffffffffffffffffffffffffff16815260200190815260200160002082815481106103d1576103d0611084565b5b90600052602060002090600502016004015411610423576040517f08c379a000000000000000000000000000000000000000000000000000000000815260040161041a9061117c565b60405180910390fd5b6000808373ffffffffffffffffffffffffffffffffffffffff1673ffffffffffffffffffffffffffffffffffffffff168152602001908152602001600020818154811061047357610472611084565b5b90600052602060002090600502016004016000815480929190610495906111cb565b91905055507f13f32ddad207d713869a0b6702a654beb64c3be5af63f1888796c50dfff01c4c3383836000808773ffffffffffffffffffffffffffffffffffffffff1673ffffffffffffffffffffffffffffffffffffffff168152602001908152602001600020858154811061050e5761050d611084565b5b9060005260206000209060050201600401546040516105309493929190611203565b60405180910390a15050565b806000808473ffffffffffffffffffffffffffffffffffffffff1673ffffffffffffffffffffffffffffffffffffffff168152602001908152602001600020828154811061058d5761058c611084565b5b906000526020600020906005020160000154146105df576040517f08c379a00000000000000000000000000000000000000000000000000000000081526004016105d690611110565b60405180910390fd5b6000808373ffffffffffffffffffffffffffffffffffffffff1673ffffffffffffffffffffffffffffffffffffffff168152602001908152602001600020818154811061062f5761062e611084565b5b9060005260206000209060050201600401600081548092919061065190611248565b91905055507fa3c9ad75b0736706936cfe2646da2d2a6539dfdefbe5267580b75d17501519813383836000808773ffffffffffffffffffffffffffffffffffffffff1673ffffffffffffffffffffffffffffffffffffffff16815260200190815260200160002085815481106106ca576106c9611084565b5b9060005260206000209060050201600401546040516106ec9493929190611203565b60405180910390a15050565b60006040518060a001604052806000803373ffffffffffffffffffffffffffffffffffffffff1673ffffffffffffffffffffffffffffffffffffffff1681526020019081526020016000208054905081526020013373ffffffffffffffffffffffffffffffffffffffff168152602001838152602001428152602001600081525090506000803373ffffffffffffffffffffffffffffffffffffffff1673ffffffffffffffffffffffffffffffffffffffff1681526020019081526020016000208190806001815401808255809150506001900390600052602060002090600502016000909190919091506000820151816000015560208201518160010160006101000a81548173ffffffffffffffffffffffffffffffffffffffff021916908373ffffffffffffffffffffffffffffffffffffffff1602179055506040820151816002019081610849919061143c565b50606082015181600301556080820151816004015550507f6e5546a74a8ef6731872256d3bbbf86208675b875b179abed63f4ed747a30cfb81600001518260200151836040015184606001516040516108a59493929190611547565b60405180910390a15050565b600160009054906101000a900473ffffffffffffffffffffffffffffffffffffffff1681565b6108df610a55565b6000803373ffffffffffffffffffffffffffffffffffffffff1673ffffffffffffffffffffffffffffffffffffffff168152602001908152602001600020828154811061092f5761092e611084565b5b90600052602060002090600502016040518060a0016040529081600082015481526020016001820160009054906101000a900473ffffffffffffffffffffffffffffffffffffffff1673ffffffffffffffffffffffffffffffffffffffff1673ffffffffffffffffffffffffffffffffffffffff1681526020016002820180546109b890611053565b80601f01602080910402602001604051908101604052809291908181526020018280546109e490611053565b8015610a315780601f10610a0657610100808354040283529160200191610a31565b820191906000526020600020905b815481529060010190602001808311610a1457829003601f168201915b50505050508152602001600382015481526020016004820154815250509050919050565b6040518060a0016040528060008152602001600073ffffffffffffffffffffffffffffffffffffffff1681526020016060815260200160008152602001600081525090565b6000604051905090565b600080fd5b600080fd5b600073ffffffffffffffffffffffffffffffffffffffff82169050919050565b6000610ad982610aae565b9050919050565b610ae981610ace565b8114610af457600080fd5b50565b600081359050610b0681610ae0565b92915050565b600060208284031215610b2257610b21610aa4565b5b6000610b3084828501610af7565b91505092915050565b600081519050919050565b600082825260208201905092915050565b6000819050602082019050919050565b6000819050919050565b610b7881610b65565b82525050565b610b8781610ace565b82525050565b600081519050919050565b600082825260208201905092915050565b60005b83811015610bc7578082015181840152602081019050610bac565b60008484015250505050565b6000601f19601f8301169050919050565b6000610bef82610b8d565b610bf98185610b98565b9350610c09818560208601610ba9565b610c1281610bd3565b840191505092915050565b600060a083016000830151610c356000860182610b6f565b506020830151610c486020860182610b7e565b5060408301518482036040860152610c608282610be4565b9150506060830151610c756060860182610b6f565b506080830151610c886080860182610b6f565b508091505092915050565b6000610c9f8383610c1d565b905092915050565b6000602082019050919050565b6000610cbf82610b39565b610cc98185610b44565b935083602082028501610cdb85610b55565b8060005b85811015610d175784840389528151610cf88582610c93565b9450610d0383610ca7565b925060208a01995050600181019050610cdf565b50829750879550505050505092915050565b60006020820190508181036000830152610d438184610cb4565b905092915050565b610d5481610b65565b8114610d5f57600080fd5b50565b600081359050610d7181610d4b565b92915050565b60008060408385031215610d8e57610d8d610aa4565b5b6000610d9c85828601610af7565b9250506020610dad85828601610d62565b9150509250929050565b600080fd5b600080fd5b7f4e487b7100000000000000000000000000000000000000000000000000000000600052604160045260246000fd5b610df982610bd3565b810181811067ffffffffffffffff82111715610e1857610e17610dc1565b5b80604052505050565b6000610e2b610a9a565b9050610e378282610df0565b919050565b600067ffffffffffffffff821115610e5757610e56610dc1565b5b610e6082610bd3565b9050602081019050919050565b82818337600083830152505050565b6000610e8f610e8a84610e3c565b610e21565b905082815260208101848484011115610eab57610eaa610dbc565b5b610eb6848285610e6d565b509392505050565b600082601f830112610ed357610ed2610db7565b5b8135610ee3848260208601610e7c565b91505092915050565b600060208284031215610f0257610f01610aa4565b5b600082013567ffffffffffffffff811115610f2057610f1f610aa9565b5b610f2c84828501610ebe565b91505092915050565b610f3e81610ace565b82525050565b6000602082019050610f596000830184610f35565b92915050565b600060208284031215610f7557610f74610aa4565b5b6000610f8384828501610d62565b91505092915050565b600060a083016000830151610fa46000860182610b6f565b506020830151610fb76020860182610b7e565b5060408301518482036040860152610fcf8282610be4565b9150506060830151610fe46060860182610b6f565b506080830151610ff76080860182610b6f565b508091505092915050565b6000602082019050818103600083015261101c8184610f8c565b905092915050565b7f4e487b7100000000000000000000000000000000000000000000000000000000600052602260045260246000fd5b6000600282049050600182168061106b57607f821691505b60208210810361107e5761107d611024565b5b50919050565b7f4e487b7100000000000000000000000000000000000000000000000000000000600052603260045260246000fd5b600082825260208201905092915050565b7f545745455420444f4553204e4f54204558495354000000000000000000000000600082015250565b60006110fa6014836110b3565b9150611105826110c4565b602082019050919050565b60006020820190508181036000830152611129816110ed565b9050919050565b7f545745455420484153204e4f204c494b45530000000000000000000000000000600082015250565b60006111666012836110b3565b915061117182611130565b602082019050919050565b6000602082019050818103600083015261119581611159565b9050919050565b7f4e487b7100000000000000000000000000000000000000000000000000000000600052601160045260246000fd5b60006111d682610b65565b9150600082036111e9576111e861119c565b5b600182039050919050565b6111fd81610b65565b82525050565b60006080820190506112186000830187610f35565b6112256020830186610f35565b61123260408301856111f4565b61123f60608301846111f4565b95945050505050565b600061125382610b65565b91507fffffffffffffffffffffffffffffffffffffffffffffffffffffffffffffffff82036112855761128461119c565b5b600182019050919050565b60008190508160005260206000209050919050565b60006020601f8301049050919050565b600082821b905092915050565b6000600883026112f27fffffffffffffffffffffffffffffffffffffffffffffffffffffffffffffffff826112b5565b6112fc86836112b5565b95508019841693508086168417925050509392505050565b6000819050919050565b600061133961133461132f84610b65565b611314565b610b65565b9050919050565b6000819050919050565b6113538361131e565b61136761135f82611340565b8484546112c2565b825550505050565b600090565b61137c61136f565b61138781848461134a565b505050565b5b818110156113ab576113a0600082611374565b60018101905061138d565b5050565b601f8211156113f0576113c181611290565b6113ca846112a5565b810160208510156113d9578190505b6113ed6113e5856112a5565b83018261138c565b50505b505050565b600082821c905092915050565b6000611413600019846008026113f5565b1980831691505092915050565b600061142c8383611402565b9150826002028217905092915050565b61144582610b8d565b67ffffffffffffffff81111561145e5761145d610dc1565b5b6114688254611053565b6114738282856113af565b600060209050601f8311600181146114a65760008415611494578287015190505b61149e8582611420565b865550611506565b601f1984166114b486611290565b60005b828110156114dc578489015182556001820191506020850194506020810190506114b7565b868310156114f957848901516114f5601f891682611402565b8355505b6001600288020188555050505b505050505050565b600061151982610b8d565b61152381856110b3565b9350611533818560208601610ba9565b61153c81610bd3565b840191505092915050565b600060808201905061155c60008301876111f4565b6115696020830186610f35565b818103604083015261157b818561150e565b905061158a60608301846111f4565b9594505050505056fea264697066735822122036d211ab30722126dd4034d82f45f50c785c5db22db829c2c97bee5fe93027a164736f6c63430008130033",
					"opcodes": "PUSH1 0x80 PUSH1 0x40 MSTORE CALLVALUE DUP1 ISZERO PUSH2 0x10 JUMPI PUSH1 0x0 DUP1 REVERT JUMPDEST POP CALLER PUSH1 0x1 PUSH1 0x0 PUSH2 0x100 EXP DUP2 SLOAD DUP2 PUSH20 0xFFFFFFFFFFFFFFFFFFFFFFFFFFFFFFFFFFFFFFFF MUL NOT AND SWAP1 DUP4 PUSH20 0xFFFFFFFFFFFFFFFFFFFFFFFFFFFFFFFFFFFFFFFF AND MUL OR SWAP1 SSTORE POP PUSH2 0x15C9 DUP1 PUSH2 0x61 PUSH1 0x0 CODECOPY PUSH1 0x0 RETURN INVALID PUSH1 0x80 PUSH1 0x40 MSTORE CALLVALUE DUP1 ISZERO PUSH2 0x10 JUMPI PUSH1 0x0 DUP1 REVERT JUMPDEST POP PUSH1 0x4 CALLDATASIZE LT PUSH2 0x62 JUMPI PUSH1 0x0 CALLDATALOAD PUSH1 0xE0 SHR DUP1 PUSH4 0x12E7EE1C EQ PUSH2 0x67 JUMPI DUP1 PUSH4 0x3D9B569F EQ PUSH2 0x97 JUMPI DUP1 PUSH4 0x63378216 EQ PUSH2 0xB3 JUMPI DUP1 PUSH4 0x7C9CD2BC EQ PUSH2 0xCF JUMPI DUP1 PUSH4 0x8DA5CB5B EQ PUSH2 0xEB JUMPI DUP1 PUSH4 0xC3AD5ECB EQ PUSH2 0x109 JUMPI JUMPDEST PUSH1 0x0 DUP1 REVERT JUMPDEST PUSH2 0x81 PUSH1 0x4 DUP1 CALLDATASIZE SUB DUP2 ADD SWAP1 PUSH2 0x7C SWAP2 SWAP1 PUSH2 0xB0C JUMP JUMPDEST PUSH2 0x139 JUMP JUMPDEST PUSH1 0x40 MLOAD PUSH2 0x8E SWAP2 SWAP1 PUSH2 0xD29 JUMP JUMPDEST PUSH1 0x40 MLOAD DUP1 SWAP2 SUB SWAP1 RETURN JUMPDEST PUSH2 0xB1 PUSH1 0x4 DUP1 CALLDATASIZE SUB DUP2 ADD SWAP1 PUSH2 0xAC SWAP2 SWAP1 PUSH2 0xD77 JUMP JUMPDEST PUSH2 0x2DC JUMP JUMPDEST STOP JUMPDEST PUSH2 0xCD PUSH1 0x4 DUP1 CALLDATASIZE SUB DUP2 ADD SWAP1 PUSH2 0xC8 SWAP2 SWAP1 PUSH2 0xD77 JUMP JUMPDEST PUSH2 0x53C JUMP JUMPDEST STOP JUMPDEST PUSH2 0xE9 PUSH1 0x4 DUP1 CALLDATASIZE SUB DUP2 ADD SWAP1 PUSH2 0xE4 SWAP2 SWAP1 PUSH2 0xEEC JUMP JUMPDEST PUSH2 0x6F8 JUMP JUMPDEST STOP JUMPDEST PUSH2 0xF3 PUSH2 0x8B1 JUMP JUMPDEST PUSH1 0x40 MLOAD PUSH2 0x100 SWAP2 SWAP1 PUSH2 0xF44 JUMP JUMPDEST PUSH1 0x40 MLOAD DUP1 SWAP2 SUB SWAP1 RETURN JUMPDEST PUSH2 0x123 PUSH1 0x4 DUP1 CALLDATASIZE SUB DUP2 ADD SWAP1 PUSH2 0x11E SWAP2 SWAP1 PUSH2 0xF5F JUMP JUMPDEST PUSH2 0x8D7 JUMP JUMPDEST PUSH1 0x40 MLOAD PUSH2 0x130 SWAP2 SWAP1 PUSH2 0x1002 JUMP JUMPDEST PUSH1 0x40 MLOAD DUP1 SWAP2 SUB SWAP1 RETURN JUMPDEST PUSH1 0x60 PUSH1 0x0 DUP1 DUP4 PUSH20 0xFFFFFFFFFFFFFFFFFFFFFFFFFFFFFFFFFFFFFFFF AND PUSH20 0xFFFFFFFFFFFFFFFFFFFFFFFFFFFFFFFFFFFFFFFF AND DUP2 MSTORE PUSH1 0x20 ADD SWAP1 DUP2 MSTORE PUSH1 0x20 ADD PUSH1 0x0 KECCAK256 DUP1 SLOAD DUP1 PUSH1 0x20 MUL PUSH1 0x20 ADD PUSH1 0x40 MLOAD SWAP1 DUP2 ADD PUSH1 0x40 MSTORE DUP1 SWAP3 SWAP2 SWAP1 DUP2 DUP2 MSTORE PUSH1 0x20 ADD PUSH1 0x0 SWAP1 JUMPDEST DUP3 DUP3 LT ISZERO PUSH2 0x2D1 JUMPI DUP4 DUP3 SWAP1 PUSH1 0x0 MSTORE PUSH1 0x20 PUSH1 0x0 KECCAK256 SWAP1 PUSH1 0x5 MUL ADD PUSH1 0x40 MLOAD DUP1 PUSH1 0xA0 ADD PUSH1 0x40 MSTORE SWAP1 DUP2 PUSH1 0x0 DUP3 ADD SLOAD DUP2 MSTORE PUSH1 0x20 ADD PUSH1 0x1 DUP3 ADD PUSH1 0x0 SWAP1 SLOAD SWAP1 PUSH2 0x100 EXP SWAP1 DIV PUSH20 0xFFFFFFFFFFFFFFFFFFFFFFFFFFFFFFFFFFFFFFFF AND PUSH20 0xFFFFFFFFFFFFFFFFFFFFFFFFFFFFFFFFFFFFFFFF AND PUSH20 0xFFFFFFFFFFFFFFFFFFFFFFFFFFFFFFFFFFFFFFFF AND DUP2 MSTORE PUSH1 0x20 ADD PUSH1 0x2 DUP3 ADD DUP1 SLOAD PUSH2 0x22C SWAP1 PUSH2 0x1053 JUMP JUMPDEST DUP1 PUSH1 0x1F ADD PUSH1 0x20 DUP1 SWAP2 DIV MUL PUSH1 0x20 ADD PUSH1 0x40 MLOAD SWAP1 DUP2 ADD PUSH1 0x40 MSTORE DUP1 SWAP3 SWAP2 SWAP1 DUP2 DUP2 MSTORE PUSH1 0x20 ADD DUP3 DUP1 SLOAD PUSH2 0x258 SWAP1 PUSH2 0x1053 JUMP JUMPDEST DUP1 ISZERO PUSH2 0x2A5 JUMPI DUP1 PUSH1 0x1F LT PUSH2 0x27A JUMPI PUSH2 0x100 DUP1 DUP4 SLOAD DIV MUL DUP4 MSTORE SWAP2 PUSH1 0x20 ADD SWAP2 PUSH2 0x2A5 JUMP JUMPDEST DUP3 ADD SWAP2 SWAP1 PUSH1 0x0 MSTORE PUSH1 0x20 PUSH1 0x0 KECCAK256 SWAP1 JUMPDEST DUP2 SLOAD DUP2 MSTORE SWAP1 PUSH1 0x1 ADD SWAP1 PUSH1 0x20 ADD DUP1 DUP4 GT PUSH2 0x288 JUMPI DUP3 SWAP1 SUB PUSH1 0x1F AND DUP3 ADD SWAP2 JUMPDEST POP POP POP POP POP DUP2 MSTORE PUSH1 0x20 ADD PUSH1 0x3 DUP3 ADD SLOAD DUP2 MSTORE PUSH1 0x20 ADD PUSH1 0x4 DUP3 ADD SLOAD DUP2 MSTORE POP POP DUP2 MSTORE PUSH1 0x20 ADD SWAP1 PUSH1 0x1 ADD SWAP1 PUSH2 0x199 JUMP JUMPDEST POP POP POP POP SWAP1 POP SWAP2 SWAP1 POP JUMP JUMPDEST DUP1 PUSH1 0x0 DUP1 DUP5 PUSH20 0xFFFFFFFFFFFFFFFFFFFFFFFFFFFFFFFFFFFFFFFF AND PUSH20 0xFFFFFFFFFFFFFFFFFFFFFFFFFFFFFFFFFFFFFFFF AND DUP2 MSTORE PUSH1 0x20 ADD SWAP1 DUP2 MSTORE PUSH1 0x20 ADD PUSH1 0x0 KECCAK256 DUP3 DUP2 SLOAD DUP2 LT PUSH2 0x32D JUMPI PUSH2 0x32C PUSH2 0x1084 JUMP JUMPDEST JUMPDEST SWAP1 PUSH1 0x0 MSTORE PUSH1 0x20 PUSH1 0x0 KECCAK256 SWAP1 PUSH1 0x5 MUL ADD PUSH1 0x0 ADD SLOAD EQ PUSH2 0x37F JUMPI PUSH1 0x40 MLOAD PUSH32 0x8C379A000000000000000000000000000000000000000000000000000000000 DUP2 MSTORE PUSH1 0x4 ADD PUSH2 0x376 SWAP1 PUSH2 0x1110 JUMP JUMPDEST PUSH1 0x40 MLOAD DUP1 SWAP2 SUB SWAP1 REVERT JUMPDEST PUSH1 0x0 DUP1 PUSH1 0x0 DUP5 PUSH20 0xFFFFFFFFFFFFFFFFFFFFFFFFFFFFFFFFFFFFFFFF AND PUSH20 0xFFFFFFFFFFFFFFFFFFFFFFFFFFFFFFFFFFFFFFFF AND DUP2 MSTORE PUSH1 0x20 ADD SWAP1 DUP2 MSTORE PUSH1 0x20 ADD PUSH1 0x0 KECCAK256 DUP3 DUP2 SLOAD DUP2 LT PUSH2 0x3D1 JUMPI PUSH2 0x3D0 PUSH2 0x1084 JUMP JUMPDEST JUMPDEST SWAP1 PUSH1 0x0 MSTORE PUSH1 0x20 PUSH1 0x0 KECCAK256 SWAP1 PUSH1 0x5 MUL ADD PUSH1 0x4 ADD SLOAD GT PUSH2 0x423 JUMPI PUSH1 0x40 MLOAD PUSH32 0x8C379A000000000000000000000000000000000000000000000000000000000 DUP2 MSTORE PUSH1 0x4 ADD PUSH2 0x41A SWAP1 PUSH2 0x117C JUMP JUMPDEST PUSH1 0x40 MLOAD DUP1 SWAP2 SUB SWAP1 REVERT JUMPDEST PUSH1 0x0 DUP1 DUP4 PUSH20 0xFFFFFFFFFFFFFFFFFFFFFFFFFFFFFFFFFFFFFFFF AND PUSH20 0xFFFFFFFFFFFFFFFFFFFFFFFFFFFFFFFFFFFFFFFF AND DUP2 MSTORE PUSH1 0x20 ADD SWAP1 DUP2 MSTORE PUSH1 0x20 ADD PUSH1 0x0 KECCAK256 DUP2 DUP2 SLOAD DUP2 LT PUSH2 0x473 JUMPI PUSH2 0x472 PUSH2 0x1084 JUMP JUMPDEST JUMPDEST SWAP1 PUSH1 0x0 MSTORE PUSH1 0x20 PUSH1 0x0 KECCAK256 SWAP1 PUSH1 0x5 MUL ADD PUSH1 0x4 ADD PUSH1 0x0 DUP2 SLOAD DUP1 SWAP3 SWAP2 SWAP1 PUSH2 0x495 SWAP1 PUSH2 0x11CB JUMP JUMPDEST SWAP2 SWAP1 POP SSTORE POP PUSH32 0x13F32DDAD207D713869A0B6702A654BEB64C3BE5AF63F1888796C50DFFF01C4C CALLER DUP4 DUP4 PUSH1 0x0 DUP1 DUP8 PUSH20 0xFFFFFFFFFFFFFFFFFFFFFFFFFFFFFFFFFFFFFFFF AND PUSH20 0xFFFFFFFFFFFFFFFFFFFFFFFFFFFFFFFFFFFFFFFF AND DUP2 MSTORE PUSH1 0x20 ADD SWAP1 DUP2 MSTORE PUSH1 0x20 ADD PUSH1 0x0 KECCAK256 DUP6 DUP2 SLOAD DUP2 LT PUSH2 0x50E JUMPI PUSH2 0x50D PUSH2 0x1084 JUMP JUMPDEST JUMPDEST SWAP1 PUSH1 0x0 MSTORE PUSH1 0x20 PUSH1 0x0 KECCAK256 SWAP1 PUSH1 0x5 MUL ADD PUSH1 0x4 ADD SLOAD PUSH1 0x40 MLOAD PUSH2 0x530 SWAP5 SWAP4 SWAP3 SWAP2 SWAP1 PUSH2 0x1203 JUMP JUMPDEST PUSH1 0x40 MLOAD DUP1 SWAP2 SUB SWAP1 LOG1 POP POP JUMP JUMPDEST DUP1 PUSH1 0x0 DUP1 DUP5 PUSH20 0xFFFFFFFFFFFFFFFFFFFFFFFFFFFFFFFFFFFFFFFF AND PUSH20 0xFFFFFFFFFFFFFFFFFFFFFFFFFFFFFFFFFFFFFFFF AND DUP2 MSTORE PUSH1 0x20 ADD SWAP1 DUP2 MSTORE PUSH1 0x20 ADD PUSH1 0x0 KECCAK256 DUP3 DUP2 SLOAD DUP2 LT PUSH2 0x58D JUMPI PUSH2 0x58C PUSH2 0x1084 JUMP JUMPDEST JUMPDEST SWAP1 PUSH1 0x0 MSTORE PUSH1 0x20 PUSH1 0x0 KECCAK256 SWAP1 PUSH1 0x5 MUL ADD PUSH1 0x0 ADD SLOAD EQ PUSH2 0x5DF JUMPI PUSH1 0x40 MLOAD PUSH32 0x8C379A000000000000000000000000000000000000000000000000000000000 DUP2 MSTORE PUSH1 0x4 ADD PUSH2 0x5D6 SWAP1 PUSH2 0x1110 JUMP JUMPDEST PUSH1 0x40 MLOAD DUP1 SWAP2 SUB SWAP1 REVERT JUMPDEST PUSH1 0x0 DUP1 DUP4 PUSH20 0xFFFFFFFFFFFFFFFFFFFFFFFFFFFFFFFFFFFFFFFF AND PUSH20 0xFFFFFFFFFFFFFFFFFFFFFFFFFFFFFFFFFFFFFFFF AND DUP2 MSTORE PUSH1 0x20 ADD SWAP1 DUP2 MSTORE PUSH1 0x20 ADD PUSH1 0x0 KECCAK256 DUP2 DUP2 SLOAD DUP2 LT PUSH2 0x62F JUMPI PUSH2 0x62E PUSH2 0x1084 JUMP JUMPDEST JUMPDEST SWAP1 PUSH1 0x0 MSTORE PUSH1 0x20 PUSH1 0x0 KECCAK256 SWAP1 PUSH1 0x5 MUL ADD PUSH1 0x4 ADD PUSH1 0x0 DUP2 SLOAD DUP1 SWAP3 SWAP2 SWAP1 PUSH2 0x651 SWAP1 PUSH2 0x1248 JUMP JUMPDEST SWAP2 SWAP1 POP SSTORE POP PUSH32 0xA3C9AD75B0736706936CFE2646DA2D2A6539DFDEFBE5267580B75D1750151981 CALLER DUP4 DUP4 PUSH1 0x0 DUP1 DUP8 PUSH20 0xFFFFFFFFFFFFFFFFFFFFFFFFFFFFFFFFFFFFFFFF AND PUSH20 0xFFFFFFFFFFFFFFFFFFFFFFFFFFFFFFFFFFFFFFFF AND DUP2 MSTORE PUSH1 0x20 ADD SWAP1 DUP2 MSTORE PUSH1 0x20 ADD PUSH1 0x0 KECCAK256 DUP6 DUP2 SLOAD DUP2 LT PUSH2 0x6CA JUMPI PUSH2 0x6C9 PUSH2 0x1084 JUMP JUMPDEST JUMPDEST SWAP1 PUSH1 0x0 MSTORE PUSH1 0x20 PUSH1 0x0 KECCAK256 SWAP1 PUSH1 0x5 MUL ADD PUSH1 0x4 ADD SLOAD PUSH1 0x40 MLOAD PUSH2 0x6EC SWAP5 SWAP4 SWAP3 SWAP2 SWAP1 PUSH2 0x1203 JUMP JUMPDEST PUSH1 0x40 MLOAD DUP1 SWAP2 SUB SWAP1 LOG1 POP POP JUMP JUMPDEST PUSH1 0x0 PUSH1 0x40 MLOAD DUP1 PUSH1 0xA0 ADD PUSH1 0x40 MSTORE DUP1 PUSH1 0x0 DUP1 CALLER PUSH20 0xFFFFFFFFFFFFFFFFFFFFFFFFFFFFFFFFFFFFFFFF AND PUSH20 0xFFFFFFFFFFFFFFFFFFFFFFFFFFFFFFFFFFFFFFFF AND DUP2 MSTORE PUSH1 0x20 ADD SWAP1 DUP2 MSTORE PUSH1 0x20 ADD PUSH1 0x0 KECCAK256 DUP1 SLOAD SWAP1 POP DUP2 MSTORE PUSH1 0x20 ADD CALLER PUSH20 0xFFFFFFFFFFFFFFFFFFFFFFFFFFFFFFFFFFFFFFFF AND DUP2 MSTORE PUSH1 0x20 ADD DUP4 DUP2 MSTORE PUSH1 0x20 ADD TIMESTAMP DUP2 MSTORE PUSH1 0x20 ADD PUSH1 0x0 DUP2 MSTORE POP SWAP1 POP PUSH1 0x0 DUP1 CALLER PUSH20 0xFFFFFFFFFFFFFFFFFFFFFFFFFFFFFFFFFFFFFFFF AND PUSH20 0xFFFFFFFFFFFFFFFFFFFFFFFFFFFFFFFFFFFFFFFF AND DUP2 MSTORE PUSH1 0x20 ADD SWAP1 DUP2 MSTORE PUSH1 0x20 ADD PUSH1 0x0 KECCAK256 DUP2 SWAP1 DUP1 PUSH1 0x1 DUP2 SLOAD ADD DUP1 DUP3 SSTORE DUP1 SWAP2 POP POP PUSH1 0x1 SWAP1 SUB SWAP1 PUSH1 0x0 MSTORE PUSH1 0x20 PUSH1 0x0 KECCAK256 SWAP1 PUSH1 0x5 MUL ADD PUSH1 0x0 SWAP1 SWAP2 SWAP1 SWAP2 SWAP1 SWAP2 POP PUSH1 0x0 DUP3 ADD MLOAD DUP2 PUSH1 0x0 ADD SSTORE PUSH1 0x20 DUP3 ADD MLOAD DUP2 PUSH1 0x1 ADD PUSH1 0x0 PUSH2 0x100 EXP DUP2 SLOAD DUP2 PUSH20 0xFFFFFFFFFFFFFFFFFFFFFFFFFFFFFFFFFFFFFFFF MUL NOT AND SWAP1 DUP4 PUSH20 0xFFFFFFFFFFFFFFFFFFFFFFFFFFFFFFFFFFFFFFFF AND MUL OR SWAP1 SSTORE POP PUSH1 0x40 DUP3 ADD MLOAD DUP2 PUSH1 0x2 ADD SWAP1 DUP2 PUSH2 0x849 SWAP2 SWAP1 PUSH2 0x143C JUMP JUMPDEST POP PUSH1 0x60 DUP3 ADD MLOAD DUP2 PUSH1 0x3 ADD SSTORE PUSH1 0x80 DUP3 ADD MLOAD DUP2 PUSH1 0x4 ADD SSTORE POP POP PUSH32 0x6E5546A74A8EF6731872256D3BBBF86208675B875B179ABED63F4ED747A30CFB DUP2 PUSH1 0x0 ADD MLOAD DUP3 PUSH1 0x20 ADD MLOAD DUP4 PUSH1 0x40 ADD MLOAD DUP5 PUSH1 0x60 ADD MLOAD PUSH1 0x40 MLOAD PUSH2 0x8A5 SWAP5 SWAP4 SWAP3 SWAP2 SWAP1 PUSH2 0x1547 JUMP JUMPDEST PUSH1 0x40 MLOAD DUP1 SWAP2 SUB SWAP1 LOG1 POP POP JUMP JUMPDEST PUSH1 0x1 PUSH1 0x0 SWAP1 SLOAD SWAP1 PUSH2 0x100 EXP SWAP1 DIV PUSH20 0xFFFFFFFFFFFFFFFFFFFFFFFFFFFFFFFFFFFFFFFF AND DUP2 JUMP JUMPDEST PUSH2 0x8DF PUSH2 0xA55 JUMP JUMPDEST PUSH1 0x0 DUP1 CALLER PUSH20 0xFFFFFFFFFFFFFFFFFFFFFFFFFFFFFFFFFFFFFFFF AND PUSH20 0xFFFFFFFFFFFFFFFFFFFFFFFFFFFFFFFFFFFFFFFF AND DUP2 MSTORE PUSH1 0x20 ADD SWAP1 DUP2 MSTORE PUSH1 0x20 ADD PUSH1 0x0 KECCAK256 DUP3 DUP2 SLOAD DUP2 LT PUSH2 0x92F JUMPI PUSH2 0x92E PUSH2 0x1084 JUMP JUMPDEST JUMPDEST SWAP1 PUSH1 0x0 MSTORE PUSH1 0x20 PUSH1 0x0 KECCAK256 SWAP1 PUSH1 0x5 MUL ADD PUSH1 0x40 MLOAD DUP1 PUSH1 0xA0 ADD PUSH1 0x40 MSTORE SWAP1 DUP2 PUSH1 0x0 DUP3 ADD SLOAD DUP2 MSTORE PUSH1 0x20 ADD PUSH1 0x1 DUP3 ADD PUSH1 0x0 SWAP1 SLOAD SWAP1 PUSH2 0x100 EXP SWAP1 DIV PUSH20 0xFFFFFFFFFFFFFFFFFFFFFFFFFFFFFFFFFFFFFFFF AND PUSH20 0xFFFFFFFFFFFFFFFFFFFFFFFFFFFFFFFFFFFFFFFF AND PUSH20 0xFFFFFFFFFFFFFFFFFFFFFFFFFFFFFFFFFFFFFFFF AND DUP2 MSTORE PUSH1 0x20 ADD PUSH1 0x2 DUP3 ADD DUP1 SLOAD PUSH2 0x9B8 SWAP1 PUSH2 0x1053 JUMP JUMPDEST DUP1 PUSH1 0x1F ADD PUSH1 0x20 DUP1 SWAP2 DIV MUL PUSH1 0x20 ADD PUSH1 0x40 MLOAD SWAP1 DUP2 ADD PUSH1 0x40 MSTORE DUP1 SWAP3 SWAP2 SWAP1 DUP2 DUP2 MSTORE PUSH1 0x20 ADD DUP3 DUP1 SLOAD PUSH2 0x9E4 SWAP1 PUSH2 0x1053 JUMP JUMPDEST DUP1 ISZERO PUSH2 0xA31 JUMPI DUP1 PUSH1 0x1F LT PUSH2 0xA06 JUMPI PUSH2 0x100 DUP1 DUP4 SLOAD DIV MUL DUP4 MSTORE SWAP2 PUSH1 0x20 ADD SWAP2 PUSH2 0xA31 JUMP JUMPDEST DUP3 ADD SWAP2 SWAP1 PUSH1 0x0 MSTORE PUSH1 0x20 PUSH1 0x0 KECCAK256 SWAP1 JUMPDEST DUP2 SLOAD DUP2 MSTORE SWAP1 PUSH1 0x1 ADD SWAP1 PUSH1 0x20 ADD DUP1 DUP4 GT PUSH2 0xA14 JUMPI DUP3 SWAP1 SUB PUSH1 0x1F AND DUP3 ADD SWAP2 JUMPDEST POP POP POP POP POP DUP2 MSTORE PUSH1 0x20 ADD PUSH1 0x3 DUP3 ADD SLOAD DUP2 MSTORE PUSH1 0x20 ADD PUSH1 0x4 DUP3 ADD SLOAD DUP2 MSTORE POP POP SWAP1 POP SWAP2 SWAP1 POP JUMP JUMPDEST PUSH1 0x40 MLOAD DUP1 PUSH1 0xA0 ADD PUSH1 0x40 MSTORE DUP1 PUSH1 0x0 DUP2 MSTORE PUSH1 0x20 ADD PUSH1 0x0 PUSH20 0xFFFFFFFFFFFFFFFFFFFFFFFFFFFFFFFFFFFFFFFF AND DUP2 MSTORE PUSH1 0x20 ADD PUSH1 0x60 DUP2 MSTORE PUSH1 0x20 ADD PUSH1 0x0 DUP2 MSTORE PUSH1 0x20 ADD PUSH1 0x0 DUP2 MSTORE POP SWAP1 JUMP JUMPDEST PUSH1 0x0 PUSH1 0x40 MLOAD SWAP1 POP SWAP1 JUMP JUMPDEST PUSH1 0x0 DUP1 REVERT JUMPDEST PUSH1 0x0 DUP1 REVERT JUMPDEST PUSH1 0x0 PUSH20 0xFFFFFFFFFFFFFFFFFFFFFFFFFFFFFFFFFFFFFFFF DUP3 AND SWAP1 POP SWAP2 SWAP1 POP JUMP JUMPDEST PUSH1 0x0 PUSH2 0xAD9 DUP3 PUSH2 0xAAE JUMP JUMPDEST SWAP1 POP SWAP2 SWAP1 POP JUMP JUMPDEST PUSH2 0xAE9 DUP2 PUSH2 0xACE JUMP JUMPDEST DUP2 EQ PUSH2 0xAF4 JUMPI PUSH1 0x0 DUP1 REVERT JUMPDEST POP JUMP JUMPDEST PUSH1 0x0 DUP2 CALLDATALOAD SWAP1 POP PUSH2 0xB06 DUP2 PUSH2 0xAE0 JUMP JUMPDEST SWAP3 SWAP2 POP POP JUMP JUMPDEST PUSH1 0x0 PUSH1 0x20 DUP3 DUP5 SUB SLT ISZERO PUSH2 0xB22 JUMPI PUSH2 0xB21 PUSH2 0xAA4 JUMP JUMPDEST JUMPDEST PUSH1 0x0 PUSH2 0xB30 DUP5 DUP3 DUP6 ADD PUSH2 0xAF7 JUMP JUMPDEST SWAP2 POP POP SWAP3 SWAP2 POP POP JUMP JUMPDEST PUSH1 0x0 DUP2 MLOAD SWAP1 POP SWAP2 SWAP1 POP JUMP JUMPDEST PUSH1 0x0 DUP3 DUP3 MSTORE PUSH1 0x20 DUP3 ADD SWAP1 POP SWAP3 SWAP2 POP POP JUMP JUMPDEST PUSH1 0x0 DUP2 SWAP1 POP PUSH1 0x20 DUP3 ADD SWAP1 POP SWAP2 SWAP1 POP JUMP JUMPDEST PUSH1 0x0 DUP2 SWAP1 POP SWAP2 SWAP1 POP JUMP JUMPDEST PUSH2 0xB78 DUP2 PUSH2 0xB65 JUMP JUMPDEST DUP3 MSTORE POP POP JUMP JUMPDEST PUSH2 0xB87 DUP2 PUSH2 0xACE JUMP JUMPDEST DUP3 MSTORE POP POP JUMP JUMPDEST PUSH1 0x0 DUP2 MLOAD SWAP1 POP SWAP2 SWAP1 POP JUMP JUMPDEST PUSH1 0x0 DUP3 DUP3 MSTORE PUSH1 0x20 DUP3 ADD SWAP1 POP SWAP3 SWAP2 POP POP JUMP JUMPDEST PUSH1 0x0 JUMPDEST DUP4 DUP2 LT ISZERO PUSH2 0xBC7 JUMPI DUP1 DUP3 ADD MLOAD DUP2 DUP5 ADD MSTORE PUSH1 0x20 DUP2 ADD SWAP1 POP PUSH2 0xBAC JUMP JUMPDEST PUSH1 0x0 DUP5 DUP5 ADD MSTORE POP POP POP POP JUMP JUMPDEST PUSH1 0x0 PUSH1 0x1F NOT PUSH1 0x1F DUP4 ADD AND SWAP1 POP SWAP2 SWAP1 POP JUMP JUMPDEST PUSH1 0x0 PUSH2 0xBEF DUP3 PUSH2 0xB8D JUMP JUMPDEST PUSH2 0xBF9 DUP2 DUP6 PUSH2 0xB98 JUMP JUMPDEST SWAP4 POP PUSH2 0xC09 DUP2 DUP6 PUSH1 0x20 DUP7 ADD PUSH2 0xBA9 JUMP JUMPDEST PUSH2 0xC12 DUP2 PUSH2 0xBD3 JUMP JUMPDEST DUP5 ADD SWAP2 POP POP SWAP3 SWAP2 POP POP JUMP JUMPDEST PUSH1 0x0 PUSH1 0xA0 DUP4 ADD PUSH1 0x0 DUP4 ADD MLOAD PUSH2 0xC35 PUSH1 0x0 DUP7 ADD DUP3 PUSH2 0xB6F JUMP JUMPDEST POP PUSH1 0x20 DUP4 ADD MLOAD PUSH2 0xC48 PUSH1 0x20 DUP7 ADD DUP3 PUSH2 0xB7E JUMP JUMPDEST POP PUSH1 0x40 DUP4 ADD MLOAD DUP5 DUP3 SUB PUSH1 0x40 DUP7 ADD MSTORE PUSH2 0xC60 DUP3 DUP3 PUSH2 0xBE4 JUMP JUMPDEST SWAP2 POP POP PUSH1 0x60 DUP4 ADD MLOAD PUSH2 0xC75 PUSH1 0x60 DUP7 ADD DUP3 PUSH2 0xB6F JUMP JUMPDEST POP PUSH1 0x80 DUP4 ADD MLOAD PUSH2 0xC88 PUSH1 0x80 DUP7 ADD DUP3 PUSH2 0xB6F JUMP JUMPDEST POP DUP1 SWAP2 POP POP SWAP3 SWAP2 POP POP JUMP JUMPDEST PUSH1 0x0 PUSH2 0xC9F DUP4 DUP4 PUSH2 0xC1D JUMP JUMPDEST SWAP1 POP SWAP3 SWAP2 POP POP JUMP JUMPDEST PUSH1 0x0 PUSH1 0x20 DUP3 ADD SWAP1 POP SWAP2 SWAP1 POP JUMP JUMPDEST PUSH1 0x0 PUSH2 0xCBF DUP3 PUSH2 0xB39 JUMP JUMPDEST PUSH2 0xCC9 DUP2 DUP6 PUSH2 0xB44 JUMP JUMPDEST SWAP4 POP DUP4 PUSH1 0x20 DUP3 MUL DUP6 ADD PUSH2 0xCDB DUP6 PUSH2 0xB55 JUMP JUMPDEST DUP1 PUSH1 0x0 JUMPDEST DUP6 DUP2 LT ISZERO PUSH2 0xD17 JUMPI DUP5 DUP5 SUB DUP10 MSTORE DUP2 MLOAD PUSH2 0xCF8 DUP6 DUP3 PUSH2 0xC93 JUMP JUMPDEST SWAP5 POP PUSH2 0xD03 DUP4 PUSH2 0xCA7 JUMP JUMPDEST SWAP3 POP PUSH1 0x20 DUP11 ADD SWAP10 POP POP PUSH1 0x1 DUP2 ADD SWAP1 POP PUSH2 0xCDF JUMP JUMPDEST POP DUP3 SWAP8 POP DUP8 SWAP6 POP POP POP POP POP POP SWAP3 SWAP2 POP POP JUMP JUMPDEST PUSH1 0x0 PUSH1 0x20 DUP3 ADD SWAP1 POP DUP2 DUP2 SUB PUSH1 0x0 DUP4 ADD MSTORE PUSH2 0xD43 DUP2 DUP5 PUSH2 0xCB4 JUMP JUMPDEST SWAP1 POP SWAP3 SWAP2 POP POP JUMP JUMPDEST PUSH2 0xD54 DUP2 PUSH2 0xB65 JUMP JUMPDEST DUP2 EQ PUSH2 0xD5F JUMPI PUSH1 0x0 DUP1 REVERT JUMPDEST POP JUMP JUMPDEST PUSH1 0x0 DUP2 CALLDATALOAD SWAP1 POP PUSH2 0xD71 DUP2 PUSH2 0xD4B JUMP JUMPDEST SWAP3 SWAP2 POP POP JUMP JUMPDEST PUSH1 0x0 DUP1 PUSH1 0x40 DUP4 DUP6 SUB SLT ISZERO PUSH2 0xD8E JUMPI PUSH2 0xD8D PUSH2 0xAA4 JUMP JUMPDEST JUMPDEST PUSH1 0x0 PUSH2 0xD9C DUP6 DUP3 DUP7 ADD PUSH2 0xAF7 JUMP JUMPDEST SWAP3 POP POP PUSH1 0x20 PUSH2 0xDAD DUP6 DUP3 DUP7 ADD PUSH2 0xD62 JUMP JUMPDEST SWAP2 POP POP SWAP3 POP SWAP3 SWAP1 POP JUMP JUMPDEST PUSH1 0x0 DUP1 REVERT JUMPDEST PUSH1 0x0 DUP1 REVERT JUMPDEST PUSH32 0x4E487B7100000000000000000000000000000000000000000000000000000000 PUSH1 0x0 MSTORE PUSH1 0x41 PUSH1 0x4 MSTORE PUSH1 0x24 PUSH1 0x0 REVERT JUMPDEST PUSH2 0xDF9 DUP3 PUSH2 0xBD3 JUMP JUMPDEST DUP2 ADD DUP2 DUP2 LT PUSH8 0xFFFFFFFFFFFFFFFF DUP3 GT OR ISZERO PUSH2 0xE18 JUMPI PUSH2 0xE17 PUSH2 0xDC1 JUMP JUMPDEST JUMPDEST DUP1 PUSH1 0x40 MSTORE POP POP POP JUMP JUMPDEST PUSH1 0x0 PUSH2 0xE2B PUSH2 0xA9A JUMP JUMPDEST SWAP1 POP PUSH2 0xE37 DUP3 DUP3 PUSH2 0xDF0 JUMP JUMPDEST SWAP2 SWAP1 POP JUMP JUMPDEST PUSH1 0x0 PUSH8 0xFFFFFFFFFFFFFFFF DUP3 GT ISZERO PUSH2 0xE57 JUMPI PUSH2 0xE56 PUSH2 0xDC1 JUMP JUMPDEST JUMPDEST PUSH2 0xE60 DUP3 PUSH2 0xBD3 JUMP JUMPDEST SWAP1 POP PUSH1 0x20 DUP2 ADD SWAP1 POP SWAP2 SWAP1 POP JUMP JUMPDEST DUP3 DUP2 DUP4 CALLDATACOPY PUSH1 0x0 DUP4 DUP4 ADD MSTORE POP POP POP JUMP JUMPDEST PUSH1 0x0 PUSH2 0xE8F PUSH2 0xE8A DUP5 PUSH2 0xE3C JUMP JUMPDEST PUSH2 0xE21 JUMP JUMPDEST SWAP1 POP DUP3 DUP2 MSTORE PUSH1 0x20 DUP2 ADD DUP5 DUP5 DUP5 ADD GT ISZERO PUSH2 0xEAB JUMPI PUSH2 0xEAA PUSH2 0xDBC JUMP JUMPDEST JUMPDEST PUSH2 0xEB6 DUP5 DUP3 DUP6 PUSH2 0xE6D JUMP JUMPDEST POP SWAP4 SWAP3 POP POP POP JUMP JUMPDEST PUSH1 0x0 DUP3 PUSH1 0x1F DUP4 ADD SLT PUSH2 0xED3 JUMPI PUSH2 0xED2 PUSH2 0xDB7 JUMP JUMPDEST JUMPDEST DUP2 CALLDATALOAD PUSH2 0xEE3 DUP5 DUP3 PUSH1 0x20 DUP7 ADD PUSH2 0xE7C JUMP JUMPDEST SWAP2 POP POP SWAP3 SWAP2 POP POP JUMP JUMPDEST PUSH1 0x0 PUSH1 0x20 DUP3 DUP5 SUB SLT ISZERO PUSH2 0xF02 JUMPI PUSH2 0xF01 PUSH2 0xAA4 JUMP JUMPDEST JUMPDEST PUSH1 0x0 DUP3 ADD CALLDATALOAD PUSH8 0xFFFFFFFFFFFFFFFF DUP2 GT ISZERO PUSH2 0xF20 JUMPI PUSH2 0xF1F PUSH2 0xAA9 JUMP JUMPDEST JUMPDEST PUSH2 0xF2C DUP5 DUP3 DUP6 ADD PUSH2 0xEBE JUMP JUMPDEST SWAP2 POP POP SWAP3 SWAP2 POP POP JUMP JUMPDEST PUSH2 0xF3E DUP2 PUSH2 0xACE JUMP JUMPDEST DUP3 MSTORE POP POP JUMP JUMPDEST PUSH1 0x0 PUSH1 0x20 DUP3 ADD SWAP1 POP PUSH2 0xF59 PUSH1 0x0 DUP4 ADD DUP5 PUSH2 0xF35 JUMP JUMPDEST SWAP3 SWAP2 POP POP JUMP JUMPDEST PUSH1 0x0 PUSH1 0x20 DUP3 DUP5 SUB SLT ISZERO PUSH2 0xF75 JUMPI PUSH2 0xF74 PUSH2 0xAA4 JUMP JUMPDEST JUMPDEST PUSH1 0x0 PUSH2 0xF83 DUP5 DUP3 DUP6 ADD PUSH2 0xD62 JUMP JUMPDEST SWAP2 POP POP SWAP3 SWAP2 POP POP JUMP JUMPDEST PUSH1 0x0 PUSH1 0xA0 DUP4 ADD PUSH1 0x0 DUP4 ADD MLOAD PUSH2 0xFA4 PUSH1 0x0 DUP7 ADD DUP3 PUSH2 0xB6F JUMP JUMPDEST POP PUSH1 0x20 DUP4 ADD MLOAD PUSH2 0xFB7 PUSH1 0x20 DUP7 ADD DUP3 PUSH2 0xB7E JUMP JUMPDEST POP PUSH1 0x40 DUP4 ADD MLOAD DUP5 DUP3 SUB PUSH1 0x40 DUP7 ADD MSTORE PUSH2 0xFCF DUP3 DUP3 PUSH2 0xBE4 JUMP JUMPDEST SWAP2 POP POP PUSH1 0x60 DUP4 ADD MLOAD PUSH2 0xFE4 PUSH1 0x60 DUP7 ADD DUP3 PUSH2 0xB6F JUMP JUMPDEST POP PUSH1 0x80 DUP4 ADD MLOAD PUSH2 0xFF7 PUSH1 0x80 DUP7 ADD DUP3 PUSH2 0xB6F JUMP JUMPDEST POP DUP1 SWAP2 POP POP SWAP3 SWAP2 POP POP JUMP JUMPDEST PUSH1 0x0 PUSH1 0x20 DUP3 ADD SWAP1 POP DUP2 DUP2 SUB PUSH1 0x0 DUP4 ADD MSTORE PUSH2 0x101C DUP2 DUP5 PUSH2 0xF8C JUMP JUMPDEST SWAP1 POP SWAP3 SWAP2 POP POP JUMP JUMPDEST PUSH32 0x4E487B7100000000000000000000000000000000000000000000000000000000 PUSH1 0x0 MSTORE PUSH1 0x22 PUSH1 0x4 MSTORE PUSH1 0x24 PUSH1 0x0 REVERT JUMPDEST PUSH1 0x0 PUSH1 0x2 DUP3 DIV SWAP1 POP PUSH1 0x1 DUP3 AND DUP1 PUSH2 0x106B JUMPI PUSH1 0x7F DUP3 AND SWAP2 POP JUMPDEST PUSH1 0x20 DUP3 LT DUP2 SUB PUSH2 0x107E JUMPI PUSH2 0x107D PUSH2 0x1024 JUMP JUMPDEST JUMPDEST POP SWAP2 SWAP1 POP JUMP JUMPDEST PUSH32 0x4E487B7100000000000000000000000000000000000000000000000000000000 PUSH1 0x0 MSTORE PUSH1 0x32 PUSH1 0x4 MSTORE PUSH1 0x24 PUSH1 0x0 REVERT JUMPDEST PUSH1 0x0 DUP3 DUP3 MSTORE PUSH1 0x20 DUP3 ADD SWAP1 POP SWAP3 SWAP2 POP POP JUMP JUMPDEST PUSH32 0x545745455420444F4553204E4F54204558495354000000000000000000000000 PUSH1 0x0 DUP3 ADD MSTORE POP JUMP JUMPDEST PUSH1 0x0 PUSH2 0x10FA PUSH1 0x14 DUP4 PUSH2 0x10B3 JUMP JUMPDEST SWAP2 POP PUSH2 0x1105 DUP3 PUSH2 0x10C4 JUMP JUMPDEST PUSH1 0x20 DUP3 ADD SWAP1 POP SWAP2 SWAP1 POP JUMP JUMPDEST PUSH1 0x0 PUSH1 0x20 DUP3 ADD SWAP1 POP DUP2 DUP2 SUB PUSH1 0x0 DUP4 ADD MSTORE PUSH2 0x1129 DUP2 PUSH2 0x10ED JUMP JUMPDEST SWAP1 POP SWAP2 SWAP1 POP JUMP JUMPDEST PUSH32 0x545745455420484153204E4F204C494B45530000000000000000000000000000 PUSH1 0x0 DUP3 ADD MSTORE POP JUMP JUMPDEST PUSH1 0x0 PUSH2 0x1166 PUSH1 0x12 DUP4 PUSH2 0x10B3 JUMP JUMPDEST SWAP2 POP PUSH2 0x1171 DUP3 PUSH2 0x1130 JUMP JUMPDEST PUSH1 0x20 DUP3 ADD SWAP1 POP SWAP2 SWAP1 POP JUMP JUMPDEST PUSH1 0x0 PUSH1 0x20 DUP3 ADD SWAP1 POP DUP2 DUP2 SUB PUSH1 0x0 DUP4 ADD MSTORE PUSH2 0x1195 DUP2 PUSH2 0x1159 JUMP JUMPDEST SWAP1 POP SWAP2 SWAP1 POP JUMP JUMPDEST PUSH32 0x4E487B7100000000000000000000000000000000000000000000000000000000 PUSH1 0x0 MSTORE PUSH1 0x11 PUSH1 0x4 MSTORE PUSH1 0x24 PUSH1 0x0 REVERT JUMPDEST PUSH1 0x0 PUSH2 0x11D6 DUP3 PUSH2 0xB65 JUMP JUMPDEST SWAP2 POP PUSH1 0x0 DUP3 SUB PUSH2 0x11E9 JUMPI PUSH2 0x11E8 PUSH2 0x119C JUMP JUMPDEST JUMPDEST PUSH1 0x1 DUP3 SUB SWAP1 POP SWAP2 SWAP1 POP JUMP JUMPDEST PUSH2 0x11FD DUP2 PUSH2 0xB65 JUMP JUMPDEST DUP3 MSTORE POP POP JUMP JUMPDEST PUSH1 0x0 PUSH1 0x80 DUP3 ADD SWAP1 POP PUSH2 0x1218 PUSH1 0x0 DUP4 ADD DUP8 PUSH2 0xF35 JUMP JUMPDEST PUSH2 0x1225 PUSH1 0x20 DUP4 ADD DUP7 PUSH2 0xF35 JUMP JUMPDEST PUSH2 0x1232 PUSH1 0x40 DUP4 ADD DUP6 PUSH2 0x11F4 JUMP JUMPDEST PUSH2 0x123F PUSH1 0x60 DUP4 ADD DUP5 PUSH2 0x11F4 JUMP JUMPDEST SWAP6 SWAP5 POP POP POP POP POP JUMP JUMPDEST PUSH1 0x0 PUSH2 0x1253 DUP3 PUSH2 0xB65 JUMP JUMPDEST SWAP2 POP PUSH32 0xFFFFFFFFFFFFFFFFFFFFFFFFFFFFFFFFFFFFFFFFFFFFFFFFFFFFFFFFFFFFFFFF DUP3 SUB PUSH2 0x1285 JUMPI PUSH2 0x1284 PUSH2 0x119C JUMP JUMPDEST JUMPDEST PUSH1 0x1 DUP3 ADD SWAP1 POP SWAP2 SWAP1 POP JUMP JUMPDEST PUSH1 0x0 DUP2 SWAP1 POP DUP2 PUSH1 0x0 MSTORE PUSH1 0x20 PUSH1 0x0 KECCAK256 SWAP1 POP SWAP2 SWAP1 POP JUMP JUMPDEST PUSH1 0x0 PUSH1 0x20 PUSH1 0x1F DUP4 ADD DIV SWAP1 POP SWAP2 SWAP1 POP JUMP JUMPDEST PUSH1 0x0 DUP3 DUP3 SHL SWAP1 POP SWAP3 SWAP2 POP POP JUMP JUMPDEST PUSH1 0x0 PUSH1 0x8 DUP4 MUL PUSH2 0x12F2 PUSH32 0xFFFFFFFFFFFFFFFFFFFFFFFFFFFFFFFFFFFFFFFFFFFFFFFFFFFFFFFFFFFFFFFF DUP3 PUSH2 0x12B5 JUMP JUMPDEST PUSH2 0x12FC DUP7 DUP4 PUSH2 0x12B5 JUMP JUMPDEST SWAP6 POP DUP1 NOT DUP5 AND SWAP4 POP DUP1 DUP7 AND DUP5 OR SWAP3 POP POP POP SWAP4 SWAP3 POP POP POP JUMP JUMPDEST PUSH1 0x0 DUP2 SWAP1 POP SWAP2 SWAP1 POP JUMP JUMPDEST PUSH1 0x0 PUSH2 0x1339 PUSH2 0x1334 PUSH2 0x132F DUP5 PUSH2 0xB65 JUMP JUMPDEST PUSH2 0x1314 JUMP JUMPDEST PUSH2 0xB65 JUMP JUMPDEST SWAP1 POP SWAP2 SWAP1 POP JUMP JUMPDEST PUSH1 0x0 DUP2 SWAP1 POP SWAP2 SWAP1 POP JUMP JUMPDEST PUSH2 0x1353 DUP4 PUSH2 0x131E JUMP JUMPDEST PUSH2 0x1367 PUSH2 0x135F DUP3 PUSH2 0x1340 JUMP JUMPDEST DUP5 DUP5 SLOAD PUSH2 0x12C2 JUMP JUMPDEST DUP3 SSTORE POP POP POP POP JUMP JUMPDEST PUSH1 0x0 SWAP1 JUMP JUMPDEST PUSH2 0x137C PUSH2 0x136F JUMP JUMPDEST PUSH2 0x1387 DUP2 DUP5 DUP5 PUSH2 0x134A JUMP JUMPDEST POP POP POP JUMP JUMPDEST JUMPDEST DUP2 DUP2 LT ISZERO PUSH2 0x13AB JUMPI PUSH2 0x13A0 PUSH1 0x0 DUP3 PUSH2 0x1374 JUMP JUMPDEST PUSH1 0x1 DUP2 ADD SWAP1 POP PUSH2 0x138D JUMP JUMPDEST POP POP JUMP JUMPDEST PUSH1 0x1F DUP3 GT ISZERO PUSH2 0x13F0 JUMPI PUSH2 0x13C1 DUP2 PUSH2 0x1290 JUMP JUMPDEST PUSH2 0x13CA DUP5 PUSH2 0x12A5 JUMP JUMPDEST DUP2 ADD PUSH1 0x20 DUP6 LT ISZERO PUSH2 0x13D9 JUMPI DUP2 SWAP1 POP JUMPDEST PUSH2 0x13ED PUSH2 0x13E5 DUP6 PUSH2 0x12A5 JUMP JUMPDEST DUP4 ADD DUP3 PUSH2 0x138C JUMP JUMPDEST POP POP JUMPDEST POP POP POP JUMP JUMPDEST PUSH1 0x0 DUP3 DUP3 SHR SWAP1 POP SWAP3 SWAP2 POP POP JUMP JUMPDEST PUSH1 0x0 PUSH2 0x1413 PUSH1 0x0 NOT DUP5 PUSH1 0x8 MUL PUSH2 0x13F5 JUMP JUMPDEST NOT DUP1 DUP4 AND SWAP2 POP POP SWAP3 SWAP2 POP POP JUMP JUMPDEST PUSH1 0x0 PUSH2 0x142C DUP4 DUP4 PUSH2 0x1402 JUMP JUMPDEST SWAP2 POP DUP3 PUSH1 0x2 MUL DUP3 OR SWAP1 POP SWAP3 SWAP2 POP POP JUMP JUMPDEST PUSH2 0x1445 DUP3 PUSH2 0xB8D JUMP JUMPDEST PUSH8 0xFFFFFFFFFFFFFFFF DUP2 GT ISZERO PUSH2 0x145E JUMPI PUSH2 0x145D PUSH2 0xDC1 JUMP JUMPDEST JUMPDEST PUSH2 0x1468 DUP3 SLOAD PUSH2 0x1053 JUMP JUMPDEST PUSH2 0x1473 DUP3 DUP3 DUP6 PUSH2 0x13AF JUMP JUMPDEST PUSH1 0x0 PUSH1 0x20 SWAP1 POP PUSH1 0x1F DUP4 GT PUSH1 0x1 DUP2 EQ PUSH2 0x14A6 JUMPI PUSH1 0x0 DUP5 ISZERO PUSH2 0x1494 JUMPI DUP3 DUP8 ADD MLOAD SWAP1 POP JUMPDEST PUSH2 0x149E DUP6 DUP3 PUSH2 0x1420 JUMP JUMPDEST DUP7 SSTORE POP PUSH2 0x1506 JUMP JUMPDEST PUSH1 0x1F NOT DUP5 AND PUSH2 0x14B4 DUP7 PUSH2 0x1290 JUMP JUMPDEST PUSH1 0x0 JUMPDEST DUP3 DUP2 LT ISZERO PUSH2 0x14DC JUMPI DUP5 DUP10 ADD MLOAD DUP3 SSTORE PUSH1 0x1 DUP3 ADD SWAP2 POP PUSH1 0x20 DUP6 ADD SWAP5 POP PUSH1 0x20 DUP2 ADD SWAP1 POP PUSH2 0x14B7 JUMP JUMPDEST DUP7 DUP4 LT ISZERO PUSH2 0x14F9 JUMPI DUP5 DUP10 ADD MLOAD PUSH2 0x14F5 PUSH1 0x1F DUP10 AND DUP3 PUSH2 0x1402 JUMP JUMPDEST DUP4 SSTORE POP JUMPDEST PUSH1 0x1 PUSH1 0x2 DUP9 MUL ADD DUP9 SSTORE POP POP POP JUMPDEST POP POP POP POP POP POP JUMP JUMPDEST PUSH1 0x0 PUSH2 0x1519 DUP3 PUSH2 0xB8D JUMP JUMPDEST PUSH2 0x1523 DUP2 DUP6 PUSH2 0x10B3 JUMP JUMPDEST SWAP4 POP PUSH2 0x1533 DUP2 DUP6 PUSH1 0x20 DUP7 ADD PUSH2 0xBA9 JUMP JUMPDEST PUSH2 0x153C DUP2 PUSH2 0xBD3 JUMP JUMPDEST DUP5 ADD SWAP2 POP POP SWAP3 SWAP2 POP POP JUMP JUMPDEST PUSH1 0x0 PUSH1 0x80 DUP3 ADD SWAP1 POP PUSH2 0x155C PUSH1 0x0 DUP4 ADD DUP8 PUSH2 0x11F4 JUMP JUMPDEST PUSH2 0x1569 PUSH1 0x20 DUP4 ADD DUP7 PUSH2 0xF35 JUMP JUMPDEST DUP2 DUP2 SUB PUSH1 0x40 DUP4 ADD MSTORE PUSH2 0x157B DUP2 DUP6 PUSH2 0x150E JUMP JUMPDEST SWAP1 POP PUSH2 0x158A PUSH1 0x60 DUP4 ADD DUP5 PUSH2 0x11F4 JUMP JUMPDEST SWAP6 SWAP5 POP POP POP POP POP JUMP INVALID LOG2 PUSH5 0x6970667358 0x22 SLT KECCAK256 CALLDATASIZE 0xD2 GT 0xAB ADDRESS PUSH19 0x2126DD4034D82F45F50C785C5DB22DB829C2C9 PUSH28 0xEE5FE93027A164736F6C634300081300330000000000000000000000 "
				},
				"gasEstimates": {
					"creation": {
						"codeDepositCost": "1115400",
						"executionCost": "25426",
						"totalCost": "1140826"
					},
					"external": {
						"createTweet(string)": "infinite",
						"getAllTweets(address)": "infinite",
						"getTweet(uint256)": "infinite",
						"likeTweet(address,uint256)": "infinite",
						"owner()": "2580",
						"unlikeTweet(address,uint256)": "infinite"
					}
				},
				"methodIdentifiers": {
					"createTweet(string)": "7c9cd2bc",
					"getAllTweets(address)": "12e7ee1c",
					"getTweet(uint256)": "c3ad5ecb",
					"likeTweet(address,uint256)": "63378216",
					"owner()": "8da5cb5b",
					"unlikeTweet(address,uint256)": "3d9b569f"
				}
			},
			"storageLayout": {
				"storage": [
					{
						"astId": 18,
						"contract": "contracts/twitter.sol:twitter",
						"label": "tweets",
						"offset": 0,
						"slot": "0",
						"type": "t_mapping(t_address,t_array(t_struct(tweet)12_storage)dyn_storage)"
					},
					{
						"astId": 20,
						"contract": "contracts/twitter.sol:twitter",
						"label": "owner",
						"offset": 0,
						"slot": "1",
						"type": "t_address"
					}
				],
				"types": {
					"t_address": {
						"encoding": "inplace",
						"label": "address",
						"numberOfBytes": "20"
					},
					"t_array(t_struct(tweet)12_storage)dyn_storage": {
						"base": "t_struct(tweet)12_storage",
						"encoding": "dynamic_array",
						"label": "struct twitter.tweet[]",
						"numberOfBytes": "32"
					},
					"t_mapping(t_address,t_array(t_struct(tweet)12_storage)dyn_storage)": {
						"encoding": "mapping",
						"key": "t_address",
						"label": "mapping(address => struct twitter.tweet[])",
						"numberOfBytes": "32",
						"value": "t_array(t_struct(tweet)12_storage)dyn_storage"
					},
					"t_string_storage": {
						"encoding": "bytes",
						"label": "string",
						"numberOfBytes": "32"
					},
					"t_struct(tweet)12_storage": {
						"encoding": "inplace",
						"label": "struct twitter.tweet",
						"members": [
							{
								"astId": 3,
								"contract": "contracts/twitter.sol:twitter",
								"label": "id",
								"offset": 0,
								"slot": "0",
								"type": "t_uint256"
							},
							{
								"astId": 5,
								"contract": "contracts/twitter.sol:twitter",
								"label": "author",
								"offset": 0,
								"slot": "1",
								"type": "t_address"
							},
							{
								"astId": 7,
								"contract": "contracts/twitter.sol:twitter",
								"label": "content",
								"offset": 0,
								"slot": "2",
								"type": "t_string_storage"
							},
							{
								"astId": 9,
								"contract": "contracts/twitter.sol:twitter",
								"label": "timestamp",
								"offset": 0,
								"slot": "3",
								"type": "t_uint256"
							},
							{
								"astId": 11,
								"contract": "contracts/twitter.sol:twitter",
								"label": "likes",
								"offset": 0,
								"slot": "4",
								"type": "t_uint256"
							}
						],
						"numberOfBytes": "160"
					},
					"t_uint256": {
						"encoding": "inplace",
						"label": "uint256",
						"numberOfBytes": "32"
					}
				}
			},
			"userdoc": {
				"kind": "user",
				"methods": {},
				"version": 1
			}
		}
	}
}